{
	"data": {
		"bytecode": {
			"linkReferences": {},
			"object": "60a06040523073ffffffffffffffffffffffffffffffffffffffff1660809073ffffffffffffffffffffffffffffffffffffffff168152503480156041575f5ffd5b50608051615aad6100685f395f8181612352015281816123a701526126640152615aad5ff3fe608060405260043610610184575f3560e01c80638bff608e116100d0578063b0d691fe11610089578063d33219b411610063578063d33219b4146105aa578063d547741f146105d4578063e2749c96146105fc578063fabfaf77146106265761018b565b8063b0d691fe14610530578063c73d7c7b1461055a578063cf25cdb4146105825761018b565b80638bff608e146103ec57806391d14854146104285780639f78a94614610464578063a217fddf146104a0578063ac63edbc146104ca578063ad3cb1cc146105065761018b565b80633a871cdd1161013d57806352d1902d1161011757806352d1902d14610340578063538636131461036a5780635c975abb1461039257806384b0196e146103bc5761018b565b80633a871cdd146102be57806342cde4e8146102fa5780634f1ef286146103245761018b565b806301ffc9a71461018f5780630eb94263146101cb57806316e4cbf914610208578063248a9ca3146102325780632f2ff15d1461026e57806336568abe146102965761018b565b3661018b57005b5f5ffd5b34801561019a575f5ffd5b506101b560048036038101906101b091906139f1565b61064e565b6040516101c29190613a36565b60405180910390f35b3480156101d6575f5ffd5b506101f160048036038101906101ec9190613aa9565b6106c7565b6040516101ff929190613b04565b60405180910390f35b348015610213575f5ffd5b5061021c6106e7565b6040516102299190613b3a565b60405180910390f35b34801561023d575f5ffd5b5061025860048036038101906102539190613b7d565b61070c565b6040516102659190613ba8565b60405180910390f35b348015610279575f5ffd5b50610294600480360381019061028f9190613bc1565b610736565b005b3480156102a1575f5ffd5b506102bc60048036038101906102b79190613bc1565b610758565b005b3480156102c9575f5ffd5b506102e460048036038101906102df9190613c4c565b6107d3565b6040516102f19190613cb8565b60405180910390f35b348015610305575f5ffd5b5061030e610f7f565b60405161031b9190613cf3565b60405180910390f35b61033e60048036038101906103399190613e48565b610f99565b005b34801561034b575f5ffd5b50610354610fb8565b6040516103619190613ba8565b60405180910390f35b348015610375575f5ffd5b50610390600480360381019061038b9190613aa9565b610fe9565b005b34801561039d575f5ffd5b506103a66112d7565b6040516103b39190613a36565b60405180910390f35b3480156103c7575f5ffd5b506103d06112f9565b6040516103e39796959493929190613ff3565b60405180910390f35b3480156103f7575f5ffd5b50610412600480360381019061040d9190613aa9565b611402565b60405161041f9190613cb8565b60405180910390f35b348015610433575f5ffd5b5061044e60048036038101906104499190613bc1565b611417565b60405161045b9190613a36565b60405180910390f35b34801561046f575f5ffd5b5061048a60048036038101906104859190613aa9565b6114d1565b6040516104979190613cf3565b60405180910390f35b3480156104ab575f5ffd5b506104b46114f5565b6040516104c19190613ba8565b60405180910390f35b3480156104d5575f5ffd5b506104f060048036038101906104eb9190613aa9565b6114fb565b6040516104fd9190613b3a565b60405180910390f35b348015610511575f5ffd5b5061051a61152b565b6040516105279190614075565b60405180910390f35b34801561053b575f5ffd5b50610544611564565b6040516105519190613b3a565b60405180910390f35b348015610565575f5ffd5b50610580600480360381019061057b91906140bf565b611588565b005b34801561058d575f5ffd5b506105a860048036038101906105a391906143b0565b611614565b005b3480156105b5575f5ffd5b506105be611a81565b6040516105cb9190614406565b60405180910390f35b3480156105df575f5ffd5b506105fa60048036038101906105f59190613bc1565b611aa6565b005b348015610607575f5ffd5b50610610611b69565b60405161061d9190613a36565b60405180910390f35b348015610631575f5ffd5b5061064c60048036038101906106479190614478565b611b7b565b005b5f7f7965db0b000000000000000000000000000000000000000000000000000000007bffffffffffffffffffffffffffffffffffffffffffffffffffffffff1916827bffffffffffffffffffffffffffffffffffffffffffffffffffffffff191614806106c057506106bf82611e75565b5b9050919050565b6005602052805f5260405f205f91509050805f0154908060010154905082565b60015f9054906101000a900473ffffffffffffffffffffffffffffffffffffffff1681565b5f5f610716611ede565b9050805f015f8481526020019081526020015f2060010154915050919050565b61073f8261070c565b61074881611f05565b6107528383611f19565b50505050565b610760612011565b73ffffffffffffffffffffffffffffffffffffffff168173ffffffffffffffffffffffffffffffffffffffff16146107c4576040517f6697b23200000000000000000000000000000000000000000000000000000000815260040160405180910390fd5b6107ce8282612018565b505050565b5f6107dc612110565b600a5f9054906101000a900460ff1615610822576040517f4763c4eb00000000000000000000000000000000000000000000000000000000815260040160405180910390fd5b5f5f9054906101000a900473ffffffffffffffffffffffffffffffffffffffff1673ffffffffffffffffffffffffffffffffffffffff163373ffffffffffffffffffffffffffffffffffffffff16146108b0576040517f08c379a00000000000000000000000000000000000000000000000000000000081526004016108a790614533565b60405180910390fd5b60075f855f0160208101906108c59190613aa9565b73ffffffffffffffffffffffffffffffffffffffff1673ffffffffffffffffffffffffffffffffffffffff1681526020019081526020015f205f9054906101000a900460ff161561094b576040517f08c379a00000000000000000000000000000000000000000000000000000000081526004016109429061459b565b60405180910390fd5b825f5f9054906101000a900473ffffffffffffffffffffffffffffffffffffffff1673ffffffffffffffffffffffffffffffffffffffff1663a6193531866040518263ffffffff1660e01b81526004016109a591906147ff565b602060405180830381865afa1580156109c0573d5f5f3e3d5ffd5b505050506040513d601f19601f820116820180604052508101906109e49190614833565b14610a24576040517f08c379a0000000000000000000000000000000000000000000000000000000008152600401610a1b906148a8565b60405180910390fd5b836020013560035f865f016020810190610a3e9190613aa9565b73ffffffffffffffffffffffffffffffffffffffff1673ffffffffffffffffffffffffffffffffffffffff1681526020019081526020015f205f9054906101000a900467ffffffffffffffff1667ffffffffffffffff1614610ad5576040517f08c379a0000000000000000000000000000000000000000000000000000000008152600401610acc90614910565b60405180910390fd5b5f5f1b60055f865f016020810190610aed9190613aa9565b73ffffffffffffffffffffffffffffffffffffffff1673ffffffffffffffffffffffffffffffffffffffff1681526020019081526020015f205f015414610b5f57610b5a845f016020810190610b439190613aa9565b8486806101400190610b55919061493a565b612164565b610ed5565b5f73ffffffffffffffffffffffffffffffffffffffff1660045f865f016020810190610b8b9190613aa9565b73ffffffffffffffffffffffffffffffffffffffff1673ffffffffffffffffffffffffffffffffffffffff1681526020019081526020015f205f9054906101000a900473ffffffffffffffffffffffffffffffffffffffff1673ffffffffffffffffffffffffffffffffffffffff1614610d47575f610c09846122c7565b905060045f865f016020810190610c209190613aa9565b73ffffffffffffffffffffffffffffffffffffffff1673ffffffffffffffffffffffffffffffffffffffff1681526020019081526020015f205f9054906101000a900473ffffffffffffffffffffffffffffffffffffffff1673ffffffffffffffffffffffffffffffffffffffff16610ceb8287806101400190610ca4919061493a565b8080601f0160208091040260200160405190810160405280939291908181526020018383808284375f81840152601f19601f820116905080830192505050505050506122f6565b73ffffffffffffffffffffffffffffffffffffffff1614610d41576040517f08c379a0000000000000000000000000000000000000000000000000000000008152600401610d38906149e6565b60405180910390fd5b50610ed4565b5f610df67f98af602ff46b5753c75bb298575281316139743144ee6ebaa1ebe847725d979e865f016020810190610d7e9190613aa9565b8760200135888060600190610d93919061493a565b604051610da1929190614a32565b604051809103902089608001358a60a001358b60c001358c60e001358d6101000135604051602001610ddb99989796959493929190614a4a565b60405160208183030381529060405280519060200120612320565b9050845f016020810190610e0a9190613aa9565b73ffffffffffffffffffffffffffffffffffffffff16610e7c8287806101400190610e35919061493a565b8080601f0160208091040260200160405190810160405280939291908181526020018383808284375f81840152601f19601f820116905080830192505050505050506122f6565b73ffffffffffffffffffffffffffffffffffffffff1614610ed2576040517f08c379a0000000000000000000000000000000000000000000000000000000008152600401610ec990614b1f565b60405180910390fd5b505b5b60035f855f016020810190610eea9190613aa9565b73ffffffffffffffffffffffffffffffffffffffff1673ffffffffffffffffffffffffffffffffffffffff1681526020019081526020015f205f81819054906101000a900467ffffffffffffffff1680929190610f4690614b6a565b91906101000a81548167ffffffffffffffff021916908367ffffffffffffffff160217905550505f9050610f78612339565b9392505050565b600260149054906101000a900467ffffffffffffffff1681565b610fa1612350565b610faa82612436565b610fb48282612544565b5050565b5f610fc1612662565b7f360894a13ba1a3210667c828492db98dca3e2076cc3735a920a3ca505d382bbc5f1b905090565b610ff1612110565b3360075f8273ffffffffffffffffffffffffffffffffffffffff1673ffffffffffffffffffffffffffffffffffffffff1681526020019081526020015f205f9054906101000a900460ff161561107c576040517f08c379a00000000000000000000000000000000000000000000000000000000081526004016110739061459b565b60405180910390fd5b33600a60095f8373ffffffffffffffffffffffffffffffffffffffff1673ffffffffffffffffffffffffffffffffffffffff1681526020019081526020015f20546110c79190614b99565b43116110ff576040517f3f7b7a6800000000000000000000000000000000000000000000000000000000815260040160405180910390fd5b4360095f8373ffffffffffffffffffffffffffffffffffffffff1673ffffffffffffffffffffffffffffffffffffffff1681526020019081526020015f2081905550600a5f9054906101000a900460ff1615611187576040517f4763c4eb00000000000000000000000000000000000000000000000000000000815260040160405180910390fd5b5f73ffffffffffffffffffffffffffffffffffffffff168373ffffffffffffffffffffffffffffffffffffffff16036111f5576040517f08c379a00000000000000000000000000000000000000000000000000000000081526004016111ec90614c16565b60405180910390fd5b8260045f3373ffffffffffffffffffffffffffffffffffffffff1673ffffffffffffffffffffffffffffffffffffffff1681526020019081526020015f205f6101000a81548173ffffffffffffffffffffffffffffffffffffffff021916908373ffffffffffffffffffffffffffffffffffffffff1602179055508273ffffffffffffffffffffffffffffffffffffffff163373ffffffffffffffffffffffffffffffffffffffff167fb6e26b6492f11c85b522c9d2b11f66c83cac7624b8ee266fc966bf8c5242f7fc60405160405180910390a350506112d4612339565b50565b5f5f6112e16126e9565b9050805f015f9054906101000a900460ff1691505090565b5f6060805f5f5f60605f61130b612710565b90505f5f1b815f015414801561132657505f5f1b8160010154145b611365576040517f08c379a000000000000000000000000000000000000000000000000000000000815260040161135c90614c7e565b60405180910390fd5b61136d612737565b6113756127d5565b46305f5f1b5f67ffffffffffffffff81111561139457611393613d24565b5b6040519080825280602002602001820160405280156113c25781602001602082028036833780820191505090505b507f0f0000000000000000000000000000000000000000000000000000000000000095949392919097509750975097509750975097505090919293949596565b6009602052805f5260405f205f915090505481565b5f5f838360405160200161142c929190614c9c565b6040516020818303038152906040528051906020012090505f60085f8381526020019081526020015f205f9054906101000a900467ffffffffffffffff1667ffffffffffffffff16141580156114af575060085f8281526020019081526020015f205f9054906101000a900467ffffffffffffffff1667ffffffffffffffff1642115b156114bd575f9150506114cb565b6114c78484612873565b9150505b92915050565b6006602052805f5260405f205f915054906101000a900467ffffffffffffffff1681565b5f5f1b81565b6004602052805f5260405f205f915054906101000a900473ffffffffffffffffffffffffffffffffffffffff1681565b6040518060400160405280600581526020017f352e302e3000000000000000000000000000000000000000000000000000000081525081565b5f5f9054906101000a900473ffffffffffffffffffffffffffffffffffffffff1681565b5f5f1b61159481611f05565b61159c612110565b81600a5f6101000a81548160ff02191690831515021790555081156115c8576115c36128e4565b6115d1565b6115d0612953565b5b7fcbe1b789cda412d9e1c647ed03d0c71e2f71484be36f9ca2b2a346b29edf1b70826040516116009190613a36565b60405180910390a1611610612339565b5050565b5f61161d6129c1565b90505f815f0160089054906101000a900460ff161590505f825f015f9054906101000a900467ffffffffffffffff1690505f5f8267ffffffffffffffff161480156116655750825b90505f60018367ffffffffffffffff1614801561169857505f3073ffffffffffffffffffffffffffffffffffffffff163b145b9050811580156116a6575080155b156116dd576040517ff92ee8a900000000000000000000000000000000000000000000000000000000815260040160405180910390fd5b6001855f015f6101000a81548167ffffffffffffffff021916908367ffffffffffffffff160217905550831561172a576001855f0160086101000a81548160ff0219169083151502179055505b5f866020015167ffffffffffffffff1611801561175457505f866040015167ffffffffffffffff16115b801561178f57505f73ffffffffffffffffffffffffffffffffffffffff16865f015173ffffffffffffffffffffffffffffffffffffffff1614155b6117ce576040517f08c379a00000000000000000000000000000000000000000000000000000000081526004016117c590614d0d565b60405180910390fd5b5f73ffffffffffffffffffffffffffffffffffffffff1686610100015173ffffffffffffffffffffffffffffffffffffffff161415801561184057505f73ffffffffffffffffffffffffffffffffffffffff1686610120015173ffffffffffffffffffffffffffffffffffffffff1614155b801561187d57505f73ffffffffffffffffffffffffffffffffffffffff1686610140015173ffffffffffffffffffffffffffffffffffffffff1614155b6118bc576040517f08c379a00000000000000000000000000000000000000000000000000000000081526004016118b390614d75565b60405180910390fd5b6032866060015151111580156118d85750603286608001515111155b611917576040517f08c379a000000000000000000000000000000000000000000000000000000000815260040161190e90614ddd565b60405180910390fd5b61191f6129d4565b6119276129de565b61192f6129e8565b6119376129f2565b6119ab6040518060400160405280600b81526020017f52797a657257616c6c65740000000000000000000000000000000000000000008152506040518060400160405280600181526020017f3100000000000000000000000000000000000000000000000000000000000000815250612a04565b6119b486612a1a565b6119dc86610140015133886060015189608001518a60a001518b60c001518c60e00151612b82565b3073ffffffffffffffffffffffffffffffffffffffff167f234cf33b32239d80b54161e2396c80cdeaf4d34161300e54d8bc01eb7c0ea55360405160405180910390a28315611a79575f855f0160086101000a81548160ff0219169083151502179055507fc7f505b2f371ae2175ee4913f4499e1f2633a7b5936321eed1cdaeb6115181d26001604051611a709190614e3d565b60405180910390a15b505050505050565b60025f9054906101000a900473ffffffffffffffffffffffffffffffffffffffff1681565b5f5f1b611ab281611f05565b611aba612110565b611ac48383612ca5565b5f8383604051602001611ad8929190614c9c565b60405160208183030381529060405280519060200120905060085f8281526020019081526020015f205f6101000a81549067ffffffffffffffff02191690558273ffffffffffffffffffffffffffffffffffffffff16847f155aaafb6329a2098580462df33ec4b7441b19729b9601c5fc17ae1cf99a8a5260405160405180910390a350611b64612339565b505050565b600a5f9054906101000a900460ff1681565b611b83612110565b3360075f8273ffffffffffffffffffffffffffffffffffffffff1673ffffffffffffffffffffffffffffffffffffffff1681526020019081526020015f205f9054906101000a900460ff1615611c0e576040517f08c379a0000000000000000000000000000000000000000000000000000000008152600401611c059061459b565b60405180910390fd5b33600a60095f8373ffffffffffffffffffffffffffffffffffffffff1673ffffffffffffffffffffffffffffffffffffffff1681526020019081526020015f2054611c599190614b99565b4311611c91576040517f3f7b7a6800000000000000000000000000000000000000000000000000000000815260040160405180910390fd5b4360095f8373ffffffffffffffffffffffffffffffffffffffff1673ffffffffffffffffffffffffffffffffffffffff1681526020019081526020015f2081905550600a5f9054906101000a900460ff1615611d19576040517f4763c4eb00000000000000000000000000000000000000000000000000000000815260040160405180910390fd5b838686905010158015611d2b57505f84115b611d6a576040517f08c379a0000000000000000000000000000000000000000000000000000000008152600401611d6190614ea0565b60405180910390fd5b5f5f1b8303611dae576040517f08c379a0000000000000000000000000000000000000000000000000000000008152600401611da590614f08565b60405180910390fd5b60405180604001604052808481526020018581525060055f3373ffffffffffffffffffffffffffffffffffffffff1673ffffffffffffffffffffffffffffffffffffffff1681526020019081526020015f205f820151815f0155602082015181600101559050503373ffffffffffffffffffffffffffffffffffffffff167fd05cf6be8e5090dd340b8ac187eb727eba7d21b8781aa688175e2a67d9bfcec38486604051611e5d929190613b04565b60405180910390a25050611e6f612339565b50505050565b5f7f01ffc9a7000000000000000000000000000000000000000000000000000000007bffffffffffffffffffffffffffffffffffffffffffffffffffffffff1916827bffffffffffffffffffffffffffffffffffffffffffffffffffffffff1916149050919050565b5f7f02dd7bc7dec4dceedda775e58dd541e08a116c6c53815c0bd028192f7b626800905090565b611f1681611f11612011565b612cc7565b50565b5f5f611f23611ede565b9050611f2f8484611417565b612006576001815f015f8681526020019081526020015f205f015f8573ffffffffffffffffffffffffffffffffffffffff1673ffffffffffffffffffffffffffffffffffffffff1681526020019081526020015f205f6101000a81548160ff021916908315150217905550611fa2612011565b73ffffffffffffffffffffffffffffffffffffffff168373ffffffffffffffffffffffffffffffffffffffff16857f2f8788117e7eff1d82e926ec794901d17c78024a50270940304540a733656f0d60405160405180910390a4600191505061200b565b5f9150505b92915050565b5f33905090565b5f5f612022611ede565b905061202e8484611417565b15612105575f815f015f8681526020019081526020015f205f015f8573ffffffffffffffffffffffffffffffffffffffff1673ffffffffffffffffffffffffffffffffffffffff1681526020019081526020015f205f6101000a81548160ff0219169083151502179055506120a1612011565b73ffffffffffffffffffffffffffffffffffffffff168373ffffffffffffffffffffffffffffffffffffffff16857ff6391f5c32d9c69d2a47ea670b442974b53935d1edc7fd64eb21e047a839171b60405160405180910390a4600191505061210a565b5f9150505b92915050565b5f612119612d18565b90506002815f015403612158576040517f3ee5aeb500000000000000000000000000000000000000000000000000000000815260040160405180910390fd5b6002815f018190555050565b5f60055f8673ffffffffffffffffffffffffffffffffffffffff1673ffffffffffffffffffffffffffffffffffffffff1681526020019081526020015f2090505f5f5f85858101906121b691906151a2565b925092509250815183511480156121ce575082518151145b61220d576040517f08c379a000000000000000000000000000000000000000000000000000000000815260040161220490615290565b60405180910390fd5b836001015483511015612255576040517f08c379a000000000000000000000000000000000000000000000000000000000815260040161224c906152f8565b60405180910390fd5b5f61225f886122c7565b90505f612272858585895f015486612d3f565b905085600101548110156122bb576040517f08c379a00000000000000000000000000000000000000000000000000000000081526004016122b290615360565b60405180910390fd5b50505050505050505050565b5f816040516020016122d991906153f2565b604051602081830303815290604052805190602001209050919050565b5f5f5f5f6123048686612e71565b9250925092506123148282612ec6565b82935050505092915050565b5f61233261232c613028565b83613036565b9050919050565b5f612342612d18565b90506001815f018190555050565b7f000000000000000000000000000000000000000000000000000000000000000073ffffffffffffffffffffffffffffffffffffffff163073ffffffffffffffffffffffffffffffffffffffff1614806123fd57507f000000000000000000000000000000000000000000000000000000000000000073ffffffffffffffffffffffffffffffffffffffff166123e4613076565b73ffffffffffffffffffffffffffffffffffffffff1614155b15612434576040517fe07c8dba00000000000000000000000000000000000000000000000000000000815260040160405180910390fd5b565b5f5f1b61244281611f05565b60025f9054906101000a900473ffffffffffffffffffffffffffffffffffffffff1673ffffffffffffffffffffffffffffffffffffffff1663584b153e836040516020016124909190613b3a565b604051602081830303815290604052805190602001206040518263ffffffff1660e01b81526004016124c29190613ba8565b602060405180830381865afa1580156124dd573d5f5f3e3d5ffd5b505050506040513d601f19601f82011682018060405250810190612501919061542b565b612540576040517f08c379a0000000000000000000000000000000000000000000000000000000008152600401612537906154a0565b60405180910390fd5b5050565b8173ffffffffffffffffffffffffffffffffffffffff166352d1902d6040518163ffffffff1660e01b8152600401602060405180830381865afa9250505080156125ac57506040513d601f19601f820116820180604052508101906125a99190614833565b60015b6125ed57816040517f4c9c8ce30000000000000000000000000000000000000000000000000000000081526004016125e49190613b3a565b60405180910390fd5b7f360894a13ba1a3210667c828492db98dca3e2076cc3735a920a3ca505d382bbc5f1b811461265357806040517faa1d49a400000000000000000000000000000000000000000000000000000000815260040161264a9190613ba8565b60405180910390fd5b61265d83836130c9565b505050565b7f000000000000000000000000000000000000000000000000000000000000000073ffffffffffffffffffffffffffffffffffffffff163073ffffffffffffffffffffffffffffffffffffffff16146126e7576040517fe07c8dba00000000000000000000000000000000000000000000000000000000815260040160405180910390fd5b565b5f7fcd5ed15c6e187e77e9aee88184c21f4f2182ab5827cb3b7e07fbedcd63f03300905090565b5f7fa16a46d94261c7517cc8ff89f61c0ce93598e3c849801011dee649a6a557d100905090565b60605f612742612710565b9050806002018054612753906154eb565b80601f016020809104026020016040519081016040528092919081815260200182805461277f906154eb565b80156127ca5780601f106127a1576101008083540402835291602001916127ca565b820191905f5260205f20905b8154815290600101906020018083116127ad57829003601f168201915b505050505091505090565b60605f6127e0612710565b90508060030180546127f1906154eb565b80601f016020809104026020016040519081016040528092919081815260200182805461281d906154eb565b80156128685780601f1061283f57610100808354040283529160200191612868565b820191905f5260205f20905b81548152906001019060200180831161284b57829003601f168201915b505050505091505090565b5f5f61287d611ede565b9050805f015f8581526020019081526020015f205f015f8473ffffffffffffffffffffffffffffffffffffffff1673ffffffffffffffffffffffffffffffffffffffff1681526020019081526020015f205f9054906101000a900460ff1691505092915050565b6128ec61313b565b5f6128f56126e9565b90506001815f015f6101000a81548160ff0219169083151502179055507f62e78cea01bee320cd4e420270b5ea74000d11b0c9f74754ebdbfc544b05a25861293b612011565b6040516129489190613b3a565b60405180910390a150565b61295b61317c565b5f6129646126e9565b90505f815f015f6101000a81548160ff0219169083151502179055507f5db9ee0a495bf2e6ff9c91a7834c1ba4fdd244a5e8aa4e537bd38aeae4b073aa6129a9612011565b6040516129b69190613b3a565b60405180910390a150565b5f5f6129cb6131bc565b90508091505090565b6129dc6131e5565b565b6129e66131e5565b565b6129f06131e5565b565b6129fa6131e5565b612a02613225565b565b612a0c6131e5565b612a168282613244565b5050565b8060400151600260146101000a81548167ffffffffffffffff021916908367ffffffffffffffff1602179055508061010001515f5f6101000a81548173ffffffffffffffffffffffffffffffffffffffff021916908373ffffffffffffffffffffffffffffffffffffffff16021790555080610120015160015f6101000a81548173ffffffffffffffffffffffffffffffffffffffff021916908373ffffffffffffffffffffffffffffffffffffffff16021790555080610140015160025f6101000a81548173ffffffffffffffffffffffffffffffffffffffff021916908373ffffffffffffffffffffffffffffffffffffffff160217905550806020015160065f835f015173ffffffffffffffffffffffffffffffffffffffff1673ffffffffffffffffffffffffffffffffffffffff1681526020019081526020015f205f6101000a81548167ffffffffffffffff021916908367ffffffffffffffff16021790555050565b612b975f5f1b8867ffffffffffffffff613295565b612bca7fe28434228950b641dbbc0178de89daa359a87c6ee0d8399aeace52a98fe902b98767ffffffffffffffff613295565b612bf47fe28434228950b641dbbc0178de89daa359a87c6ee0d8399aeace52a98fe902b986613372565b612c1e7ffdae3ca625b7a6a67b1c85ddb9efb8e92252215d4a6ec7177e622584b5b236e885613372565b612c487ff6e67e455c1170019df813a9dcb568f910c16426a5a6faffb00d325d6f118b6784613372565b612c727f8d3dcdf1e9eab2da5264c88688dca61db7f403e1cc5b462d3811f46a402da28683613372565b612c9c7fb50bf5231f3eefd0c7721047b3faa6ac72ae3819915a27a4d8e692160a3ac1ed82613372565b50505050505050565b612cae8261070c565b612cb781611f05565b612cc18383612018565b50505050565b612cd18282611417565b612d145780826040517fe2517d3f000000000000000000000000000000000000000000000000000000008152600401612d0b92919061551b565b60405180910390fd5b5050565b5f7f9b779b17422d0df92223018b32b4d1fa46e071723d6817e2486d003becc55f00905090565b5f5f5f90505f5f90505b875181108015612d595750875182105b15612e63575f888281518110612d7257612d71615542565b5b6020026020010151604051602001612d8a91906155b4565b604051602081830303815290604052805190602001209050612dc7878381518110612db857612db7615542565b5b60200260200101518783613432565b8015612e3b5750888281518110612de157612de0615542565b5b602002602001015173ffffffffffffffffffffffffffffffffffffffff16612e23868a8581518110612e1657612e15615542565b5b60200260200101516122f6565b73ffffffffffffffffffffffffffffffffffffffff16145b15612e4f578280612e4b906155ce565b9350505b508080612e5b906155ce565b915050612d49565b508091505095945050505050565b5f5f5f6041845103612eb1575f5f5f602087015192506040870151915060608701515f1a9050612ea388828585613448565b955095509550505050612ebf565b5f600285515f1b9250925092505b9250925092565b5f6003811115612ed957612ed8615615565b5b826003811115612eec57612eeb615615565b5b03156130245760016003811115612f0657612f05615615565b5b826003811115612f1957612f18615615565b5b03612f50576040517ff645eedf00000000000000000000000000000000000000000000000000000000815260040160405180910390fd5b60026003811115612f6457612f63615615565b5b826003811115612f7757612f76615615565b5b03612fbb57805f1c6040517ffce698f7000000000000000000000000000000000000000000000000000000008152600401612fb29190613cb8565b60405180910390fd5b600380811115612fce57612fcd615615565b5b826003811115612fe157612fe0615615565b5b0361302357806040517fd78bce0c00000000000000000000000000000000000000000000000000000000815260040161301a9190613ba8565b60405180910390fd5b5b5050565b5f61303161352f565b905090565b5f6040517f190100000000000000000000000000000000000000000000000000000000000081528360028201528260228201526042812091505092915050565b5f6130a27f360894a13ba1a3210667c828492db98dca3e2076cc3735a920a3ca505d382bbc5f1b613592565b5f015f9054906101000a900473ffffffffffffffffffffffffffffffffffffffff16905090565b6130d28261359b565b8173ffffffffffffffffffffffffffffffffffffffff167fbc7cd75a20ee27fd9adebab32041f755214dbc6bffa90cc0225b39da2e5c2d3b60405160405180910390a25f8151111561312e576131288282613664565b50613137565b6131366136e4565b5b5050565b6131436112d7565b1561317a576040517fd93c066500000000000000000000000000000000000000000000000000000000815260040160405180910390fd5b565b6131846112d7565b6131ba576040517f8dfc202b00000000000000000000000000000000000000000000000000000000815260040160405180910390fd5b565b5f7ff0c57e16840df040f15088dc2f81fe391c3923bec73e23a9662efc9c229c6a005f1b905090565b6131ed613720565b613223576040517fd7e6bcf800000000000000000000000000000000000000000000000000000000815260040160405180910390fd5b565b61322d6131e5565b5f613236612d18565b90506001815f018190555050565b61324c6131e5565b5f613255612710565b90508281600201908161326891906157d9565b508181600301908161327a91906157d9565b505f5f1b815f01819055505f5f1b8160010181905550505050565b5f73ffffffffffffffffffffffffffffffffffffffff168273ffffffffffffffffffffffffffffffffffffffff1603613303576040517f08c379a00000000000000000000000000000000000000000000000000000000081526004016132fa906158f2565b60405180910390fd5b61330d8383611f19565b508060085f8585604051602001613325929190614c9c565b6040516020818303038152906040528051906020012081526020019081526020015f205f6101000a81548167ffffffffffffffff021916908367ffffffffffffffff160217905550505050565b5f5f90505b815181101561342d575f82828151811061339457613393615542565b5b602002602001015190505f73ffffffffffffffffffffffffffffffffffffffff168173ffffffffffffffffffffffffffffffffffffffff160361340c576040517f08c379a00000000000000000000000000000000000000000000000000000000081526004016134039061595a565b60405180910390fd5b61341f848267ffffffffffffffff613295565b818060010192505050613377565b505050565b5f8261343e858461373e565b1490509392505050565b5f5f5f7f7fffffffffffffffffffffffffffffff5d576e7357a4501ddfe92f46681b20a0845f1c1115613484575f600385925092509250613525565b5f6001888888886040515f81526020016040526040516134a79493929190615993565b6020604051602081039080840390855afa1580156134c7573d5f5f3e3d5ffd5b5050506020604051035190505f73ffffffffffffffffffffffffffffffffffffffff168173ffffffffffffffffffffffffffffffffffffffff1603613518575f60015f5f1b93509350935050613525565b805f5f5f1b935093509350505b9450945094915050565b5f7f8b73c3c69bb8fe3d512ecc4cf759cc79239f7b179b0ffacaa9a75d522b39400f61355961378f565b613561613805565b46306040516020016135779594939291906159d6565b60405160208183030381529060405280519060200120905090565b5f819050919050565b5f8173ffffffffffffffffffffffffffffffffffffffff163b036135f657806040517f4c9c8ce30000000000000000000000000000000000000000000000000000000081526004016135ed9190613b3a565b60405180910390fd5b806136227f360894a13ba1a3210667c828492db98dca3e2076cc3735a920a3ca505d382bbc5f1b613592565b5f015f6101000a81548173ffffffffffffffffffffffffffffffffffffffff021916908373ffffffffffffffffffffffffffffffffffffffff16021790555050565b60605f5f8473ffffffffffffffffffffffffffffffffffffffff168460405161368d9190615a61565b5f60405180830381855af49150503d805f81146136c5576040519150601f19603f3d011682016040523d82523d5f602084013e6136ca565b606091505b50915091506136da85838361387c565b9250505092915050565b5f34111561371e576040517fb398979f00000000000000000000000000000000000000000000000000000000815260040160405180910390fd5b565b5f6137296129c1565b5f0160089054906101000a900460ff16905090565b5f5f8290505f5f90505b8451811015613784576137758286838151811061376857613767615542565b5b6020026020010151613909565b91508080600101915050613748565b508091505092915050565b5f5f613799612710565b90505f6137a4612737565b90505f815111156137c057808051906020012092505050613802565b5f825f015490505f5f1b81146137db57809350505050613802565b7fc5d2460186f7233c927e7db2dcc703c0e500b653ca82273b7bfad8045d85a47093505050505b90565b5f5f61380f612710565b90505f61381a6127d5565b90505f8151111561383657808051906020012092505050613879565b5f826001015490505f5f1b811461385257809350505050613879565b7fc5d2460186f7233c927e7db2dcc703c0e500b653ca82273b7bfad8045d85a47093505050505b90565b6060826138915761388c82613933565b613901565b5f82511480156138b757505f8473ffffffffffffffffffffffffffffffffffffffff163b145b156138f957836040517f9996b3150000000000000000000000000000000000000000000000000000000081526004016138f09190613b3a565b60405180910390fd5b819050613902565b5b9392505050565b5f8183106139205761391b8284613977565b61392b565b61392a8383613977565b5b905092915050565b5f815111156139455780518082602001fd5b6040517fd6bda27500000000000000000000000000000000000000000000000000000000815260040160405180910390fd5b5f825f528160205260405f20905092915050565b5f604051905090565b5f5ffd5b5f5ffd5b5f7fffffffff0000000000000000000000000000000000000000000000000000000082169050919050565b6139d08161399c565b81146139da575f5ffd5b50565b5f813590506139eb816139c7565b92915050565b5f60208284031215613a0657613a05613994565b5b5f613a13848285016139dd565b91505092915050565b5f8115159050919050565b613a3081613a1c565b82525050565b5f602082019050613a495f830184613a27565b92915050565b5f73ffffffffffffffffffffffffffffffffffffffff82169050919050565b5f613a7882613a4f565b9050919050565b613a8881613a6e565b8114613a92575f5ffd5b50565b5f81359050613aa381613a7f565b92915050565b5f60208284031215613abe57613abd613994565b5b5f613acb84828501613a95565b91505092915050565b5f819050919050565b613ae681613ad4565b82525050565b5f819050919050565b613afe81613aec565b82525050565b5f604082019050613b175f830185613add565b613b246020830184613af5565b9392505050565b613b3481613a6e565b82525050565b5f602082019050613b4d5f830184613b2b565b92915050565b613b5c81613ad4565b8114613b66575f5ffd5b50565b5f81359050613b7781613b53565b92915050565b5f60208284031215613b9257613b91613994565b5b5f613b9f84828501613b69565b91505092915050565b5f602082019050613bbb5f830184613add565b92915050565b5f5f60408385031215613bd757613bd6613994565b5b5f613be485828601613b69565b9250506020613bf585828601613a95565b9150509250929050565b5f5ffd5b5f6101608284031215613c1957613c18613bff565b5b81905092915050565b613c2b81613aec565b8114613c35575f5ffd5b50565b5f81359050613c4681613c22565b92915050565b5f5f5f60608486031215613c6357613c62613994565b5b5f84013567ffffffffffffffff811115613c8057613c7f613998565b5b613c8c86828701613c03565b9350506020613c9d86828701613b69565b9250506040613cae86828701613c38565b9150509250925092565b5f602082019050613ccb5f830184613af5565b92915050565b5f67ffffffffffffffff82169050919050565b613ced81613cd1565b82525050565b5f602082019050613d065f830184613ce4565b92915050565b5f5ffd5b5f5ffd5b5f601f19601f8301169050919050565b7f4e487b71000000000000000000000000000000000000000000000000000000005f52604160045260245ffd5b613d5a82613d14565b810181811067ffffffffffffffff82111715613d7957613d78613d24565b5b80604052505050565b5f613d8b61398b565b9050613d978282613d51565b919050565b5f67ffffffffffffffff821115613db657613db5613d24565b5b613dbf82613d14565b9050602081019050919050565b828183375f83830152505050565b5f613dec613de784613d9c565b613d82565b905082815260208101848484011115613e0857613e07613d10565b5b613e13848285613dcc565b509392505050565b5f82601f830112613e2f57613e2e613d0c565b5b8135613e3f848260208601613dda565b91505092915050565b5f5f60408385031215613e5e57613e5d613994565b5b5f613e6b85828601613a95565b925050602083013567ffffffffffffffff811115613e8c57613e8b613998565b5b613e9885828601613e1b565b9150509250929050565b5f7fff0000000000000000000000000000000000000000000000000000000000000082169050919050565b613ed681613ea2565b82525050565b5f81519050919050565b5f82825260208201905092915050565b8281835e5f83830152505050565b5f613f0e82613edc565b613f188185613ee6565b9350613f28818560208601613ef6565b613f3181613d14565b840191505092915050565b5f81519050919050565b5f82825260208201905092915050565b5f819050602082019050919050565b613f6e81613aec565b82525050565b5f613f7f8383613f65565b60208301905092915050565b5f602082019050919050565b5f613fa182613f3c565b613fab8185613f46565b9350613fb683613f56565b805f5b83811015613fe6578151613fcd8882613f74565b9750613fd883613f8b565b925050600181019050613fb9565b5085935050505092915050565b5f60e0820190506140065f83018a613ecd565b81810360208301526140188189613f04565b9050818103604083015261402c8188613f04565b905061403b6060830187613af5565b6140486080830186613b2b565b61405560a0830185613add565b81810360c08301526140678184613f97565b905098975050505050505050565b5f6020820190508181035f83015261408d8184613f04565b905092915050565b61409e81613a1c565b81146140a8575f5ffd5b50565b5f813590506140b981614095565b92915050565b5f602082840312156140d4576140d3613994565b5b5f6140e1848285016140ab565b91505092915050565b5f5ffd5b5f5ffd5b6140fb81613cd1565b8114614105575f5ffd5b50565b5f81359050614116816140f2565b92915050565b5f67ffffffffffffffff82111561413657614135613d24565b5b602082029050602081019050919050565b5f5ffd5b5f61415d6141588461411c565b613d82565b905080838252602082019050602084028301858111156141805761417f614147565b5b835b818110156141a957806141958882613a95565b845260208401935050602081019050614182565b5050509392505050565b5f82601f8301126141c7576141c6613d0c565b5b81356141d784826020860161414b565b91505092915050565b5f6141ea82613a4f565b9050919050565b6141fa816141e0565b8114614204575f5ffd5b50565b5f81359050614215816141f1565b92915050565b5f6101608284031215614231576142306140ea565b5b61423c610160613d82565b90505f61424b84828501613a95565b5f83015250602061425e84828501614108565b602083015250604061427284828501614108565b604083015250606082013567ffffffffffffffff811115614296576142956140ee565b5b6142a2848285016141b3565b606083015250608082013567ffffffffffffffff8111156142c6576142c56140ee565b5b6142d2848285016141b3565b60808301525060a082013567ffffffffffffffff8111156142f6576142f56140ee565b5b614302848285016141b3565b60a08301525060c082013567ffffffffffffffff811115614326576143256140ee565b5b614332848285016141b3565b60c08301525060e082013567ffffffffffffffff811115614356576143556140ee565b5b614362848285016141b3565b60e08301525061010061437784828501613a95565b6101008301525061012061438d84828501613a95565b610120830152506101406143a384828501614207565b6101408301525092915050565b5f602082840312156143c5576143c4613994565b5b5f82013567ffffffffffffffff8111156143e2576143e1613998565b5b6143ee8482850161421b565b91505092915050565b614400816141e0565b82525050565b5f6020820190506144195f8301846143f7565b92915050565b5f5ffd5b5f5f83601f84011261443857614437613d0c565b5b8235905067ffffffffffffffff8111156144555761445461441f565b5b60208301915083602082028301111561447157614470614147565b5b9250929050565b5f5f5f5f606085870312156144905761448f613994565b5b5f85013567ffffffffffffffff8111156144ad576144ac613998565b5b6144b987828801614423565b945094505060206144cc87828801613c38565b92505060406144dd87828801613b69565b91505092959194509250565b7f4f6e6c7920456e747279506f696e7400000000000000000000000000000000005f82015250565b5f61451d600f83613ee6565b9150614528826144e9565b602082019050919050565b5f6020820190508181035f83015261454a81614511565b9050919050565b7f5573657220626c61636b6c6973746564000000000000000000000000000000005f82015250565b5f614585601083613ee6565b915061459082614551565b602082019050919050565b5f6020820190508181035f8301526145b281614579565b9050919050565b5f6145c76020840184613a95565b905092915050565b6145d881613a6e565b82525050565b5f6145ec6020840184613c38565b905092915050565b5f5ffd5b5f5ffd5b5f5ffd5b5f5f8335600160200384360303811261461c5761461b6145fc565b5b83810192508235915060208301925067ffffffffffffffff821115614644576146436145f4565b5b60018202360383131561465a576146596145f8565b5b509250929050565b5f82825260208201905092915050565b5f61467d8385614662565b935061468a838584613dcc565b61469383613d14565b840190509392505050565b5f61016083016146b05f8401846145b9565b6146bc5f8601826145cf565b506146ca60208401846145de565b6146d76020860182613f65565b506146e56040840184614600565b85830360408701526146f8838284614672565b925050506147096060840184614600565b858303606087015261471c838284614672565b9250505061472d60808401846145de565b61473a6080860182613f65565b5061474860a08401846145de565b61475560a0860182613f65565b5061476360c08401846145de565b61477060c0860182613f65565b5061477e60e08401846145de565b61478b60e0860182613f65565b5061479a6101008401846145de565b6147a8610100860182613f65565b506147b7610120840184614600565b8583036101208701526147cb838284614672565b925050506147dd610140840184614600565b8583036101408701526147f1838284614672565b925050508091505092915050565b5f6020820190508181035f830152614817818461469e565b905092915050565b5f8151905061482d81613b53565b92915050565b5f6020828403121561484857614847613994565b5b5f6148558482850161481f565b91505092915050565b7f496e76616c6964206861736800000000000000000000000000000000000000005f82015250565b5f614892600c83613ee6565b915061489d8261485e565b602082019050919050565b5f6020820190508181035f8301526148bf81614886565b9050919050565b7f496e76616c6964206e6f6e6365000000000000000000000000000000000000005f82015250565b5f6148fa600d83613ee6565b9150614905826148c6565b602082019050919050565b5f6020820190508181035f830152614927816148ee565b9050919050565b5f5ffd5b5f5ffd5b5f5ffd5b5f5f833560016020038436030381126149565761495561492e565b5b80840192508235915067ffffffffffffffff82111561497857614977614932565b5b60208301925060018202360383131561499457614993614936565b5b509250929050565b7f496e76616c6964204543445341207369676e61747572650000000000000000005f82015250565b5f6149d0601783613ee6565b91506149db8261499c565b602082019050919050565b5f6020820190508181035f8301526149fd816149c4565b9050919050565b5f81905092915050565b5f614a198385614a04565b9350614a26838584613dcc565b82840190509392505050565b5f614a3e828486614a0e565b91508190509392505050565b5f61012082019050614a5e5f83018c613add565b614a6b602083018b613b2b565b614a78604083018a613af5565b614a856060830189613add565b614a926080830188613af5565b614a9f60a0830187613af5565b614aac60c0830186613af5565b614ab960e0830185613af5565b614ac7610100830184613af5565b9a9950505050505050505050565b7f496e76616c6964204549502d373132207369676e6174757265000000000000005f82015250565b5f614b09601983613ee6565b9150614b1482614ad5565b602082019050919050565b5f6020820190508181035f830152614b3681614afd565b9050919050565b7f4e487b71000000000000000000000000000000000000000000000000000000005f52601160045260245ffd5b5f614b7482613cd1565b915067ffffffffffffffff8203614b8e57614b8d614b3d565b5b600182019050919050565b5f614ba382613aec565b9150614bae83613aec565b9250828201905080821115614bc657614bc5614b3d565b5b92915050565b7f496e76616c6964207369676e65720000000000000000000000000000000000005f82015250565b5f614c00600e83613ee6565b9150614c0b82614bcc565b602082019050919050565b5f6020820190508181035f830152614c2d81614bf4565b9050919050565b7f4549503731323a20556e696e697469616c697a656400000000000000000000005f82015250565b5f614c68601583613ee6565b9150614c7382614c34565b602082019050919050565b5f6020820190508181035f830152614c9581614c5c565b9050919050565b5f604082019050614caf5f830185613add565b614cbc6020830184613b2b565b9392505050565b7f496e76616c696420706172616d730000000000000000000000000000000000005f82015250565b5f614cf7600e83613ee6565b9150614d0282614cc3565b602082019050919050565b5f6020820190508181035f830152614d2481614ceb565b9050919050565b7f496e76616c6964206164647265737365730000000000000000000000000000005f82015250565b5f614d5f601183613ee6565b9150614d6a82614d2b565b602082019050919050565b5f6020820190508181035f830152614d8c81614d53565b9050919050565b7f546f6f206d616e7920726f6c65730000000000000000000000000000000000005f82015250565b5f614dc7600e83613ee6565b9150614dd282614d93565b602082019050919050565b5f6020820190508181035f830152614df481614dbb565b9050919050565b5f819050919050565b5f819050919050565b5f614e27614e22614e1d84614dfb565b614e04565b613cd1565b9050919050565b614e3781614e0d565b82525050565b5f602082019050614e505f830184614e2e565b92915050565b7f496e76616c6964206d756c74692d73696720636f6e66696700000000000000005f82015250565b5f614e8a601883613ee6565b9150614e9582614e56565b602082019050919050565b5f6020820190508181035f830152614eb781614e7e565b9050919050565b7f496e76616c6964204d65726b6c6520726f6f74000000000000000000000000005f82015250565b5f614ef2601383613ee6565b9150614efd82614ebe565b602082019050919050565b5f6020820190508181035f830152614f1f81614ee6565b9050919050565b5f67ffffffffffffffff821115614f4057614f3f613d24565b5b602082029050602081019050919050565b5f614f63614f5e84614f26565b613d82565b90508083825260208201905060208402830185811115614f8657614f85614147565b5b835b81811015614fcd57803567ffffffffffffffff811115614fab57614faa613d0c565b5b808601614fb88982613e1b565b85526020850194505050602081019050614f88565b5050509392505050565b5f82601f830112614feb57614fea613d0c565b5b8135614ffb848260208601614f51565b91505092915050565b5f67ffffffffffffffff82111561501e5761501d613d24565b5b602082029050602081019050919050565b5f67ffffffffffffffff82111561504957615048613d24565b5b602082029050602081019050919050565b5f61506c6150678461502f565b613d82565b9050808382526020820190506020840283018581111561508f5761508e614147565b5b835b818110156150b857806150a48882613b69565b845260208401935050602081019050615091565b5050509392505050565b5f82601f8301126150d6576150d5613d0c565b5b81356150e684826020860161505a565b91505092915050565b5f6151016150fc84615004565b613d82565b9050808382526020820190506020840283018581111561512457615123614147565b5b835b8181101561516b57803567ffffffffffffffff81111561514957615148613d0c565b5b80860161515689826150c2565b85526020850194505050602081019050615126565b5050509392505050565b5f82601f83011261518957615188613d0c565b5b81356151998482602086016150ef565b91505092915050565b5f5f5f606084860312156151b9576151b8613994565b5b5f84013567ffffffffffffffff8111156151d6576151d5613998565b5b6151e2868287016141b3565b935050602084013567ffffffffffffffff81111561520357615202613998565b5b61520f86828701614fd7565b925050604084013567ffffffffffffffff8111156152305761522f613998565b5b61523c86828701615175565b9150509250925092565b7f496e76616c6964207369676e61747572652064617461000000000000000000005f82015250565b5f61527a601683613ee6565b915061528582615246565b602082019050919050565b5f6020820190508181035f8301526152a78161526e565b9050919050565b7f496e73756666696369656e74207369676e6174757265730000000000000000005f82015250565b5f6152e2601783613ee6565b91506152ed826152ae565b602082019050919050565b5f6020820190508181035f83015261530f816152d6565b9050919050565b7f496e73756666696369656e742076616c6964207369676e6174757265730000005f82015250565b5f61534a601d83613ee6565b915061535582615316565b602082019050919050565b5f6020820190508181035f8301526153778161533e565b9050919050565b5f81905092915050565b7f19457468657265756d205369676e6564204d6573736167653a0a3332000000005f82015250565b5f6153bc601c8361537e565b91506153c782615388565b601c82019050919050565b5f819050919050565b6153ec6153e782613ad4565b6153d2565b82525050565b5f6153fc826153b0565b915061540882846153db565b60208201915081905092915050565b5f8151905061542581614095565b92915050565b5f602082840312156154405761543f613994565b5b5f61544d84828501615417565b91505092915050565b7f55706772616465206e6f74207363686564756c656400000000000000000000005f82015250565b5f61548a601583613ee6565b915061549582615456565b602082019050919050565b5f6020820190508181035f8301526154b78161547e565b9050919050565b7f4e487b71000000000000000000000000000000000000000000000000000000005f52602260045260245ffd5b5f600282049050600182168061550257607f821691505b602082108103615515576155146154be565b5b50919050565b5f60408201905061552e5f830185613b2b565b61553b6020830184613add565b9392505050565b7f4e487b71000000000000000000000000000000000000000000000000000000005f52603260045260245ffd5b5f8160601b9050919050565b5f6155858261556f565b9050919050565b5f6155968261557b565b9050919050565b6155ae6155a982613a6e565b61558c565b82525050565b5f6155bf828461559d565b60148201915081905092915050565b5f6155d882613aec565b91507fffffffffffffffffffffffffffffffffffffffffffffffffffffffffffffffff820361560a57615609614b3d565b5b600182019050919050565b7f4e487b71000000000000000000000000000000000000000000000000000000005f52602160045260245ffd5b5f819050815f5260205f209050919050565b5f6020601f8301049050919050565b5f82821b905092915050565b5f6008830261569e7fffffffffffffffffffffffffffffffffffffffffffffffffffffffffffffffff82615663565b6156a88683615663565b95508019841693508086168417925050509392505050565b5f6156da6156d56156d084613aec565b614e04565b613aec565b9050919050565b5f819050919050565b6156f3836156c0565b6157076156ff826156e1565b84845461566f565b825550505050565b5f5f905090565b61571e61570f565b6157298184846156ea565b505050565b5b8181101561574c576157415f82615716565b60018101905061572f565b5050565b601f8211156157915761576281615642565b61576b84615654565b8101602085101561577a578190505b61578e61578685615654565b83018261572e565b50505b505050565b5f82821c905092915050565b5f6157b15f1984600802615796565b1980831691505092915050565b5f6157c983836157a2565b9150826002028217905092915050565b6157e282613edc565b67ffffffffffffffff8111156157fb576157fa613d24565b5b61580582546154eb565b615810828285615750565b5f60209050601f831160018114615841575f841561582f578287015190505b61583985826157be565b8655506158a0565b601f19841661584f86615642565b5f5b8281101561587657848901518255600182019150602085019450602081019050615851565b86831015615893578489015161588f601f8916826157a2565b8355505b6001600288020188555050505b505050505050565b7f496e76616c6964206163636f756e7400000000000000000000000000000000005f82015250565b5f6158dc600f83613ee6565b91506158e7826158a8565b602082019050919050565b5f6020820190508181035f830152615909816158d0565b9050919050565b7f496e76616c6964206164647265737300000000000000000000000000000000005f82015250565b5f615944600f83613ee6565b915061594f82615910565b602082019050919050565b5f6020820190508181035f83015261597181615938565b9050919050565b5f60ff82169050919050565b61598d81615978565b82525050565b5f6080820190506159a65f830187613add565b6159b36020830186615984565b6159c06040830185613add565b6159cd6060830184613add565b95945050505050565b5f60a0820190506159e95f830188613add565b6159f66020830187613add565b615a036040830186613add565b615a106060830185613af5565b615a1d6080830184613b2b565b9695505050505050565b5f81519050919050565b5f615a3b82615a27565b615a458185614a04565b9350615a55818560208601613ef6565b80840191505092915050565b5f615a6c8284615a31565b91508190509291505056fea2646970667358221220820af660e679e17e71d892b3cff62dc38522de16a07b60ca4466795a9138858464736f6c634300081d0033",
			"opcodes": "PUSH1 0xA0 PUSH1 0x40 MSTORE ADDRESS PUSH20 0xFFFFFFFFFFFFFFFFFFFFFFFFFFFFFFFFFFFFFFFF AND PUSH1 0x80 SWAP1 PUSH20 0xFFFFFFFFFFFFFFFFFFFFFFFFFFFFFFFFFFFFFFFF AND DUP2 MSTORE POP CALLVALUE DUP1 ISZERO PUSH1 0x41 JUMPI PUSH0 PUSH0 REVERT JUMPDEST POP PUSH1 0x80 MLOAD PUSH2 0x5AAD PUSH2 0x68 PUSH0 CODECOPY PUSH0 DUP2 DUP2 PUSH2 0x2352 ADD MSTORE DUP2 DUP2 PUSH2 0x23A7 ADD MSTORE PUSH2 0x2664 ADD MSTORE PUSH2 0x5AAD PUSH0 RETURN INVALID PUSH1 0x80 PUSH1 0x40 MSTORE PUSH1 0x4 CALLDATASIZE LT PUSH2 0x184 JUMPI PUSH0 CALLDATALOAD PUSH1 0xE0 SHR DUP1 PUSH4 0x8BFF608E GT PUSH2 0xD0 JUMPI DUP1 PUSH4 0xB0D691FE GT PUSH2 0x89 JUMPI DUP1 PUSH4 0xD33219B4 GT PUSH2 0x63 JUMPI DUP1 PUSH4 0xD33219B4 EQ PUSH2 0x5AA JUMPI DUP1 PUSH4 0xD547741F EQ PUSH2 0x5D4 JUMPI DUP1 PUSH4 0xE2749C96 EQ PUSH2 0x5FC JUMPI DUP1 PUSH4 0xFABFAF77 EQ PUSH2 0x626 JUMPI PUSH2 0x18B JUMP JUMPDEST DUP1 PUSH4 0xB0D691FE EQ PUSH2 0x530 JUMPI DUP1 PUSH4 0xC73D7C7B EQ PUSH2 0x55A JUMPI DUP1 PUSH4 0xCF25CDB4 EQ PUSH2 0x582 JUMPI PUSH2 0x18B JUMP JUMPDEST DUP1 PUSH4 0x8BFF608E EQ PUSH2 0x3EC JUMPI DUP1 PUSH4 0x91D14854 EQ PUSH2 0x428 JUMPI DUP1 PUSH4 0x9F78A946 EQ PUSH2 0x464 JUMPI DUP1 PUSH4 0xA217FDDF EQ PUSH2 0x4A0 JUMPI DUP1 PUSH4 0xAC63EDBC EQ PUSH2 0x4CA JUMPI DUP1 PUSH4 0xAD3CB1CC EQ PUSH2 0x506 JUMPI PUSH2 0x18B JUMP JUMPDEST DUP1 PUSH4 0x3A871CDD GT PUSH2 0x13D JUMPI DUP1 PUSH4 0x52D1902D GT PUSH2 0x117 JUMPI DUP1 PUSH4 0x52D1902D EQ PUSH2 0x340 JUMPI DUP1 PUSH4 0x53863613 EQ PUSH2 0x36A JUMPI DUP1 PUSH4 0x5C975ABB EQ PUSH2 0x392 JUMPI DUP1 PUSH4 0x84B0196E EQ PUSH2 0x3BC JUMPI PUSH2 0x18B JUMP JUMPDEST DUP1 PUSH4 0x3A871CDD EQ PUSH2 0x2BE JUMPI DUP1 PUSH4 0x42CDE4E8 EQ PUSH2 0x2FA JUMPI DUP1 PUSH4 0x4F1EF286 EQ PUSH2 0x324 JUMPI PUSH2 0x18B JUMP JUMPDEST DUP1 PUSH4 0x1FFC9A7 EQ PUSH2 0x18F JUMPI DUP1 PUSH4 0xEB94263 EQ PUSH2 0x1CB JUMPI DUP1 PUSH4 0x16E4CBF9 EQ PUSH2 0x208 JUMPI DUP1 PUSH4 0x248A9CA3 EQ PUSH2 0x232 JUMPI DUP1 PUSH4 0x2F2FF15D EQ PUSH2 0x26E JUMPI DUP1 PUSH4 0x36568ABE EQ PUSH2 0x296 JUMPI PUSH2 0x18B JUMP JUMPDEST CALLDATASIZE PUSH2 0x18B JUMPI STOP JUMPDEST PUSH0 PUSH0 REVERT JUMPDEST CALLVALUE DUP1 ISZERO PUSH2 0x19A JUMPI PUSH0 PUSH0 REVERT JUMPDEST POP PUSH2 0x1B5 PUSH1 0x4 DUP1 CALLDATASIZE SUB DUP2 ADD SWAP1 PUSH2 0x1B0 SWAP2 SWAP1 PUSH2 0x39F1 JUMP JUMPDEST PUSH2 0x64E JUMP JUMPDEST PUSH1 0x40 MLOAD PUSH2 0x1C2 SWAP2 SWAP1 PUSH2 0x3A36 JUMP JUMPDEST PUSH1 0x40 MLOAD DUP1 SWAP2 SUB SWAP1 RETURN JUMPDEST CALLVALUE DUP1 ISZERO PUSH2 0x1D6 JUMPI PUSH0 PUSH0 REVERT JUMPDEST POP PUSH2 0x1F1 PUSH1 0x4 DUP1 CALLDATASIZE SUB DUP2 ADD SWAP1 PUSH2 0x1EC SWAP2 SWAP1 PUSH2 0x3AA9 JUMP JUMPDEST PUSH2 0x6C7 JUMP JUMPDEST PUSH1 0x40 MLOAD PUSH2 0x1FF SWAP3 SWAP2 SWAP1 PUSH2 0x3B04 JUMP JUMPDEST PUSH1 0x40 MLOAD DUP1 SWAP2 SUB SWAP1 RETURN JUMPDEST CALLVALUE DUP1 ISZERO PUSH2 0x213 JUMPI PUSH0 PUSH0 REVERT JUMPDEST POP PUSH2 0x21C PUSH2 0x6E7 JUMP JUMPDEST PUSH1 0x40 MLOAD PUSH2 0x229 SWAP2 SWAP1 PUSH2 0x3B3A JUMP JUMPDEST PUSH1 0x40 MLOAD DUP1 SWAP2 SUB SWAP1 RETURN JUMPDEST CALLVALUE DUP1 ISZERO PUSH2 0x23D JUMPI PUSH0 PUSH0 REVERT JUMPDEST POP PUSH2 0x258 PUSH1 0x4 DUP1 CALLDATASIZE SUB DUP2 ADD SWAP1 PUSH2 0x253 SWAP2 SWAP1 PUSH2 0x3B7D JUMP JUMPDEST PUSH2 0x70C JUMP JUMPDEST PUSH1 0x40 MLOAD PUSH2 0x265 SWAP2 SWAP1 PUSH2 0x3BA8 JUMP JUMPDEST PUSH1 0x40 MLOAD DUP1 SWAP2 SUB SWAP1 RETURN JUMPDEST CALLVALUE DUP1 ISZERO PUSH2 0x279 JUMPI PUSH0 PUSH0 REVERT JUMPDEST POP PUSH2 0x294 PUSH1 0x4 DUP1 CALLDATASIZE SUB DUP2 ADD SWAP1 PUSH2 0x28F SWAP2 SWAP1 PUSH2 0x3BC1 JUMP JUMPDEST PUSH2 0x736 JUMP JUMPDEST STOP JUMPDEST CALLVALUE DUP1 ISZERO PUSH2 0x2A1 JUMPI PUSH0 PUSH0 REVERT JUMPDEST POP PUSH2 0x2BC PUSH1 0x4 DUP1 CALLDATASIZE SUB DUP2 ADD SWAP1 PUSH2 0x2B7 SWAP2 SWAP1 PUSH2 0x3BC1 JUMP JUMPDEST PUSH2 0x758 JUMP JUMPDEST STOP JUMPDEST CALLVALUE DUP1 ISZERO PUSH2 0x2C9 JUMPI PUSH0 PUSH0 REVERT JUMPDEST POP PUSH2 0x2E4 PUSH1 0x4 DUP1 CALLDATASIZE SUB DUP2 ADD SWAP1 PUSH2 0x2DF SWAP2 SWAP1 PUSH2 0x3C4C JUMP JUMPDEST PUSH2 0x7D3 JUMP JUMPDEST PUSH1 0x40 MLOAD PUSH2 0x2F1 SWAP2 SWAP1 PUSH2 0x3CB8 JUMP JUMPDEST PUSH1 0x40 MLOAD DUP1 SWAP2 SUB SWAP1 RETURN JUMPDEST CALLVALUE DUP1 ISZERO PUSH2 0x305 JUMPI PUSH0 PUSH0 REVERT JUMPDEST POP PUSH2 0x30E PUSH2 0xF7F JUMP JUMPDEST PUSH1 0x40 MLOAD PUSH2 0x31B SWAP2 SWAP1 PUSH2 0x3CF3 JUMP JUMPDEST PUSH1 0x40 MLOAD DUP1 SWAP2 SUB SWAP1 RETURN JUMPDEST PUSH2 0x33E PUSH1 0x4 DUP1 CALLDATASIZE SUB DUP2 ADD SWAP1 PUSH2 0x339 SWAP2 SWAP1 PUSH2 0x3E48 JUMP JUMPDEST PUSH2 0xF99 JUMP JUMPDEST STOP JUMPDEST CALLVALUE DUP1 ISZERO PUSH2 0x34B JUMPI PUSH0 PUSH0 REVERT JUMPDEST POP PUSH2 0x354 PUSH2 0xFB8 JUMP JUMPDEST PUSH1 0x40 MLOAD PUSH2 0x361 SWAP2 SWAP1 PUSH2 0x3BA8 JUMP JUMPDEST PUSH1 0x40 MLOAD DUP1 SWAP2 SUB SWAP1 RETURN JUMPDEST CALLVALUE DUP1 ISZERO PUSH2 0x375 JUMPI PUSH0 PUSH0 REVERT JUMPDEST POP PUSH2 0x390 PUSH1 0x4 DUP1 CALLDATASIZE SUB DUP2 ADD SWAP1 PUSH2 0x38B SWAP2 SWAP1 PUSH2 0x3AA9 JUMP JUMPDEST PUSH2 0xFE9 JUMP JUMPDEST STOP JUMPDEST CALLVALUE DUP1 ISZERO PUSH2 0x39D JUMPI PUSH0 PUSH0 REVERT JUMPDEST POP PUSH2 0x3A6 PUSH2 0x12D7 JUMP JUMPDEST PUSH1 0x40 MLOAD PUSH2 0x3B3 SWAP2 SWAP1 PUSH2 0x3A36 JUMP JUMPDEST PUSH1 0x40 MLOAD DUP1 SWAP2 SUB SWAP1 RETURN JUMPDEST CALLVALUE DUP1 ISZERO PUSH2 0x3C7 JUMPI PUSH0 PUSH0 REVERT JUMPDEST POP PUSH2 0x3D0 PUSH2 0x12F9 JUMP JUMPDEST PUSH1 0x40 MLOAD PUSH2 0x3E3 SWAP8 SWAP7 SWAP6 SWAP5 SWAP4 SWAP3 SWAP2 SWAP1 PUSH2 0x3FF3 JUMP JUMPDEST PUSH1 0x40 MLOAD DUP1 SWAP2 SUB SWAP1 RETURN JUMPDEST CALLVALUE DUP1 ISZERO PUSH2 0x3F7 JUMPI PUSH0 PUSH0 REVERT JUMPDEST POP PUSH2 0x412 PUSH1 0x4 DUP1 CALLDATASIZE SUB DUP2 ADD SWAP1 PUSH2 0x40D SWAP2 SWAP1 PUSH2 0x3AA9 JUMP JUMPDEST PUSH2 0x1402 JUMP JUMPDEST PUSH1 0x40 MLOAD PUSH2 0x41F SWAP2 SWAP1 PUSH2 0x3CB8 JUMP JUMPDEST PUSH1 0x40 MLOAD DUP1 SWAP2 SUB SWAP1 RETURN JUMPDEST CALLVALUE DUP1 ISZERO PUSH2 0x433 JUMPI PUSH0 PUSH0 REVERT JUMPDEST POP PUSH2 0x44E PUSH1 0x4 DUP1 CALLDATASIZE SUB DUP2 ADD SWAP1 PUSH2 0x449 SWAP2 SWAP1 PUSH2 0x3BC1 JUMP JUMPDEST PUSH2 0x1417 JUMP JUMPDEST PUSH1 0x40 MLOAD PUSH2 0x45B SWAP2 SWAP1 PUSH2 0x3A36 JUMP JUMPDEST PUSH1 0x40 MLOAD DUP1 SWAP2 SUB SWAP1 RETURN JUMPDEST CALLVALUE DUP1 ISZERO PUSH2 0x46F JUMPI PUSH0 PUSH0 REVERT JUMPDEST POP PUSH2 0x48A PUSH1 0x4 DUP1 CALLDATASIZE SUB DUP2 ADD SWAP1 PUSH2 0x485 SWAP2 SWAP1 PUSH2 0x3AA9 JUMP JUMPDEST PUSH2 0x14D1 JUMP JUMPDEST PUSH1 0x40 MLOAD PUSH2 0x497 SWAP2 SWAP1 PUSH2 0x3CF3 JUMP JUMPDEST PUSH1 0x40 MLOAD DUP1 SWAP2 SUB SWAP1 RETURN JUMPDEST CALLVALUE DUP1 ISZERO PUSH2 0x4AB JUMPI PUSH0 PUSH0 REVERT JUMPDEST POP PUSH2 0x4B4 PUSH2 0x14F5 JUMP JUMPDEST PUSH1 0x40 MLOAD PUSH2 0x4C1 SWAP2 SWAP1 PUSH2 0x3BA8 JUMP JUMPDEST PUSH1 0x40 MLOAD DUP1 SWAP2 SUB SWAP1 RETURN JUMPDEST CALLVALUE DUP1 ISZERO PUSH2 0x4D5 JUMPI PUSH0 PUSH0 REVERT JUMPDEST POP PUSH2 0x4F0 PUSH1 0x4 DUP1 CALLDATASIZE SUB DUP2 ADD SWAP1 PUSH2 0x4EB SWAP2 SWAP1 PUSH2 0x3AA9 JUMP JUMPDEST PUSH2 0x14FB JUMP JUMPDEST PUSH1 0x40 MLOAD PUSH2 0x4FD SWAP2 SWAP1 PUSH2 0x3B3A JUMP JUMPDEST PUSH1 0x40 MLOAD DUP1 SWAP2 SUB SWAP1 RETURN JUMPDEST CALLVALUE DUP1 ISZERO PUSH2 0x511 JUMPI PUSH0 PUSH0 REVERT JUMPDEST POP PUSH2 0x51A PUSH2 0x152B JUMP JUMPDEST PUSH1 0x40 MLOAD PUSH2 0x527 SWAP2 SWAP1 PUSH2 0x4075 JUMP JUMPDEST PUSH1 0x40 MLOAD DUP1 SWAP2 SUB SWAP1 RETURN JUMPDEST CALLVALUE DUP1 ISZERO PUSH2 0x53B JUMPI PUSH0 PUSH0 REVERT JUMPDEST POP PUSH2 0x544 PUSH2 0x1564 JUMP JUMPDEST PUSH1 0x40 MLOAD PUSH2 0x551 SWAP2 SWAP1 PUSH2 0x3B3A JUMP JUMPDEST PUSH1 0x40 MLOAD DUP1 SWAP2 SUB SWAP1 RETURN JUMPDEST CALLVALUE DUP1 ISZERO PUSH2 0x565 JUMPI PUSH0 PUSH0 REVERT JUMPDEST POP PUSH2 0x580 PUSH1 0x4 DUP1 CALLDATASIZE SUB DUP2 ADD SWAP1 PUSH2 0x57B SWAP2 SWAP1 PUSH2 0x40BF JUMP JUMPDEST PUSH2 0x1588 JUMP JUMPDEST STOP JUMPDEST CALLVALUE DUP1 ISZERO PUSH2 0x58D JUMPI PUSH0 PUSH0 REVERT JUMPDEST POP PUSH2 0x5A8 PUSH1 0x4 DUP1 CALLDATASIZE SUB DUP2 ADD SWAP1 PUSH2 0x5A3 SWAP2 SWAP1 PUSH2 0x43B0 JUMP JUMPDEST PUSH2 0x1614 JUMP JUMPDEST STOP JUMPDEST CALLVALUE DUP1 ISZERO PUSH2 0x5B5 JUMPI PUSH0 PUSH0 REVERT JUMPDEST POP PUSH2 0x5BE PUSH2 0x1A81 JUMP JUMPDEST PUSH1 0x40 MLOAD PUSH2 0x5CB SWAP2 SWAP1 PUSH2 0x4406 JUMP JUMPDEST PUSH1 0x40 MLOAD DUP1 SWAP2 SUB SWAP1 RETURN JUMPDEST CALLVALUE DUP1 ISZERO PUSH2 0x5DF JUMPI PUSH0 PUSH0 REVERT JUMPDEST POP PUSH2 0x5FA PUSH1 0x4 DUP1 CALLDATASIZE SUB DUP2 ADD SWAP1 PUSH2 0x5F5 SWAP2 SWAP1 PUSH2 0x3BC1 JUMP JUMPDEST PUSH2 0x1AA6 JUMP JUMPDEST STOP JUMPDEST CALLVALUE DUP1 ISZERO PUSH2 0x607 JUMPI PUSH0 PUSH0 REVERT JUMPDEST POP PUSH2 0x610 PUSH2 0x1B69 JUMP JUMPDEST PUSH1 0x40 MLOAD PUSH2 0x61D SWAP2 SWAP1 PUSH2 0x3A36 JUMP JUMPDEST PUSH1 0x40 MLOAD DUP1 SWAP2 SUB SWAP1 RETURN JUMPDEST CALLVALUE DUP1 ISZERO PUSH2 0x631 JUMPI PUSH0 PUSH0 REVERT JUMPDEST POP PUSH2 0x64C PUSH1 0x4 DUP1 CALLDATASIZE SUB DUP2 ADD SWAP1 PUSH2 0x647 SWAP2 SWAP1 PUSH2 0x4478 JUMP JUMPDEST PUSH2 0x1B7B JUMP JUMPDEST STOP JUMPDEST PUSH0 PUSH32 0x7965DB0B00000000000000000000000000000000000000000000000000000000 PUSH28 0xFFFFFFFFFFFFFFFFFFFFFFFFFFFFFFFFFFFFFFFFFFFFFFFFFFFFFFFF NOT AND DUP3 PUSH28 0xFFFFFFFFFFFFFFFFFFFFFFFFFFFFFFFFFFFFFFFFFFFFFFFFFFFFFFFF NOT AND EQ DUP1 PUSH2 0x6C0 JUMPI POP PUSH2 0x6BF DUP3 PUSH2 0x1E75 JUMP JUMPDEST JUMPDEST SWAP1 POP SWAP2 SWAP1 POP JUMP JUMPDEST PUSH1 0x5 PUSH1 0x20 MSTORE DUP1 PUSH0 MSTORE PUSH1 0x40 PUSH0 KECCAK256 PUSH0 SWAP2 POP SWAP1 POP DUP1 PUSH0 ADD SLOAD SWAP1 DUP1 PUSH1 0x1 ADD SLOAD SWAP1 POP DUP3 JUMP JUMPDEST PUSH1 0x1 PUSH0 SWAP1 SLOAD SWAP1 PUSH2 0x100 EXP SWAP1 DIV PUSH20 0xFFFFFFFFFFFFFFFFFFFFFFFFFFFFFFFFFFFFFFFF AND DUP2 JUMP JUMPDEST PUSH0 PUSH0 PUSH2 0x716 PUSH2 0x1EDE JUMP JUMPDEST SWAP1 POP DUP1 PUSH0 ADD PUSH0 DUP5 DUP2 MSTORE PUSH1 0x20 ADD SWAP1 DUP2 MSTORE PUSH1 0x20 ADD PUSH0 KECCAK256 PUSH1 0x1 ADD SLOAD SWAP2 POP POP SWAP2 SWAP1 POP JUMP JUMPDEST PUSH2 0x73F DUP3 PUSH2 0x70C JUMP JUMPDEST PUSH2 0x748 DUP2 PUSH2 0x1F05 JUMP JUMPDEST PUSH2 0x752 DUP4 DUP4 PUSH2 0x1F19 JUMP JUMPDEST POP POP POP POP JUMP JUMPDEST PUSH2 0x760 PUSH2 0x2011 JUMP JUMPDEST PUSH20 0xFFFFFFFFFFFFFFFFFFFFFFFFFFFFFFFFFFFFFFFF AND DUP2 PUSH20 0xFFFFFFFFFFFFFFFFFFFFFFFFFFFFFFFFFFFFFFFF AND EQ PUSH2 0x7C4 JUMPI PUSH1 0x40 MLOAD PUSH32 0x6697B23200000000000000000000000000000000000000000000000000000000 DUP2 MSTORE PUSH1 0x4 ADD PUSH1 0x40 MLOAD DUP1 SWAP2 SUB SWAP1 REVERT JUMPDEST PUSH2 0x7CE DUP3 DUP3 PUSH2 0x2018 JUMP JUMPDEST POP POP POP JUMP JUMPDEST PUSH0 PUSH2 0x7DC PUSH2 0x2110 JUMP JUMPDEST PUSH1 0xA PUSH0 SWAP1 SLOAD SWAP1 PUSH2 0x100 EXP SWAP1 DIV PUSH1 0xFF AND ISZERO PUSH2 0x822 JUMPI PUSH1 0x40 MLOAD PUSH32 0x4763C4EB00000000000000000000000000000000000000000000000000000000 DUP2 MSTORE PUSH1 0x4 ADD PUSH1 0x40 MLOAD DUP1 SWAP2 SUB SWAP1 REVERT JUMPDEST PUSH0 PUSH0 SWAP1 SLOAD SWAP1 PUSH2 0x100 EXP SWAP1 DIV PUSH20 0xFFFFFFFFFFFFFFFFFFFFFFFFFFFFFFFFFFFFFFFF AND PUSH20 0xFFFFFFFFFFFFFFFFFFFFFFFFFFFFFFFFFFFFFFFF AND CALLER PUSH20 0xFFFFFFFFFFFFFFFFFFFFFFFFFFFFFFFFFFFFFFFF AND EQ PUSH2 0x8B0 JUMPI PUSH1 0x40 MLOAD PUSH32 0x8C379A000000000000000000000000000000000000000000000000000000000 DUP2 MSTORE PUSH1 0x4 ADD PUSH2 0x8A7 SWAP1 PUSH2 0x4533 JUMP JUMPDEST PUSH1 0x40 MLOAD DUP1 SWAP2 SUB SWAP1 REVERT JUMPDEST PUSH1 0x7 PUSH0 DUP6 PUSH0 ADD PUSH1 0x20 DUP2 ADD SWAP1 PUSH2 0x8C5 SWAP2 SWAP1 PUSH2 0x3AA9 JUMP JUMPDEST PUSH20 0xFFFFFFFFFFFFFFFFFFFFFFFFFFFFFFFFFFFFFFFF AND PUSH20 0xFFFFFFFFFFFFFFFFFFFFFFFFFFFFFFFFFFFFFFFF AND DUP2 MSTORE PUSH1 0x20 ADD SWAP1 DUP2 MSTORE PUSH1 0x20 ADD PUSH0 KECCAK256 PUSH0 SWAP1 SLOAD SWAP1 PUSH2 0x100 EXP SWAP1 DIV PUSH1 0xFF AND ISZERO PUSH2 0x94B JUMPI PUSH1 0x40 MLOAD PUSH32 0x8C379A000000000000000000000000000000000000000000000000000000000 DUP2 MSTORE PUSH1 0x4 ADD PUSH2 0x942 SWAP1 PUSH2 0x459B JUMP JUMPDEST PUSH1 0x40 MLOAD DUP1 SWAP2 SUB SWAP1 REVERT JUMPDEST DUP3 PUSH0 PUSH0 SWAP1 SLOAD SWAP1 PUSH2 0x100 EXP SWAP1 DIV PUSH20 0xFFFFFFFFFFFFFFFFFFFFFFFFFFFFFFFFFFFFFFFF AND PUSH20 0xFFFFFFFFFFFFFFFFFFFFFFFFFFFFFFFFFFFFFFFF AND PUSH4 0xA6193531 DUP7 PUSH1 0x40 MLOAD DUP3 PUSH4 0xFFFFFFFF AND PUSH1 0xE0 SHL DUP2 MSTORE PUSH1 0x4 ADD PUSH2 0x9A5 SWAP2 SWAP1 PUSH2 0x47FF JUMP JUMPDEST PUSH1 0x20 PUSH1 0x40 MLOAD DUP1 DUP4 SUB DUP2 DUP7 GAS STATICCALL ISZERO DUP1 ISZERO PUSH2 0x9C0 JUMPI RETURNDATASIZE PUSH0 PUSH0 RETURNDATACOPY RETURNDATASIZE PUSH0 REVERT JUMPDEST POP POP POP POP PUSH1 0x40 MLOAD RETURNDATASIZE PUSH1 0x1F NOT PUSH1 0x1F DUP3 ADD AND DUP3 ADD DUP1 PUSH1 0x40 MSTORE POP DUP2 ADD SWAP1 PUSH2 0x9E4 SWAP2 SWAP1 PUSH2 0x4833 JUMP JUMPDEST EQ PUSH2 0xA24 JUMPI PUSH1 0x40 MLOAD PUSH32 0x8C379A000000000000000000000000000000000000000000000000000000000 DUP2 MSTORE PUSH1 0x4 ADD PUSH2 0xA1B SWAP1 PUSH2 0x48A8 JUMP JUMPDEST PUSH1 0x40 MLOAD DUP1 SWAP2 SUB SWAP1 REVERT JUMPDEST DUP4 PUSH1 0x20 ADD CALLDATALOAD PUSH1 0x3 PUSH0 DUP7 PUSH0 ADD PUSH1 0x20 DUP2 ADD SWAP1 PUSH2 0xA3E SWAP2 SWAP1 PUSH2 0x3AA9 JUMP JUMPDEST PUSH20 0xFFFFFFFFFFFFFFFFFFFFFFFFFFFFFFFFFFFFFFFF AND PUSH20 0xFFFFFFFFFFFFFFFFFFFFFFFFFFFFFFFFFFFFFFFF AND DUP2 MSTORE PUSH1 0x20 ADD SWAP1 DUP2 MSTORE PUSH1 0x20 ADD PUSH0 KECCAK256 PUSH0 SWAP1 SLOAD SWAP1 PUSH2 0x100 EXP SWAP1 DIV PUSH8 0xFFFFFFFFFFFFFFFF AND PUSH8 0xFFFFFFFFFFFFFFFF AND EQ PUSH2 0xAD5 JUMPI PUSH1 0x40 MLOAD PUSH32 0x8C379A000000000000000000000000000000000000000000000000000000000 DUP2 MSTORE PUSH1 0x4 ADD PUSH2 0xACC SWAP1 PUSH2 0x4910 JUMP JUMPDEST PUSH1 0x40 MLOAD DUP1 SWAP2 SUB SWAP1 REVERT JUMPDEST PUSH0 PUSH0 SHL PUSH1 0x5 PUSH0 DUP7 PUSH0 ADD PUSH1 0x20 DUP2 ADD SWAP1 PUSH2 0xAED SWAP2 SWAP1 PUSH2 0x3AA9 JUMP JUMPDEST PUSH20 0xFFFFFFFFFFFFFFFFFFFFFFFFFFFFFFFFFFFFFFFF AND PUSH20 0xFFFFFFFFFFFFFFFFFFFFFFFFFFFFFFFFFFFFFFFF AND DUP2 MSTORE PUSH1 0x20 ADD SWAP1 DUP2 MSTORE PUSH1 0x20 ADD PUSH0 KECCAK256 PUSH0 ADD SLOAD EQ PUSH2 0xB5F JUMPI PUSH2 0xB5A DUP5 PUSH0 ADD PUSH1 0x20 DUP2 ADD SWAP1 PUSH2 0xB43 SWAP2 SWAP1 PUSH2 0x3AA9 JUMP JUMPDEST DUP5 DUP7 DUP1 PUSH2 0x140 ADD SWAP1 PUSH2 0xB55 SWAP2 SWAP1 PUSH2 0x493A JUMP JUMPDEST PUSH2 0x2164 JUMP JUMPDEST PUSH2 0xED5 JUMP JUMPDEST PUSH0 PUSH20 0xFFFFFFFFFFFFFFFFFFFFFFFFFFFFFFFFFFFFFFFF AND PUSH1 0x4 PUSH0 DUP7 PUSH0 ADD PUSH1 0x20 DUP2 ADD SWAP1 PUSH2 0xB8B SWAP2 SWAP1 PUSH2 0x3AA9 JUMP JUMPDEST PUSH20 0xFFFFFFFFFFFFFFFFFFFFFFFFFFFFFFFFFFFFFFFF AND PUSH20 0xFFFFFFFFFFFFFFFFFFFFFFFFFFFFFFFFFFFFFFFF AND DUP2 MSTORE PUSH1 0x20 ADD SWAP1 DUP2 MSTORE PUSH1 0x20 ADD PUSH0 KECCAK256 PUSH0 SWAP1 SLOAD SWAP1 PUSH2 0x100 EXP SWAP1 DIV PUSH20 0xFFFFFFFFFFFFFFFFFFFFFFFFFFFFFFFFFFFFFFFF AND PUSH20 0xFFFFFFFFFFFFFFFFFFFFFFFFFFFFFFFFFFFFFFFF AND EQ PUSH2 0xD47 JUMPI PUSH0 PUSH2 0xC09 DUP5 PUSH2 0x22C7 JUMP JUMPDEST SWAP1 POP PUSH1 0x4 PUSH0 DUP7 PUSH0 ADD PUSH1 0x20 DUP2 ADD SWAP1 PUSH2 0xC20 SWAP2 SWAP1 PUSH2 0x3AA9 JUMP JUMPDEST PUSH20 0xFFFFFFFFFFFFFFFFFFFFFFFFFFFFFFFFFFFFFFFF AND PUSH20 0xFFFFFFFFFFFFFFFFFFFFFFFFFFFFFFFFFFFFFFFF AND DUP2 MSTORE PUSH1 0x20 ADD SWAP1 DUP2 MSTORE PUSH1 0x20 ADD PUSH0 KECCAK256 PUSH0 SWAP1 SLOAD SWAP1 PUSH2 0x100 EXP SWAP1 DIV PUSH20 0xFFFFFFFFFFFFFFFFFFFFFFFFFFFFFFFFFFFFFFFF AND PUSH20 0xFFFFFFFFFFFFFFFFFFFFFFFFFFFFFFFFFFFFFFFF AND PUSH2 0xCEB DUP3 DUP8 DUP1 PUSH2 0x140 ADD SWAP1 PUSH2 0xCA4 SWAP2 SWAP1 PUSH2 0x493A JUMP JUMPDEST DUP1 DUP1 PUSH1 0x1F ADD PUSH1 0x20 DUP1 SWAP2 DIV MUL PUSH1 0x20 ADD PUSH1 0x40 MLOAD SWAP1 DUP2 ADD PUSH1 0x40 MSTORE DUP1 SWAP4 SWAP3 SWAP2 SWAP1 DUP2 DUP2 MSTORE PUSH1 0x20 ADD DUP4 DUP4 DUP1 DUP3 DUP5 CALLDATACOPY PUSH0 DUP2 DUP5 ADD MSTORE PUSH1 0x1F NOT PUSH1 0x1F DUP3 ADD AND SWAP1 POP DUP1 DUP4 ADD SWAP3 POP POP POP POP POP POP POP PUSH2 0x22F6 JUMP JUMPDEST PUSH20 0xFFFFFFFFFFFFFFFFFFFFFFFFFFFFFFFFFFFFFFFF AND EQ PUSH2 0xD41 JUMPI PUSH1 0x40 MLOAD PUSH32 0x8C379A000000000000000000000000000000000000000000000000000000000 DUP2 MSTORE PUSH1 0x4 ADD PUSH2 0xD38 SWAP1 PUSH2 0x49E6 JUMP JUMPDEST PUSH1 0x40 MLOAD DUP1 SWAP2 SUB SWAP1 REVERT JUMPDEST POP PUSH2 0xED4 JUMP JUMPDEST PUSH0 PUSH2 0xDF6 PUSH32 0x98AF602FF46B5753C75BB298575281316139743144EE6EBAA1EBE847725D979E DUP7 PUSH0 ADD PUSH1 0x20 DUP2 ADD SWAP1 PUSH2 0xD7E SWAP2 SWAP1 PUSH2 0x3AA9 JUMP JUMPDEST DUP8 PUSH1 0x20 ADD CALLDATALOAD DUP9 DUP1 PUSH1 0x60 ADD SWAP1 PUSH2 0xD93 SWAP2 SWAP1 PUSH2 0x493A JUMP JUMPDEST PUSH1 0x40 MLOAD PUSH2 0xDA1 SWAP3 SWAP2 SWAP1 PUSH2 0x4A32 JUMP JUMPDEST PUSH1 0x40 MLOAD DUP1 SWAP2 SUB SWAP1 KECCAK256 DUP10 PUSH1 0x80 ADD CALLDATALOAD DUP11 PUSH1 0xA0 ADD CALLDATALOAD DUP12 PUSH1 0xC0 ADD CALLDATALOAD DUP13 PUSH1 0xE0 ADD CALLDATALOAD DUP14 PUSH2 0x100 ADD CALLDATALOAD PUSH1 0x40 MLOAD PUSH1 0x20 ADD PUSH2 0xDDB SWAP10 SWAP9 SWAP8 SWAP7 SWAP6 SWAP5 SWAP4 SWAP3 SWAP2 SWAP1 PUSH2 0x4A4A JUMP JUMPDEST PUSH1 0x40 MLOAD PUSH1 0x20 DUP2 DUP4 SUB SUB DUP2 MSTORE SWAP1 PUSH1 0x40 MSTORE DUP1 MLOAD SWAP1 PUSH1 0x20 ADD KECCAK256 PUSH2 0x2320 JUMP JUMPDEST SWAP1 POP DUP5 PUSH0 ADD PUSH1 0x20 DUP2 ADD SWAP1 PUSH2 0xE0A SWAP2 SWAP1 PUSH2 0x3AA9 JUMP JUMPDEST PUSH20 0xFFFFFFFFFFFFFFFFFFFFFFFFFFFFFFFFFFFFFFFF AND PUSH2 0xE7C DUP3 DUP8 DUP1 PUSH2 0x140 ADD SWAP1 PUSH2 0xE35 SWAP2 SWAP1 PUSH2 0x493A JUMP JUMPDEST DUP1 DUP1 PUSH1 0x1F ADD PUSH1 0x20 DUP1 SWAP2 DIV MUL PUSH1 0x20 ADD PUSH1 0x40 MLOAD SWAP1 DUP2 ADD PUSH1 0x40 MSTORE DUP1 SWAP4 SWAP3 SWAP2 SWAP1 DUP2 DUP2 MSTORE PUSH1 0x20 ADD DUP4 DUP4 DUP1 DUP3 DUP5 CALLDATACOPY PUSH0 DUP2 DUP5 ADD MSTORE PUSH1 0x1F NOT PUSH1 0x1F DUP3 ADD AND SWAP1 POP DUP1 DUP4 ADD SWAP3 POP POP POP POP POP POP POP PUSH2 0x22F6 JUMP JUMPDEST PUSH20 0xFFFFFFFFFFFFFFFFFFFFFFFFFFFFFFFFFFFFFFFF AND EQ PUSH2 0xED2 JUMPI PUSH1 0x40 MLOAD PUSH32 0x8C379A000000000000000000000000000000000000000000000000000000000 DUP2 MSTORE PUSH1 0x4 ADD PUSH2 0xEC9 SWAP1 PUSH2 0x4B1F JUMP JUMPDEST PUSH1 0x40 MLOAD DUP1 SWAP2 SUB SWAP1 REVERT JUMPDEST POP JUMPDEST JUMPDEST PUSH1 0x3 PUSH0 DUP6 PUSH0 ADD PUSH1 0x20 DUP2 ADD SWAP1 PUSH2 0xEEA SWAP2 SWAP1 PUSH2 0x3AA9 JUMP JUMPDEST PUSH20 0xFFFFFFFFFFFFFFFFFFFFFFFFFFFFFFFFFFFFFFFF AND PUSH20 0xFFFFFFFFFFFFFFFFFFFFFFFFFFFFFFFFFFFFFFFF AND DUP2 MSTORE PUSH1 0x20 ADD SWAP1 DUP2 MSTORE PUSH1 0x20 ADD PUSH0 KECCAK256 PUSH0 DUP2 DUP2 SWAP1 SLOAD SWAP1 PUSH2 0x100 EXP SWAP1 DIV PUSH8 0xFFFFFFFFFFFFFFFF AND DUP1 SWAP3 SWAP2 SWAP1 PUSH2 0xF46 SWAP1 PUSH2 0x4B6A JUMP JUMPDEST SWAP2 SWAP1 PUSH2 0x100 EXP DUP2 SLOAD DUP2 PUSH8 0xFFFFFFFFFFFFFFFF MUL NOT AND SWAP1 DUP4 PUSH8 0xFFFFFFFFFFFFFFFF AND MUL OR SWAP1 SSTORE POP POP PUSH0 SWAP1 POP PUSH2 0xF78 PUSH2 0x2339 JUMP JUMPDEST SWAP4 SWAP3 POP POP POP JUMP JUMPDEST PUSH1 0x2 PUSH1 0x14 SWAP1 SLOAD SWAP1 PUSH2 0x100 EXP SWAP1 DIV PUSH8 0xFFFFFFFFFFFFFFFF AND DUP2 JUMP JUMPDEST PUSH2 0xFA1 PUSH2 0x2350 JUMP JUMPDEST PUSH2 0xFAA DUP3 PUSH2 0x2436 JUMP JUMPDEST PUSH2 0xFB4 DUP3 DUP3 PUSH2 0x2544 JUMP JUMPDEST POP POP JUMP JUMPDEST PUSH0 PUSH2 0xFC1 PUSH2 0x2662 JUMP JUMPDEST PUSH32 0x360894A13BA1A3210667C828492DB98DCA3E2076CC3735A920A3CA505D382BBC PUSH0 SHL SWAP1 POP SWAP1 JUMP JUMPDEST PUSH2 0xFF1 PUSH2 0x2110 JUMP JUMPDEST CALLER PUSH1 0x7 PUSH0 DUP3 PUSH20 0xFFFFFFFFFFFFFFFFFFFFFFFFFFFFFFFFFFFFFFFF AND PUSH20 0xFFFFFFFFFFFFFFFFFFFFFFFFFFFFFFFFFFFFFFFF AND DUP2 MSTORE PUSH1 0x20 ADD SWAP1 DUP2 MSTORE PUSH1 0x20 ADD PUSH0 KECCAK256 PUSH0 SWAP1 SLOAD SWAP1 PUSH2 0x100 EXP SWAP1 DIV PUSH1 0xFF AND ISZERO PUSH2 0x107C JUMPI PUSH1 0x40 MLOAD PUSH32 0x8C379A000000000000000000000000000000000000000000000000000000000 DUP2 MSTORE PUSH1 0x4 ADD PUSH2 0x1073 SWAP1 PUSH2 0x459B JUMP JUMPDEST PUSH1 0x40 MLOAD DUP1 SWAP2 SUB SWAP1 REVERT JUMPDEST CALLER PUSH1 0xA PUSH1 0x9 PUSH0 DUP4 PUSH20 0xFFFFFFFFFFFFFFFFFFFFFFFFFFFFFFFFFFFFFFFF AND PUSH20 0xFFFFFFFFFFFFFFFFFFFFFFFFFFFFFFFFFFFFFFFF AND DUP2 MSTORE PUSH1 0x20 ADD SWAP1 DUP2 MSTORE PUSH1 0x20 ADD PUSH0 KECCAK256 SLOAD PUSH2 0x10C7 SWAP2 SWAP1 PUSH2 0x4B99 JUMP JUMPDEST NUMBER GT PUSH2 0x10FF JUMPI PUSH1 0x40 MLOAD PUSH32 0x3F7B7A6800000000000000000000000000000000000000000000000000000000 DUP2 MSTORE PUSH1 0x4 ADD PUSH1 0x40 MLOAD DUP1 SWAP2 SUB SWAP1 REVERT JUMPDEST NUMBER PUSH1 0x9 PUSH0 DUP4 PUSH20 0xFFFFFFFFFFFFFFFFFFFFFFFFFFFFFFFFFFFFFFFF AND PUSH20 0xFFFFFFFFFFFFFFFFFFFFFFFFFFFFFFFFFFFFFFFF AND DUP2 MSTORE PUSH1 0x20 ADD SWAP1 DUP2 MSTORE PUSH1 0x20 ADD PUSH0 KECCAK256 DUP2 SWAP1 SSTORE POP PUSH1 0xA PUSH0 SWAP1 SLOAD SWAP1 PUSH2 0x100 EXP SWAP1 DIV PUSH1 0xFF AND ISZERO PUSH2 0x1187 JUMPI PUSH1 0x40 MLOAD PUSH32 0x4763C4EB00000000000000000000000000000000000000000000000000000000 DUP2 MSTORE PUSH1 0x4 ADD PUSH1 0x40 MLOAD DUP1 SWAP2 SUB SWAP1 REVERT JUMPDEST PUSH0 PUSH20 0xFFFFFFFFFFFFFFFFFFFFFFFFFFFFFFFFFFFFFFFF AND DUP4 PUSH20 0xFFFFFFFFFFFFFFFFFFFFFFFFFFFFFFFFFFFFFFFF AND SUB PUSH2 0x11F5 JUMPI PUSH1 0x40 MLOAD PUSH32 0x8C379A000000000000000000000000000000000000000000000000000000000 DUP2 MSTORE PUSH1 0x4 ADD PUSH2 0x11EC SWAP1 PUSH2 0x4C16 JUMP JUMPDEST PUSH1 0x40 MLOAD DUP1 SWAP2 SUB SWAP1 REVERT JUMPDEST DUP3 PUSH1 0x4 PUSH0 CALLER PUSH20 0xFFFFFFFFFFFFFFFFFFFFFFFFFFFFFFFFFFFFFFFF AND PUSH20 0xFFFFFFFFFFFFFFFFFFFFFFFFFFFFFFFFFFFFFFFF AND DUP2 MSTORE PUSH1 0x20 ADD SWAP1 DUP2 MSTORE PUSH1 0x20 ADD PUSH0 KECCAK256 PUSH0 PUSH2 0x100 EXP DUP2 SLOAD DUP2 PUSH20 0xFFFFFFFFFFFFFFFFFFFFFFFFFFFFFFFFFFFFFFFF MUL NOT AND SWAP1 DUP4 PUSH20 0xFFFFFFFFFFFFFFFFFFFFFFFFFFFFFFFFFFFFFFFF AND MUL OR SWAP1 SSTORE POP DUP3 PUSH20 0xFFFFFFFFFFFFFFFFFFFFFFFFFFFFFFFFFFFFFFFF AND CALLER PUSH20 0xFFFFFFFFFFFFFFFFFFFFFFFFFFFFFFFFFFFFFFFF AND PUSH32 0xB6E26B6492F11C85B522C9D2B11F66C83CAC7624B8EE266FC966BF8C5242F7FC PUSH1 0x40 MLOAD PUSH1 0x40 MLOAD DUP1 SWAP2 SUB SWAP1 LOG3 POP POP PUSH2 0x12D4 PUSH2 0x2339 JUMP JUMPDEST POP JUMP JUMPDEST PUSH0 PUSH0 PUSH2 0x12E1 PUSH2 0x26E9 JUMP JUMPDEST SWAP1 POP DUP1 PUSH0 ADD PUSH0 SWAP1 SLOAD SWAP1 PUSH2 0x100 EXP SWAP1 DIV PUSH1 0xFF AND SWAP2 POP POP SWAP1 JUMP JUMPDEST PUSH0 PUSH1 0x60 DUP1 PUSH0 PUSH0 PUSH0 PUSH1 0x60 PUSH0 PUSH2 0x130B PUSH2 0x2710 JUMP JUMPDEST SWAP1 POP PUSH0 PUSH0 SHL DUP2 PUSH0 ADD SLOAD EQ DUP1 ISZERO PUSH2 0x1326 JUMPI POP PUSH0 PUSH0 SHL DUP2 PUSH1 0x1 ADD SLOAD EQ JUMPDEST PUSH2 0x1365 JUMPI PUSH1 0x40 MLOAD PUSH32 0x8C379A000000000000000000000000000000000000000000000000000000000 DUP2 MSTORE PUSH1 0x4 ADD PUSH2 0x135C SWAP1 PUSH2 0x4C7E JUMP JUMPDEST PUSH1 0x40 MLOAD DUP1 SWAP2 SUB SWAP1 REVERT JUMPDEST PUSH2 0x136D PUSH2 0x2737 JUMP JUMPDEST PUSH2 0x1375 PUSH2 0x27D5 JUMP JUMPDEST CHAINID ADDRESS PUSH0 PUSH0 SHL PUSH0 PUSH8 0xFFFFFFFFFFFFFFFF DUP2 GT ISZERO PUSH2 0x1394 JUMPI PUSH2 0x1393 PUSH2 0x3D24 JUMP JUMPDEST JUMPDEST PUSH1 0x40 MLOAD SWAP1 DUP1 DUP3 MSTORE DUP1 PUSH1 0x20 MUL PUSH1 0x20 ADD DUP3 ADD PUSH1 0x40 MSTORE DUP1 ISZERO PUSH2 0x13C2 JUMPI DUP2 PUSH1 0x20 ADD PUSH1 0x20 DUP3 MUL DUP1 CALLDATASIZE DUP4 CALLDATACOPY DUP1 DUP3 ADD SWAP2 POP POP SWAP1 POP JUMPDEST POP PUSH32 0xF00000000000000000000000000000000000000000000000000000000000000 SWAP6 SWAP5 SWAP4 SWAP3 SWAP2 SWAP1 SWAP8 POP SWAP8 POP SWAP8 POP SWAP8 POP SWAP8 POP SWAP8 POP SWAP8 POP POP SWAP1 SWAP2 SWAP3 SWAP4 SWAP5 SWAP6 SWAP7 JUMP JUMPDEST PUSH1 0x9 PUSH1 0x20 MSTORE DUP1 PUSH0 MSTORE PUSH1 0x40 PUSH0 KECCAK256 PUSH0 SWAP2 POP SWAP1 POP SLOAD DUP2 JUMP JUMPDEST PUSH0 PUSH0 DUP4 DUP4 PUSH1 0x40 MLOAD PUSH1 0x20 ADD PUSH2 0x142C SWAP3 SWAP2 SWAP1 PUSH2 0x4C9C JUMP JUMPDEST PUSH1 0x40 MLOAD PUSH1 0x20 DUP2 DUP4 SUB SUB DUP2 MSTORE SWAP1 PUSH1 0x40 MSTORE DUP1 MLOAD SWAP1 PUSH1 0x20 ADD KECCAK256 SWAP1 POP PUSH0 PUSH1 0x8 PUSH0 DUP4 DUP2 MSTORE PUSH1 0x20 ADD SWAP1 DUP2 MSTORE PUSH1 0x20 ADD PUSH0 KECCAK256 PUSH0 SWAP1 SLOAD SWAP1 PUSH2 0x100 EXP SWAP1 DIV PUSH8 0xFFFFFFFFFFFFFFFF AND PUSH8 0xFFFFFFFFFFFFFFFF AND EQ ISZERO DUP1 ISZERO PUSH2 0x14AF JUMPI POP PUSH1 0x8 PUSH0 DUP3 DUP2 MSTORE PUSH1 0x20 ADD SWAP1 DUP2 MSTORE PUSH1 0x20 ADD PUSH0 KECCAK256 PUSH0 SWAP1 SLOAD SWAP1 PUSH2 0x100 EXP SWAP1 DIV PUSH8 0xFFFFFFFFFFFFFFFF AND PUSH8 0xFFFFFFFFFFFFFFFF AND TIMESTAMP GT JUMPDEST ISZERO PUSH2 0x14BD JUMPI PUSH0 SWAP2 POP POP PUSH2 0x14CB JUMP JUMPDEST PUSH2 0x14C7 DUP5 DUP5 PUSH2 0x2873 JUMP JUMPDEST SWAP2 POP POP JUMPDEST SWAP3 SWAP2 POP POP JUMP JUMPDEST PUSH1 0x6 PUSH1 0x20 MSTORE DUP1 PUSH0 MSTORE PUSH1 0x40 PUSH0 KECCAK256 PUSH0 SWAP2 POP SLOAD SWAP1 PUSH2 0x100 EXP SWAP1 DIV PUSH8 0xFFFFFFFFFFFFFFFF AND DUP2 JUMP JUMPDEST PUSH0 PUSH0 SHL DUP2 JUMP JUMPDEST PUSH1 0x4 PUSH1 0x20 MSTORE DUP1 PUSH0 MSTORE PUSH1 0x40 PUSH0 KECCAK256 PUSH0 SWAP2 POP SLOAD SWAP1 PUSH2 0x100 EXP SWAP1 DIV PUSH20 0xFFFFFFFFFFFFFFFFFFFFFFFFFFFFFFFFFFFFFFFF AND DUP2 JUMP JUMPDEST PUSH1 0x40 MLOAD DUP1 PUSH1 0x40 ADD PUSH1 0x40 MSTORE DUP1 PUSH1 0x5 DUP2 MSTORE PUSH1 0x20 ADD PUSH32 0x352E302E30000000000000000000000000000000000000000000000000000000 DUP2 MSTORE POP DUP2 JUMP JUMPDEST PUSH0 PUSH0 SWAP1 SLOAD SWAP1 PUSH2 0x100 EXP SWAP1 DIV PUSH20 0xFFFFFFFFFFFFFFFFFFFFFFFFFFFFFFFFFFFFFFFF AND DUP2 JUMP JUMPDEST PUSH0 PUSH0 SHL PUSH2 0x1594 DUP2 PUSH2 0x1F05 JUMP JUMPDEST PUSH2 0x159C PUSH2 0x2110 JUMP JUMPDEST DUP2 PUSH1 0xA PUSH0 PUSH2 0x100 EXP DUP2 SLOAD DUP2 PUSH1 0xFF MUL NOT AND SWAP1 DUP4 ISZERO ISZERO MUL OR SWAP1 SSTORE POP DUP2 ISZERO PUSH2 0x15C8 JUMPI PUSH2 0x15C3 PUSH2 0x28E4 JUMP JUMPDEST PUSH2 0x15D1 JUMP JUMPDEST PUSH2 0x15D0 PUSH2 0x2953 JUMP JUMPDEST JUMPDEST PUSH32 0xCBE1B789CDA412D9E1C647ED03D0C71E2F71484BE36F9CA2B2A346B29EDF1B70 DUP3 PUSH1 0x40 MLOAD PUSH2 0x1600 SWAP2 SWAP1 PUSH2 0x3A36 JUMP JUMPDEST PUSH1 0x40 MLOAD DUP1 SWAP2 SUB SWAP1 LOG1 PUSH2 0x1610 PUSH2 0x2339 JUMP JUMPDEST POP POP JUMP JUMPDEST PUSH0 PUSH2 0x161D PUSH2 0x29C1 JUMP JUMPDEST SWAP1 POP PUSH0 DUP2 PUSH0 ADD PUSH1 0x8 SWAP1 SLOAD SWAP1 PUSH2 0x100 EXP SWAP1 DIV PUSH1 0xFF AND ISZERO SWAP1 POP PUSH0 DUP3 PUSH0 ADD PUSH0 SWAP1 SLOAD SWAP1 PUSH2 0x100 EXP SWAP1 DIV PUSH8 0xFFFFFFFFFFFFFFFF AND SWAP1 POP PUSH0 PUSH0 DUP3 PUSH8 0xFFFFFFFFFFFFFFFF AND EQ DUP1 ISZERO PUSH2 0x1665 JUMPI POP DUP3 JUMPDEST SWAP1 POP PUSH0 PUSH1 0x1 DUP4 PUSH8 0xFFFFFFFFFFFFFFFF AND EQ DUP1 ISZERO PUSH2 0x1698 JUMPI POP PUSH0 ADDRESS PUSH20 0xFFFFFFFFFFFFFFFFFFFFFFFFFFFFFFFFFFFFFFFF AND EXTCODESIZE EQ JUMPDEST SWAP1 POP DUP2 ISZERO DUP1 ISZERO PUSH2 0x16A6 JUMPI POP DUP1 ISZERO JUMPDEST ISZERO PUSH2 0x16DD JUMPI PUSH1 0x40 MLOAD PUSH32 0xF92EE8A900000000000000000000000000000000000000000000000000000000 DUP2 MSTORE PUSH1 0x4 ADD PUSH1 0x40 MLOAD DUP1 SWAP2 SUB SWAP1 REVERT JUMPDEST PUSH1 0x1 DUP6 PUSH0 ADD PUSH0 PUSH2 0x100 EXP DUP2 SLOAD DUP2 PUSH8 0xFFFFFFFFFFFFFFFF MUL NOT AND SWAP1 DUP4 PUSH8 0xFFFFFFFFFFFFFFFF AND MUL OR SWAP1 SSTORE POP DUP4 ISZERO PUSH2 0x172A JUMPI PUSH1 0x1 DUP6 PUSH0 ADD PUSH1 0x8 PUSH2 0x100 EXP DUP2 SLOAD DUP2 PUSH1 0xFF MUL NOT AND SWAP1 DUP4 ISZERO ISZERO MUL OR SWAP1 SSTORE POP JUMPDEST PUSH0 DUP7 PUSH1 0x20 ADD MLOAD PUSH8 0xFFFFFFFFFFFFFFFF AND GT DUP1 ISZERO PUSH2 0x1754 JUMPI POP PUSH0 DUP7 PUSH1 0x40 ADD MLOAD PUSH8 0xFFFFFFFFFFFFFFFF AND GT JUMPDEST DUP1 ISZERO PUSH2 0x178F JUMPI POP PUSH0 PUSH20 0xFFFFFFFFFFFFFFFFFFFFFFFFFFFFFFFFFFFFFFFF AND DUP7 PUSH0 ADD MLOAD PUSH20 0xFFFFFFFFFFFFFFFFFFFFFFFFFFFFFFFFFFFFFFFF AND EQ ISZERO JUMPDEST PUSH2 0x17CE JUMPI PUSH1 0x40 MLOAD PUSH32 0x8C379A000000000000000000000000000000000000000000000000000000000 DUP2 MSTORE PUSH1 0x4 ADD PUSH2 0x17C5 SWAP1 PUSH2 0x4D0D JUMP JUMPDEST PUSH1 0x40 MLOAD DUP1 SWAP2 SUB SWAP1 REVERT JUMPDEST PUSH0 PUSH20 0xFFFFFFFFFFFFFFFFFFFFFFFFFFFFFFFFFFFFFFFF AND DUP7 PUSH2 0x100 ADD MLOAD PUSH20 0xFFFFFFFFFFFFFFFFFFFFFFFFFFFFFFFFFFFFFFFF AND EQ ISZERO DUP1 ISZERO PUSH2 0x1840 JUMPI POP PUSH0 PUSH20 0xFFFFFFFFFFFFFFFFFFFFFFFFFFFFFFFFFFFFFFFF AND DUP7 PUSH2 0x120 ADD MLOAD PUSH20 0xFFFFFFFFFFFFFFFFFFFFFFFFFFFFFFFFFFFFFFFF AND EQ ISZERO JUMPDEST DUP1 ISZERO PUSH2 0x187D JUMPI POP PUSH0 PUSH20 0xFFFFFFFFFFFFFFFFFFFFFFFFFFFFFFFFFFFFFFFF AND DUP7 PUSH2 0x140 ADD MLOAD PUSH20 0xFFFFFFFFFFFFFFFFFFFFFFFFFFFFFFFFFFFFFFFF AND EQ ISZERO JUMPDEST PUSH2 0x18BC JUMPI PUSH1 0x40 MLOAD PUSH32 0x8C379A000000000000000000000000000000000000000000000000000000000 DUP2 MSTORE PUSH1 0x4 ADD PUSH2 0x18B3 SWAP1 PUSH2 0x4D75 JUMP JUMPDEST PUSH1 0x40 MLOAD DUP1 SWAP2 SUB SWAP1 REVERT JUMPDEST PUSH1 0x32 DUP7 PUSH1 0x60 ADD MLOAD MLOAD GT ISZERO DUP1 ISZERO PUSH2 0x18D8 JUMPI POP PUSH1 0x32 DUP7 PUSH1 0x80 ADD MLOAD MLOAD GT ISZERO JUMPDEST PUSH2 0x1917 JUMPI PUSH1 0x40 MLOAD PUSH32 0x8C379A000000000000000000000000000000000000000000000000000000000 DUP2 MSTORE PUSH1 0x4 ADD PUSH2 0x190E SWAP1 PUSH2 0x4DDD JUMP JUMPDEST PUSH1 0x40 MLOAD DUP1 SWAP2 SUB SWAP1 REVERT JUMPDEST PUSH2 0x191F PUSH2 0x29D4 JUMP JUMPDEST PUSH2 0x1927 PUSH2 0x29DE JUMP JUMPDEST PUSH2 0x192F PUSH2 0x29E8 JUMP JUMPDEST PUSH2 0x1937 PUSH2 0x29F2 JUMP JUMPDEST PUSH2 0x19AB PUSH1 0x40 MLOAD DUP1 PUSH1 0x40 ADD PUSH1 0x40 MSTORE DUP1 PUSH1 0xB DUP2 MSTORE PUSH1 0x20 ADD PUSH32 0x52797A657257616C6C6574000000000000000000000000000000000000000000 DUP2 MSTORE POP PUSH1 0x40 MLOAD DUP1 PUSH1 0x40 ADD PUSH1 0x40 MSTORE DUP1 PUSH1 0x1 DUP2 MSTORE PUSH1 0x20 ADD PUSH32 0x3100000000000000000000000000000000000000000000000000000000000000 DUP2 MSTORE POP PUSH2 0x2A04 JUMP JUMPDEST PUSH2 0x19B4 DUP7 PUSH2 0x2A1A JUMP JUMPDEST PUSH2 0x19DC DUP7 PUSH2 0x140 ADD MLOAD CALLER DUP9 PUSH1 0x60 ADD MLOAD DUP10 PUSH1 0x80 ADD MLOAD DUP11 PUSH1 0xA0 ADD MLOAD DUP12 PUSH1 0xC0 ADD MLOAD DUP13 PUSH1 0xE0 ADD MLOAD PUSH2 0x2B82 JUMP JUMPDEST ADDRESS PUSH20 0xFFFFFFFFFFFFFFFFFFFFFFFFFFFFFFFFFFFFFFFF AND PUSH32 0x234CF33B32239D80B54161E2396C80CDEAF4D34161300E54D8BC01EB7C0EA553 PUSH1 0x40 MLOAD PUSH1 0x40 MLOAD DUP1 SWAP2 SUB SWAP1 LOG2 DUP4 ISZERO PUSH2 0x1A79 JUMPI PUSH0 DUP6 PUSH0 ADD PUSH1 0x8 PUSH2 0x100 EXP DUP2 SLOAD DUP2 PUSH1 0xFF MUL NOT AND SWAP1 DUP4 ISZERO ISZERO MUL OR SWAP1 SSTORE POP PUSH32 0xC7F505B2F371AE2175EE4913F4499E1F2633A7B5936321EED1CDAEB6115181D2 PUSH1 0x1 PUSH1 0x40 MLOAD PUSH2 0x1A70 SWAP2 SWAP1 PUSH2 0x4E3D JUMP JUMPDEST PUSH1 0x40 MLOAD DUP1 SWAP2 SUB SWAP1 LOG1 JUMPDEST POP POP POP POP POP POP JUMP JUMPDEST PUSH1 0x2 PUSH0 SWAP1 SLOAD SWAP1 PUSH2 0x100 EXP SWAP1 DIV PUSH20 0xFFFFFFFFFFFFFFFFFFFFFFFFFFFFFFFFFFFFFFFF AND DUP2 JUMP JUMPDEST PUSH0 PUSH0 SHL PUSH2 0x1AB2 DUP2 PUSH2 0x1F05 JUMP JUMPDEST PUSH2 0x1ABA PUSH2 0x2110 JUMP JUMPDEST PUSH2 0x1AC4 DUP4 DUP4 PUSH2 0x2CA5 JUMP JUMPDEST PUSH0 DUP4 DUP4 PUSH1 0x40 MLOAD PUSH1 0x20 ADD PUSH2 0x1AD8 SWAP3 SWAP2 SWAP1 PUSH2 0x4C9C JUMP JUMPDEST PUSH1 0x40 MLOAD PUSH1 0x20 DUP2 DUP4 SUB SUB DUP2 MSTORE SWAP1 PUSH1 0x40 MSTORE DUP1 MLOAD SWAP1 PUSH1 0x20 ADD KECCAK256 SWAP1 POP PUSH1 0x8 PUSH0 DUP3 DUP2 MSTORE PUSH1 0x20 ADD SWAP1 DUP2 MSTORE PUSH1 0x20 ADD PUSH0 KECCAK256 PUSH0 PUSH2 0x100 EXP DUP2 SLOAD SWAP1 PUSH8 0xFFFFFFFFFFFFFFFF MUL NOT AND SWAP1 SSTORE DUP3 PUSH20 0xFFFFFFFFFFFFFFFFFFFFFFFFFFFFFFFFFFFFFFFF AND DUP5 PUSH32 0x155AAAFB6329A2098580462DF33EC4B7441B19729B9601C5FC17AE1CF99A8A52 PUSH1 0x40 MLOAD PUSH1 0x40 MLOAD DUP1 SWAP2 SUB SWAP1 LOG3 POP PUSH2 0x1B64 PUSH2 0x2339 JUMP JUMPDEST POP POP POP JUMP JUMPDEST PUSH1 0xA PUSH0 SWAP1 SLOAD SWAP1 PUSH2 0x100 EXP SWAP1 DIV PUSH1 0xFF AND DUP2 JUMP JUMPDEST PUSH2 0x1B83 PUSH2 0x2110 JUMP JUMPDEST CALLER PUSH1 0x7 PUSH0 DUP3 PUSH20 0xFFFFFFFFFFFFFFFFFFFFFFFFFFFFFFFFFFFFFFFF AND PUSH20 0xFFFFFFFFFFFFFFFFFFFFFFFFFFFFFFFFFFFFFFFF AND DUP2 MSTORE PUSH1 0x20 ADD SWAP1 DUP2 MSTORE PUSH1 0x20 ADD PUSH0 KECCAK256 PUSH0 SWAP1 SLOAD SWAP1 PUSH2 0x100 EXP SWAP1 DIV PUSH1 0xFF AND ISZERO PUSH2 0x1C0E JUMPI PUSH1 0x40 MLOAD PUSH32 0x8C379A000000000000000000000000000000000000000000000000000000000 DUP2 MSTORE PUSH1 0x4 ADD PUSH2 0x1C05 SWAP1 PUSH2 0x459B JUMP JUMPDEST PUSH1 0x40 MLOAD DUP1 SWAP2 SUB SWAP1 REVERT JUMPDEST CALLER PUSH1 0xA PUSH1 0x9 PUSH0 DUP4 PUSH20 0xFFFFFFFFFFFFFFFFFFFFFFFFFFFFFFFFFFFFFFFF AND PUSH20 0xFFFFFFFFFFFFFFFFFFFFFFFFFFFFFFFFFFFFFFFF AND DUP2 MSTORE PUSH1 0x20 ADD SWAP1 DUP2 MSTORE PUSH1 0x20 ADD PUSH0 KECCAK256 SLOAD PUSH2 0x1C59 SWAP2 SWAP1 PUSH2 0x4B99 JUMP JUMPDEST NUMBER GT PUSH2 0x1C91 JUMPI PUSH1 0x40 MLOAD PUSH32 0x3F7B7A6800000000000000000000000000000000000000000000000000000000 DUP2 MSTORE PUSH1 0x4 ADD PUSH1 0x40 MLOAD DUP1 SWAP2 SUB SWAP1 REVERT JUMPDEST NUMBER PUSH1 0x9 PUSH0 DUP4 PUSH20 0xFFFFFFFFFFFFFFFFFFFFFFFFFFFFFFFFFFFFFFFF AND PUSH20 0xFFFFFFFFFFFFFFFFFFFFFFFFFFFFFFFFFFFFFFFF AND DUP2 MSTORE PUSH1 0x20 ADD SWAP1 DUP2 MSTORE PUSH1 0x20 ADD PUSH0 KECCAK256 DUP2 SWAP1 SSTORE POP PUSH1 0xA PUSH0 SWAP1 SLOAD SWAP1 PUSH2 0x100 EXP SWAP1 DIV PUSH1 0xFF AND ISZERO PUSH2 0x1D19 JUMPI PUSH1 0x40 MLOAD PUSH32 0x4763C4EB00000000000000000000000000000000000000000000000000000000 DUP2 MSTORE PUSH1 0x4 ADD PUSH1 0x40 MLOAD DUP1 SWAP2 SUB SWAP1 REVERT JUMPDEST DUP4 DUP7 DUP7 SWAP1 POP LT ISZERO DUP1 ISZERO PUSH2 0x1D2B JUMPI POP PUSH0 DUP5 GT JUMPDEST PUSH2 0x1D6A JUMPI PUSH1 0x40 MLOAD PUSH32 0x8C379A000000000000000000000000000000000000000000000000000000000 DUP2 MSTORE PUSH1 0x4 ADD PUSH2 0x1D61 SWAP1 PUSH2 0x4EA0 JUMP JUMPDEST PUSH1 0x40 MLOAD DUP1 SWAP2 SUB SWAP1 REVERT JUMPDEST PUSH0 PUSH0 SHL DUP4 SUB PUSH2 0x1DAE JUMPI PUSH1 0x40 MLOAD PUSH32 0x8C379A000000000000000000000000000000000000000000000000000000000 DUP2 MSTORE PUSH1 0x4 ADD PUSH2 0x1DA5 SWAP1 PUSH2 0x4F08 JUMP JUMPDEST PUSH1 0x40 MLOAD DUP1 SWAP2 SUB SWAP1 REVERT JUMPDEST PUSH1 0x40 MLOAD DUP1 PUSH1 0x40 ADD PUSH1 0x40 MSTORE DUP1 DUP5 DUP2 MSTORE PUSH1 0x20 ADD DUP6 DUP2 MSTORE POP PUSH1 0x5 PUSH0 CALLER PUSH20 0xFFFFFFFFFFFFFFFFFFFFFFFFFFFFFFFFFFFFFFFF AND PUSH20 0xFFFFFFFFFFFFFFFFFFFFFFFFFFFFFFFFFFFFFFFF AND DUP2 MSTORE PUSH1 0x20 ADD SWAP1 DUP2 MSTORE PUSH1 0x20 ADD PUSH0 KECCAK256 PUSH0 DUP3 ADD MLOAD DUP2 PUSH0 ADD SSTORE PUSH1 0x20 DUP3 ADD MLOAD DUP2 PUSH1 0x1 ADD SSTORE SWAP1 POP POP CALLER PUSH20 0xFFFFFFFFFFFFFFFFFFFFFFFFFFFFFFFFFFFFFFFF AND PUSH32 0xD05CF6BE8E5090DD340B8AC187EB727EBA7D21B8781AA688175E2A67D9BFCEC3 DUP5 DUP7 PUSH1 0x40 MLOAD PUSH2 0x1E5D SWAP3 SWAP2 SWAP1 PUSH2 0x3B04 JUMP JUMPDEST PUSH1 0x40 MLOAD DUP1 SWAP2 SUB SWAP1 LOG2 POP POP PUSH2 0x1E6F PUSH2 0x2339 JUMP JUMPDEST POP POP POP POP JUMP JUMPDEST PUSH0 PUSH32 0x1FFC9A700000000000000000000000000000000000000000000000000000000 PUSH28 0xFFFFFFFFFFFFFFFFFFFFFFFFFFFFFFFFFFFFFFFFFFFFFFFFFFFFFFFF NOT AND DUP3 PUSH28 0xFFFFFFFFFFFFFFFFFFFFFFFFFFFFFFFFFFFFFFFFFFFFFFFFFFFFFFFF NOT AND EQ SWAP1 POP SWAP2 SWAP1 POP JUMP JUMPDEST PUSH0 PUSH32 0x2DD7BC7DEC4DCEEDDA775E58DD541E08A116C6C53815C0BD028192F7B626800 SWAP1 POP SWAP1 JUMP JUMPDEST PUSH2 0x1F16 DUP2 PUSH2 0x1F11 PUSH2 0x2011 JUMP JUMPDEST PUSH2 0x2CC7 JUMP JUMPDEST POP JUMP JUMPDEST PUSH0 PUSH0 PUSH2 0x1F23 PUSH2 0x1EDE JUMP JUMPDEST SWAP1 POP PUSH2 0x1F2F DUP5 DUP5 PUSH2 0x1417 JUMP JUMPDEST PUSH2 0x2006 JUMPI PUSH1 0x1 DUP2 PUSH0 ADD PUSH0 DUP7 DUP2 MSTORE PUSH1 0x20 ADD SWAP1 DUP2 MSTORE PUSH1 0x20 ADD PUSH0 KECCAK256 PUSH0 ADD PUSH0 DUP6 PUSH20 0xFFFFFFFFFFFFFFFFFFFFFFFFFFFFFFFFFFFFFFFF AND PUSH20 0xFFFFFFFFFFFFFFFFFFFFFFFFFFFFFFFFFFFFFFFF AND DUP2 MSTORE PUSH1 0x20 ADD SWAP1 DUP2 MSTORE PUSH1 0x20 ADD PUSH0 KECCAK256 PUSH0 PUSH2 0x100 EXP DUP2 SLOAD DUP2 PUSH1 0xFF MUL NOT AND SWAP1 DUP4 ISZERO ISZERO MUL OR SWAP1 SSTORE POP PUSH2 0x1FA2 PUSH2 0x2011 JUMP JUMPDEST PUSH20 0xFFFFFFFFFFFFFFFFFFFFFFFFFFFFFFFFFFFFFFFF AND DUP4 PUSH20 0xFFFFFFFFFFFFFFFFFFFFFFFFFFFFFFFFFFFFFFFF AND DUP6 PUSH32 0x2F8788117E7EFF1D82E926EC794901D17C78024A50270940304540A733656F0D PUSH1 0x40 MLOAD PUSH1 0x40 MLOAD DUP1 SWAP2 SUB SWAP1 LOG4 PUSH1 0x1 SWAP2 POP POP PUSH2 0x200B JUMP JUMPDEST PUSH0 SWAP2 POP POP JUMPDEST SWAP3 SWAP2 POP POP JUMP JUMPDEST PUSH0 CALLER SWAP1 POP SWAP1 JUMP JUMPDEST PUSH0 PUSH0 PUSH2 0x2022 PUSH2 0x1EDE JUMP JUMPDEST SWAP1 POP PUSH2 0x202E DUP5 DUP5 PUSH2 0x1417 JUMP JUMPDEST ISZERO PUSH2 0x2105 JUMPI PUSH0 DUP2 PUSH0 ADD PUSH0 DUP7 DUP2 MSTORE PUSH1 0x20 ADD SWAP1 DUP2 MSTORE PUSH1 0x20 ADD PUSH0 KECCAK256 PUSH0 ADD PUSH0 DUP6 PUSH20 0xFFFFFFFFFFFFFFFFFFFFFFFFFFFFFFFFFFFFFFFF AND PUSH20 0xFFFFFFFFFFFFFFFFFFFFFFFFFFFFFFFFFFFFFFFF AND DUP2 MSTORE PUSH1 0x20 ADD SWAP1 DUP2 MSTORE PUSH1 0x20 ADD PUSH0 KECCAK256 PUSH0 PUSH2 0x100 EXP DUP2 SLOAD DUP2 PUSH1 0xFF MUL NOT AND SWAP1 DUP4 ISZERO ISZERO MUL OR SWAP1 SSTORE POP PUSH2 0x20A1 PUSH2 0x2011 JUMP JUMPDEST PUSH20 0xFFFFFFFFFFFFFFFFFFFFFFFFFFFFFFFFFFFFFFFF AND DUP4 PUSH20 0xFFFFFFFFFFFFFFFFFFFFFFFFFFFFFFFFFFFFFFFF AND DUP6 PUSH32 0xF6391F5C32D9C69D2A47EA670B442974B53935D1EDC7FD64EB21E047A839171B PUSH1 0x40 MLOAD PUSH1 0x40 MLOAD DUP1 SWAP2 SUB SWAP1 LOG4 PUSH1 0x1 SWAP2 POP POP PUSH2 0x210A JUMP JUMPDEST PUSH0 SWAP2 POP POP JUMPDEST SWAP3 SWAP2 POP POP JUMP JUMPDEST PUSH0 PUSH2 0x2119 PUSH2 0x2D18 JUMP JUMPDEST SWAP1 POP PUSH1 0x2 DUP2 PUSH0 ADD SLOAD SUB PUSH2 0x2158 JUMPI PUSH1 0x40 MLOAD PUSH32 0x3EE5AEB500000000000000000000000000000000000000000000000000000000 DUP2 MSTORE PUSH1 0x4 ADD PUSH1 0x40 MLOAD DUP1 SWAP2 SUB SWAP1 REVERT JUMPDEST PUSH1 0x2 DUP2 PUSH0 ADD DUP2 SWAP1 SSTORE POP POP JUMP JUMPDEST PUSH0 PUSH1 0x5 PUSH0 DUP7 PUSH20 0xFFFFFFFFFFFFFFFFFFFFFFFFFFFFFFFFFFFFFFFF AND PUSH20 0xFFFFFFFFFFFFFFFFFFFFFFFFFFFFFFFFFFFFFFFF AND DUP2 MSTORE PUSH1 0x20 ADD SWAP1 DUP2 MSTORE PUSH1 0x20 ADD PUSH0 KECCAK256 SWAP1 POP PUSH0 PUSH0 PUSH0 DUP6 DUP6 DUP2 ADD SWAP1 PUSH2 0x21B6 SWAP2 SWAP1 PUSH2 0x51A2 JUMP JUMPDEST SWAP3 POP SWAP3 POP SWAP3 POP DUP2 MLOAD DUP4 MLOAD EQ DUP1 ISZERO PUSH2 0x21CE JUMPI POP DUP3 MLOAD DUP2 MLOAD EQ JUMPDEST PUSH2 0x220D JUMPI PUSH1 0x40 MLOAD PUSH32 0x8C379A000000000000000000000000000000000000000000000000000000000 DUP2 MSTORE PUSH1 0x4 ADD PUSH2 0x2204 SWAP1 PUSH2 0x5290 JUMP JUMPDEST PUSH1 0x40 MLOAD DUP1 SWAP2 SUB SWAP1 REVERT JUMPDEST DUP4 PUSH1 0x1 ADD SLOAD DUP4 MLOAD LT ISZERO PUSH2 0x2255 JUMPI PUSH1 0x40 MLOAD PUSH32 0x8C379A000000000000000000000000000000000000000000000000000000000 DUP2 MSTORE PUSH1 0x4 ADD PUSH2 0x224C SWAP1 PUSH2 0x52F8 JUMP JUMPDEST PUSH1 0x40 MLOAD DUP1 SWAP2 SUB SWAP1 REVERT JUMPDEST PUSH0 PUSH2 0x225F DUP9 PUSH2 0x22C7 JUMP JUMPDEST SWAP1 POP PUSH0 PUSH2 0x2272 DUP6 DUP6 DUP6 DUP10 PUSH0 ADD SLOAD DUP7 PUSH2 0x2D3F JUMP JUMPDEST SWAP1 POP DUP6 PUSH1 0x1 ADD SLOAD DUP2 LT ISZERO PUSH2 0x22BB JUMPI PUSH1 0x40 MLOAD PUSH32 0x8C379A000000000000000000000000000000000000000000000000000000000 DUP2 MSTORE PUSH1 0x4 ADD PUSH2 0x22B2 SWAP1 PUSH2 0x5360 JUMP JUMPDEST PUSH1 0x40 MLOAD DUP1 SWAP2 SUB SWAP1 REVERT JUMPDEST POP POP POP POP POP POP POP POP POP POP JUMP JUMPDEST PUSH0 DUP2 PUSH1 0x40 MLOAD PUSH1 0x20 ADD PUSH2 0x22D9 SWAP2 SWAP1 PUSH2 0x53F2 JUMP JUMPDEST PUSH1 0x40 MLOAD PUSH1 0x20 DUP2 DUP4 SUB SUB DUP2 MSTORE SWAP1 PUSH1 0x40 MSTORE DUP1 MLOAD SWAP1 PUSH1 0x20 ADD KECCAK256 SWAP1 POP SWAP2 SWAP1 POP JUMP JUMPDEST PUSH0 PUSH0 PUSH0 PUSH0 PUSH2 0x2304 DUP7 DUP7 PUSH2 0x2E71 JUMP JUMPDEST SWAP3 POP SWAP3 POP SWAP3 POP PUSH2 0x2314 DUP3 DUP3 PUSH2 0x2EC6 JUMP JUMPDEST DUP3 SWAP4 POP POP POP POP SWAP3 SWAP2 POP POP JUMP JUMPDEST PUSH0 PUSH2 0x2332 PUSH2 0x232C PUSH2 0x3028 JUMP JUMPDEST DUP4 PUSH2 0x3036 JUMP JUMPDEST SWAP1 POP SWAP2 SWAP1 POP JUMP JUMPDEST PUSH0 PUSH2 0x2342 PUSH2 0x2D18 JUMP JUMPDEST SWAP1 POP PUSH1 0x1 DUP2 PUSH0 ADD DUP2 SWAP1 SSTORE POP POP JUMP JUMPDEST PUSH32 0x0 PUSH20 0xFFFFFFFFFFFFFFFFFFFFFFFFFFFFFFFFFFFFFFFF AND ADDRESS PUSH20 0xFFFFFFFFFFFFFFFFFFFFFFFFFFFFFFFFFFFFFFFF AND EQ DUP1 PUSH2 0x23FD JUMPI POP PUSH32 0x0 PUSH20 0xFFFFFFFFFFFFFFFFFFFFFFFFFFFFFFFFFFFFFFFF AND PUSH2 0x23E4 PUSH2 0x3076 JUMP JUMPDEST PUSH20 0xFFFFFFFFFFFFFFFFFFFFFFFFFFFFFFFFFFFFFFFF AND EQ ISZERO JUMPDEST ISZERO PUSH2 0x2434 JUMPI PUSH1 0x40 MLOAD PUSH32 0xE07C8DBA00000000000000000000000000000000000000000000000000000000 DUP2 MSTORE PUSH1 0x4 ADD PUSH1 0x40 MLOAD DUP1 SWAP2 SUB SWAP1 REVERT JUMPDEST JUMP JUMPDEST PUSH0 PUSH0 SHL PUSH2 0x2442 DUP2 PUSH2 0x1F05 JUMP JUMPDEST PUSH1 0x2 PUSH0 SWAP1 SLOAD SWAP1 PUSH2 0x100 EXP SWAP1 DIV PUSH20 0xFFFFFFFFFFFFFFFFFFFFFFFFFFFFFFFFFFFFFFFF AND PUSH20 0xFFFFFFFFFFFFFFFFFFFFFFFFFFFFFFFFFFFFFFFF AND PUSH4 0x584B153E DUP4 PUSH1 0x40 MLOAD PUSH1 0x20 ADD PUSH2 0x2490 SWAP2 SWAP1 PUSH2 0x3B3A JUMP JUMPDEST PUSH1 0x40 MLOAD PUSH1 0x20 DUP2 DUP4 SUB SUB DUP2 MSTORE SWAP1 PUSH1 0x40 MSTORE DUP1 MLOAD SWAP1 PUSH1 0x20 ADD KECCAK256 PUSH1 0x40 MLOAD DUP3 PUSH4 0xFFFFFFFF AND PUSH1 0xE0 SHL DUP2 MSTORE PUSH1 0x4 ADD PUSH2 0x24C2 SWAP2 SWAP1 PUSH2 0x3BA8 JUMP JUMPDEST PUSH1 0x20 PUSH1 0x40 MLOAD DUP1 DUP4 SUB DUP2 DUP7 GAS STATICCALL ISZERO DUP1 ISZERO PUSH2 0x24DD JUMPI RETURNDATASIZE PUSH0 PUSH0 RETURNDATACOPY RETURNDATASIZE PUSH0 REVERT JUMPDEST POP POP POP POP PUSH1 0x40 MLOAD RETURNDATASIZE PUSH1 0x1F NOT PUSH1 0x1F DUP3 ADD AND DUP3 ADD DUP1 PUSH1 0x40 MSTORE POP DUP2 ADD SWAP1 PUSH2 0x2501 SWAP2 SWAP1 PUSH2 0x542B JUMP JUMPDEST PUSH2 0x2540 JUMPI PUSH1 0x40 MLOAD PUSH32 0x8C379A000000000000000000000000000000000000000000000000000000000 DUP2 MSTORE PUSH1 0x4 ADD PUSH2 0x2537 SWAP1 PUSH2 0x54A0 JUMP JUMPDEST PUSH1 0x40 MLOAD DUP1 SWAP2 SUB SWAP1 REVERT JUMPDEST POP POP JUMP JUMPDEST DUP2 PUSH20 0xFFFFFFFFFFFFFFFFFFFFFFFFFFFFFFFFFFFFFFFF AND PUSH4 0x52D1902D PUSH1 0x40 MLOAD DUP2 PUSH4 0xFFFFFFFF AND PUSH1 0xE0 SHL DUP2 MSTORE PUSH1 0x4 ADD PUSH1 0x20 PUSH1 0x40 MLOAD DUP1 DUP4 SUB DUP2 DUP7 GAS STATICCALL SWAP3 POP POP POP DUP1 ISZERO PUSH2 0x25AC JUMPI POP PUSH1 0x40 MLOAD RETURNDATASIZE PUSH1 0x1F NOT PUSH1 0x1F DUP3 ADD AND DUP3 ADD DUP1 PUSH1 0x40 MSTORE POP DUP2 ADD SWAP1 PUSH2 0x25A9 SWAP2 SWAP1 PUSH2 0x4833 JUMP JUMPDEST PUSH1 0x1 JUMPDEST PUSH2 0x25ED JUMPI DUP2 PUSH1 0x40 MLOAD PUSH32 0x4C9C8CE300000000000000000000000000000000000000000000000000000000 DUP2 MSTORE PUSH1 0x4 ADD PUSH2 0x25E4 SWAP2 SWAP1 PUSH2 0x3B3A JUMP JUMPDEST PUSH1 0x40 MLOAD DUP1 SWAP2 SUB SWAP1 REVERT JUMPDEST PUSH32 0x360894A13BA1A3210667C828492DB98DCA3E2076CC3735A920A3CA505D382BBC PUSH0 SHL DUP2 EQ PUSH2 0x2653 JUMPI DUP1 PUSH1 0x40 MLOAD PUSH32 0xAA1D49A400000000000000000000000000000000000000000000000000000000 DUP2 MSTORE PUSH1 0x4 ADD PUSH2 0x264A SWAP2 SWAP1 PUSH2 0x3BA8 JUMP JUMPDEST PUSH1 0x40 MLOAD DUP1 SWAP2 SUB SWAP1 REVERT JUMPDEST PUSH2 0x265D DUP4 DUP4 PUSH2 0x30C9 JUMP JUMPDEST POP POP POP JUMP JUMPDEST PUSH32 0x0 PUSH20 0xFFFFFFFFFFFFFFFFFFFFFFFFFFFFFFFFFFFFFFFF AND ADDRESS PUSH20 0xFFFFFFFFFFFFFFFFFFFFFFFFFFFFFFFFFFFFFFFF AND EQ PUSH2 0x26E7 JUMPI PUSH1 0x40 MLOAD PUSH32 0xE07C8DBA00000000000000000000000000000000000000000000000000000000 DUP2 MSTORE PUSH1 0x4 ADD PUSH1 0x40 MLOAD DUP1 SWAP2 SUB SWAP1 REVERT JUMPDEST JUMP JUMPDEST PUSH0 PUSH32 0xCD5ED15C6E187E77E9AEE88184C21F4F2182AB5827CB3B7E07FBEDCD63F03300 SWAP1 POP SWAP1 JUMP JUMPDEST PUSH0 PUSH32 0xA16A46D94261C7517CC8FF89F61C0CE93598E3C849801011DEE649A6A557D100 SWAP1 POP SWAP1 JUMP JUMPDEST PUSH1 0x60 PUSH0 PUSH2 0x2742 PUSH2 0x2710 JUMP JUMPDEST SWAP1 POP DUP1 PUSH1 0x2 ADD DUP1 SLOAD PUSH2 0x2753 SWAP1 PUSH2 0x54EB JUMP JUMPDEST DUP1 PUSH1 0x1F ADD PUSH1 0x20 DUP1 SWAP2 DIV MUL PUSH1 0x20 ADD PUSH1 0x40 MLOAD SWAP1 DUP2 ADD PUSH1 0x40 MSTORE DUP1 SWAP3 SWAP2 SWAP1 DUP2 DUP2 MSTORE PUSH1 0x20 ADD DUP3 DUP1 SLOAD PUSH2 0x277F SWAP1 PUSH2 0x54EB JUMP JUMPDEST DUP1 ISZERO PUSH2 0x27CA JUMPI DUP1 PUSH1 0x1F LT PUSH2 0x27A1 JUMPI PUSH2 0x100 DUP1 DUP4 SLOAD DIV MUL DUP4 MSTORE SWAP2 PUSH1 0x20 ADD SWAP2 PUSH2 0x27CA JUMP JUMPDEST DUP3 ADD SWAP2 SWAP1 PUSH0 MSTORE PUSH1 0x20 PUSH0 KECCAK256 SWAP1 JUMPDEST DUP2 SLOAD DUP2 MSTORE SWAP1 PUSH1 0x1 ADD SWAP1 PUSH1 0x20 ADD DUP1 DUP4 GT PUSH2 0x27AD JUMPI DUP3 SWAP1 SUB PUSH1 0x1F AND DUP3 ADD SWAP2 JUMPDEST POP POP POP POP POP SWAP2 POP POP SWAP1 JUMP JUMPDEST PUSH1 0x60 PUSH0 PUSH2 0x27E0 PUSH2 0x2710 JUMP JUMPDEST SWAP1 POP DUP1 PUSH1 0x3 ADD DUP1 SLOAD PUSH2 0x27F1 SWAP1 PUSH2 0x54EB JUMP JUMPDEST DUP1 PUSH1 0x1F ADD PUSH1 0x20 DUP1 SWAP2 DIV MUL PUSH1 0x20 ADD PUSH1 0x40 MLOAD SWAP1 DUP2 ADD PUSH1 0x40 MSTORE DUP1 SWAP3 SWAP2 SWAP1 DUP2 DUP2 MSTORE PUSH1 0x20 ADD DUP3 DUP1 SLOAD PUSH2 0x281D SWAP1 PUSH2 0x54EB JUMP JUMPDEST DUP1 ISZERO PUSH2 0x2868 JUMPI DUP1 PUSH1 0x1F LT PUSH2 0x283F JUMPI PUSH2 0x100 DUP1 DUP4 SLOAD DIV MUL DUP4 MSTORE SWAP2 PUSH1 0x20 ADD SWAP2 PUSH2 0x2868 JUMP JUMPDEST DUP3 ADD SWAP2 SWAP1 PUSH0 MSTORE PUSH1 0x20 PUSH0 KECCAK256 SWAP1 JUMPDEST DUP2 SLOAD DUP2 MSTORE SWAP1 PUSH1 0x1 ADD SWAP1 PUSH1 0x20 ADD DUP1 DUP4 GT PUSH2 0x284B JUMPI DUP3 SWAP1 SUB PUSH1 0x1F AND DUP3 ADD SWAP2 JUMPDEST POP POP POP POP POP SWAP2 POP POP SWAP1 JUMP JUMPDEST PUSH0 PUSH0 PUSH2 0x287D PUSH2 0x1EDE JUMP JUMPDEST SWAP1 POP DUP1 PUSH0 ADD PUSH0 DUP6 DUP2 MSTORE PUSH1 0x20 ADD SWAP1 DUP2 MSTORE PUSH1 0x20 ADD PUSH0 KECCAK256 PUSH0 ADD PUSH0 DUP5 PUSH20 0xFFFFFFFFFFFFFFFFFFFFFFFFFFFFFFFFFFFFFFFF AND PUSH20 0xFFFFFFFFFFFFFFFFFFFFFFFFFFFFFFFFFFFFFFFF AND DUP2 MSTORE PUSH1 0x20 ADD SWAP1 DUP2 MSTORE PUSH1 0x20 ADD PUSH0 KECCAK256 PUSH0 SWAP1 SLOAD SWAP1 PUSH2 0x100 EXP SWAP1 DIV PUSH1 0xFF AND SWAP2 POP POP SWAP3 SWAP2 POP POP JUMP JUMPDEST PUSH2 0x28EC PUSH2 0x313B JUMP JUMPDEST PUSH0 PUSH2 0x28F5 PUSH2 0x26E9 JUMP JUMPDEST SWAP1 POP PUSH1 0x1 DUP2 PUSH0 ADD PUSH0 PUSH2 0x100 EXP DUP2 SLOAD DUP2 PUSH1 0xFF MUL NOT AND SWAP1 DUP4 ISZERO ISZERO MUL OR SWAP1 SSTORE POP PUSH32 0x62E78CEA01BEE320CD4E420270B5EA74000D11B0C9F74754EBDBFC544B05A258 PUSH2 0x293B PUSH2 0x2011 JUMP JUMPDEST PUSH1 0x40 MLOAD PUSH2 0x2948 SWAP2 SWAP1 PUSH2 0x3B3A JUMP JUMPDEST PUSH1 0x40 MLOAD DUP1 SWAP2 SUB SWAP1 LOG1 POP JUMP JUMPDEST PUSH2 0x295B PUSH2 0x317C JUMP JUMPDEST PUSH0 PUSH2 0x2964 PUSH2 0x26E9 JUMP JUMPDEST SWAP1 POP PUSH0 DUP2 PUSH0 ADD PUSH0 PUSH2 0x100 EXP DUP2 SLOAD DUP2 PUSH1 0xFF MUL NOT AND SWAP1 DUP4 ISZERO ISZERO MUL OR SWAP1 SSTORE POP PUSH32 0x5DB9EE0A495BF2E6FF9C91A7834C1BA4FDD244A5E8AA4E537BD38AEAE4B073AA PUSH2 0x29A9 PUSH2 0x2011 JUMP JUMPDEST PUSH1 0x40 MLOAD PUSH2 0x29B6 SWAP2 SWAP1 PUSH2 0x3B3A JUMP JUMPDEST PUSH1 0x40 MLOAD DUP1 SWAP2 SUB SWAP1 LOG1 POP JUMP JUMPDEST PUSH0 PUSH0 PUSH2 0x29CB PUSH2 0x31BC JUMP JUMPDEST SWAP1 POP DUP1 SWAP2 POP POP SWAP1 JUMP JUMPDEST PUSH2 0x29DC PUSH2 0x31E5 JUMP JUMPDEST JUMP JUMPDEST PUSH2 0x29E6 PUSH2 0x31E5 JUMP JUMPDEST JUMP JUMPDEST PUSH2 0x29F0 PUSH2 0x31E5 JUMP JUMPDEST JUMP JUMPDEST PUSH2 0x29FA PUSH2 0x31E5 JUMP JUMPDEST PUSH2 0x2A02 PUSH2 0x3225 JUMP JUMPDEST JUMP JUMPDEST PUSH2 0x2A0C PUSH2 0x31E5 JUMP JUMPDEST PUSH2 0x2A16 DUP3 DUP3 PUSH2 0x3244 JUMP JUMPDEST POP POP JUMP JUMPDEST DUP1 PUSH1 0x40 ADD MLOAD PUSH1 0x2 PUSH1 0x14 PUSH2 0x100 EXP DUP2 SLOAD DUP2 PUSH8 0xFFFFFFFFFFFFFFFF MUL NOT AND SWAP1 DUP4 PUSH8 0xFFFFFFFFFFFFFFFF AND MUL OR SWAP1 SSTORE POP DUP1 PUSH2 0x100 ADD MLOAD PUSH0 PUSH0 PUSH2 0x100 EXP DUP2 SLOAD DUP2 PUSH20 0xFFFFFFFFFFFFFFFFFFFFFFFFFFFFFFFFFFFFFFFF MUL NOT AND SWAP1 DUP4 PUSH20 0xFFFFFFFFFFFFFFFFFFFFFFFFFFFFFFFFFFFFFFFF AND MUL OR SWAP1 SSTORE POP DUP1 PUSH2 0x120 ADD MLOAD PUSH1 0x1 PUSH0 PUSH2 0x100 EXP DUP2 SLOAD DUP2 PUSH20 0xFFFFFFFFFFFFFFFFFFFFFFFFFFFFFFFFFFFFFFFF MUL NOT AND SWAP1 DUP4 PUSH20 0xFFFFFFFFFFFFFFFFFFFFFFFFFFFFFFFFFFFFFFFF AND MUL OR SWAP1 SSTORE POP DUP1 PUSH2 0x140 ADD MLOAD PUSH1 0x2 PUSH0 PUSH2 0x100 EXP DUP2 SLOAD DUP2 PUSH20 0xFFFFFFFFFFFFFFFFFFFFFFFFFFFFFFFFFFFFFFFF MUL NOT AND SWAP1 DUP4 PUSH20 0xFFFFFFFFFFFFFFFFFFFFFFFFFFFFFFFFFFFFFFFF AND MUL OR SWAP1 SSTORE POP DUP1 PUSH1 0x20 ADD MLOAD PUSH1 0x6 PUSH0 DUP4 PUSH0 ADD MLOAD PUSH20 0xFFFFFFFFFFFFFFFFFFFFFFFFFFFFFFFFFFFFFFFF AND PUSH20 0xFFFFFFFFFFFFFFFFFFFFFFFFFFFFFFFFFFFFFFFF AND DUP2 MSTORE PUSH1 0x20 ADD SWAP1 DUP2 MSTORE PUSH1 0x20 ADD PUSH0 KECCAK256 PUSH0 PUSH2 0x100 EXP DUP2 SLOAD DUP2 PUSH8 0xFFFFFFFFFFFFFFFF MUL NOT AND SWAP1 DUP4 PUSH8 0xFFFFFFFFFFFFFFFF AND MUL OR SWAP1 SSTORE POP POP JUMP JUMPDEST PUSH2 0x2B97 PUSH0 PUSH0 SHL DUP9 PUSH8 0xFFFFFFFFFFFFFFFF PUSH2 0x3295 JUMP JUMPDEST PUSH2 0x2BCA PUSH32 0xE28434228950B641DBBC0178DE89DAA359A87C6EE0D8399AEACE52A98FE902B9 DUP8 PUSH8 0xFFFFFFFFFFFFFFFF PUSH2 0x3295 JUMP JUMPDEST PUSH2 0x2BF4 PUSH32 0xE28434228950B641DBBC0178DE89DAA359A87C6EE0D8399AEACE52A98FE902B9 DUP7 PUSH2 0x3372 JUMP JUMPDEST PUSH2 0x2C1E PUSH32 0xFDAE3CA625B7A6A67B1C85DDB9EFB8E92252215D4A6EC7177E622584B5B236E8 DUP6 PUSH2 0x3372 JUMP JUMPDEST PUSH2 0x2C48 PUSH32 0xF6E67E455C1170019DF813A9DCB568F910C16426A5A6FAFFB00D325D6F118B67 DUP5 PUSH2 0x3372 JUMP JUMPDEST PUSH2 0x2C72 PUSH32 0x8D3DCDF1E9EAB2DA5264C88688DCA61DB7F403E1CC5B462D3811F46A402DA286 DUP4 PUSH2 0x3372 JUMP JUMPDEST PUSH2 0x2C9C PUSH32 0xB50BF5231F3EEFD0C7721047B3FAA6AC72AE3819915A27A4D8E692160A3AC1ED DUP3 PUSH2 0x3372 JUMP JUMPDEST POP POP POP POP POP POP POP JUMP JUMPDEST PUSH2 0x2CAE DUP3 PUSH2 0x70C JUMP JUMPDEST PUSH2 0x2CB7 DUP2 PUSH2 0x1F05 JUMP JUMPDEST PUSH2 0x2CC1 DUP4 DUP4 PUSH2 0x2018 JUMP JUMPDEST POP POP POP POP JUMP JUMPDEST PUSH2 0x2CD1 DUP3 DUP3 PUSH2 0x1417 JUMP JUMPDEST PUSH2 0x2D14 JUMPI DUP1 DUP3 PUSH1 0x40 MLOAD PUSH32 0xE2517D3F00000000000000000000000000000000000000000000000000000000 DUP2 MSTORE PUSH1 0x4 ADD PUSH2 0x2D0B SWAP3 SWAP2 SWAP1 PUSH2 0x551B JUMP JUMPDEST PUSH1 0x40 MLOAD DUP1 SWAP2 SUB SWAP1 REVERT JUMPDEST POP POP JUMP JUMPDEST PUSH0 PUSH32 0x9B779B17422D0DF92223018B32B4D1FA46E071723D6817E2486D003BECC55F00 SWAP1 POP SWAP1 JUMP JUMPDEST PUSH0 PUSH0 PUSH0 SWAP1 POP PUSH0 PUSH0 SWAP1 POP JUMPDEST DUP8 MLOAD DUP2 LT DUP1 ISZERO PUSH2 0x2D59 JUMPI POP DUP8 MLOAD DUP3 LT JUMPDEST ISZERO PUSH2 0x2E63 JUMPI PUSH0 DUP9 DUP3 DUP2 MLOAD DUP2 LT PUSH2 0x2D72 JUMPI PUSH2 0x2D71 PUSH2 0x5542 JUMP JUMPDEST JUMPDEST PUSH1 0x20 MUL PUSH1 0x20 ADD ADD MLOAD PUSH1 0x40 MLOAD PUSH1 0x20 ADD PUSH2 0x2D8A SWAP2 SWAP1 PUSH2 0x55B4 JUMP JUMPDEST PUSH1 0x40 MLOAD PUSH1 0x20 DUP2 DUP4 SUB SUB DUP2 MSTORE SWAP1 PUSH1 0x40 MSTORE DUP1 MLOAD SWAP1 PUSH1 0x20 ADD KECCAK256 SWAP1 POP PUSH2 0x2DC7 DUP8 DUP4 DUP2 MLOAD DUP2 LT PUSH2 0x2DB8 JUMPI PUSH2 0x2DB7 PUSH2 0x5542 JUMP JUMPDEST JUMPDEST PUSH1 0x20 MUL PUSH1 0x20 ADD ADD MLOAD DUP8 DUP4 PUSH2 0x3432 JUMP JUMPDEST DUP1 ISZERO PUSH2 0x2E3B JUMPI POP DUP9 DUP3 DUP2 MLOAD DUP2 LT PUSH2 0x2DE1 JUMPI PUSH2 0x2DE0 PUSH2 0x5542 JUMP JUMPDEST JUMPDEST PUSH1 0x20 MUL PUSH1 0x20 ADD ADD MLOAD PUSH20 0xFFFFFFFFFFFFFFFFFFFFFFFFFFFFFFFFFFFFFFFF AND PUSH2 0x2E23 DUP7 DUP11 DUP6 DUP2 MLOAD DUP2 LT PUSH2 0x2E16 JUMPI PUSH2 0x2E15 PUSH2 0x5542 JUMP JUMPDEST JUMPDEST PUSH1 0x20 MUL PUSH1 0x20 ADD ADD MLOAD PUSH2 0x22F6 JUMP JUMPDEST PUSH20 0xFFFFFFFFFFFFFFFFFFFFFFFFFFFFFFFFFFFFFFFF AND EQ JUMPDEST ISZERO PUSH2 0x2E4F JUMPI DUP3 DUP1 PUSH2 0x2E4B SWAP1 PUSH2 0x55CE JUMP JUMPDEST SWAP4 POP POP JUMPDEST POP DUP1 DUP1 PUSH2 0x2E5B SWAP1 PUSH2 0x55CE JUMP JUMPDEST SWAP2 POP POP PUSH2 0x2D49 JUMP JUMPDEST POP DUP1 SWAP2 POP POP SWAP6 SWAP5 POP POP POP POP POP JUMP JUMPDEST PUSH0 PUSH0 PUSH0 PUSH1 0x41 DUP5 MLOAD SUB PUSH2 0x2EB1 JUMPI PUSH0 PUSH0 PUSH0 PUSH1 0x20 DUP8 ADD MLOAD SWAP3 POP PUSH1 0x40 DUP8 ADD MLOAD SWAP2 POP PUSH1 0x60 DUP8 ADD MLOAD PUSH0 BYTE SWAP1 POP PUSH2 0x2EA3 DUP9 DUP3 DUP6 DUP6 PUSH2 0x3448 JUMP JUMPDEST SWAP6 POP SWAP6 POP SWAP6 POP POP POP POP PUSH2 0x2EBF JUMP JUMPDEST PUSH0 PUSH1 0x2 DUP6 MLOAD PUSH0 SHL SWAP3 POP SWAP3 POP SWAP3 POP JUMPDEST SWAP3 POP SWAP3 POP SWAP3 JUMP JUMPDEST PUSH0 PUSH1 0x3 DUP2 GT ISZERO PUSH2 0x2ED9 JUMPI PUSH2 0x2ED8 PUSH2 0x5615 JUMP JUMPDEST JUMPDEST DUP3 PUSH1 0x3 DUP2 GT ISZERO PUSH2 0x2EEC JUMPI PUSH2 0x2EEB PUSH2 0x5615 JUMP JUMPDEST JUMPDEST SUB ISZERO PUSH2 0x3024 JUMPI PUSH1 0x1 PUSH1 0x3 DUP2 GT ISZERO PUSH2 0x2F06 JUMPI PUSH2 0x2F05 PUSH2 0x5615 JUMP JUMPDEST JUMPDEST DUP3 PUSH1 0x3 DUP2 GT ISZERO PUSH2 0x2F19 JUMPI PUSH2 0x2F18 PUSH2 0x5615 JUMP JUMPDEST JUMPDEST SUB PUSH2 0x2F50 JUMPI PUSH1 0x40 MLOAD PUSH32 0xF645EEDF00000000000000000000000000000000000000000000000000000000 DUP2 MSTORE PUSH1 0x4 ADD PUSH1 0x40 MLOAD DUP1 SWAP2 SUB SWAP1 REVERT JUMPDEST PUSH1 0x2 PUSH1 0x3 DUP2 GT ISZERO PUSH2 0x2F64 JUMPI PUSH2 0x2F63 PUSH2 0x5615 JUMP JUMPDEST JUMPDEST DUP3 PUSH1 0x3 DUP2 GT ISZERO PUSH2 0x2F77 JUMPI PUSH2 0x2F76 PUSH2 0x5615 JUMP JUMPDEST JUMPDEST SUB PUSH2 0x2FBB JUMPI DUP1 PUSH0 SHR PUSH1 0x40 MLOAD PUSH32 0xFCE698F700000000000000000000000000000000000000000000000000000000 DUP2 MSTORE PUSH1 0x4 ADD PUSH2 0x2FB2 SWAP2 SWAP1 PUSH2 0x3CB8 JUMP JUMPDEST PUSH1 0x40 MLOAD DUP1 SWAP2 SUB SWAP1 REVERT JUMPDEST PUSH1 0x3 DUP1 DUP2 GT ISZERO PUSH2 0x2FCE JUMPI PUSH2 0x2FCD PUSH2 0x5615 JUMP JUMPDEST JUMPDEST DUP3 PUSH1 0x3 DUP2 GT ISZERO PUSH2 0x2FE1 JUMPI PUSH2 0x2FE0 PUSH2 0x5615 JUMP JUMPDEST JUMPDEST SUB PUSH2 0x3023 JUMPI DUP1 PUSH1 0x40 MLOAD PUSH32 0xD78BCE0C00000000000000000000000000000000000000000000000000000000 DUP2 MSTORE PUSH1 0x4 ADD PUSH2 0x301A SWAP2 SWAP1 PUSH2 0x3BA8 JUMP JUMPDEST PUSH1 0x40 MLOAD DUP1 SWAP2 SUB SWAP1 REVERT JUMPDEST JUMPDEST POP POP JUMP JUMPDEST PUSH0 PUSH2 0x3031 PUSH2 0x352F JUMP JUMPDEST SWAP1 POP SWAP1 JUMP JUMPDEST PUSH0 PUSH1 0x40 MLOAD PUSH32 0x1901000000000000000000000000000000000000000000000000000000000000 DUP2 MSTORE DUP4 PUSH1 0x2 DUP3 ADD MSTORE DUP3 PUSH1 0x22 DUP3 ADD MSTORE PUSH1 0x42 DUP2 KECCAK256 SWAP2 POP POP SWAP3 SWAP2 POP POP JUMP JUMPDEST PUSH0 PUSH2 0x30A2 PUSH32 0x360894A13BA1A3210667C828492DB98DCA3E2076CC3735A920A3CA505D382BBC PUSH0 SHL PUSH2 0x3592 JUMP JUMPDEST PUSH0 ADD PUSH0 SWAP1 SLOAD SWAP1 PUSH2 0x100 EXP SWAP1 DIV PUSH20 0xFFFFFFFFFFFFFFFFFFFFFFFFFFFFFFFFFFFFFFFF AND SWAP1 POP SWAP1 JUMP JUMPDEST PUSH2 0x30D2 DUP3 PUSH2 0x359B JUMP JUMPDEST DUP2 PUSH20 0xFFFFFFFFFFFFFFFFFFFFFFFFFFFFFFFFFFFFFFFF AND PUSH32 0xBC7CD75A20EE27FD9ADEBAB32041F755214DBC6BFFA90CC0225B39DA2E5C2D3B PUSH1 0x40 MLOAD PUSH1 0x40 MLOAD DUP1 SWAP2 SUB SWAP1 LOG2 PUSH0 DUP2 MLOAD GT ISZERO PUSH2 0x312E JUMPI PUSH2 0x3128 DUP3 DUP3 PUSH2 0x3664 JUMP JUMPDEST POP PUSH2 0x3137 JUMP JUMPDEST PUSH2 0x3136 PUSH2 0x36E4 JUMP JUMPDEST JUMPDEST POP POP JUMP JUMPDEST PUSH2 0x3143 PUSH2 0x12D7 JUMP JUMPDEST ISZERO PUSH2 0x317A JUMPI PUSH1 0x40 MLOAD PUSH32 0xD93C066500000000000000000000000000000000000000000000000000000000 DUP2 MSTORE PUSH1 0x4 ADD PUSH1 0x40 MLOAD DUP1 SWAP2 SUB SWAP1 REVERT JUMPDEST JUMP JUMPDEST PUSH2 0x3184 PUSH2 0x12D7 JUMP JUMPDEST PUSH2 0x31BA JUMPI PUSH1 0x40 MLOAD PUSH32 0x8DFC202B00000000000000000000000000000000000000000000000000000000 DUP2 MSTORE PUSH1 0x4 ADD PUSH1 0x40 MLOAD DUP1 SWAP2 SUB SWAP1 REVERT JUMPDEST JUMP JUMPDEST PUSH0 PUSH32 0xF0C57E16840DF040F15088DC2F81FE391C3923BEC73E23A9662EFC9C229C6A00 PUSH0 SHL SWAP1 POP SWAP1 JUMP JUMPDEST PUSH2 0x31ED PUSH2 0x3720 JUMP JUMPDEST PUSH2 0x3223 JUMPI PUSH1 0x40 MLOAD PUSH32 0xD7E6BCF800000000000000000000000000000000000000000000000000000000 DUP2 MSTORE PUSH1 0x4 ADD PUSH1 0x40 MLOAD DUP1 SWAP2 SUB SWAP1 REVERT JUMPDEST JUMP JUMPDEST PUSH2 0x322D PUSH2 0x31E5 JUMP JUMPDEST PUSH0 PUSH2 0x3236 PUSH2 0x2D18 JUMP JUMPDEST SWAP1 POP PUSH1 0x1 DUP2 PUSH0 ADD DUP2 SWAP1 SSTORE POP POP JUMP JUMPDEST PUSH2 0x324C PUSH2 0x31E5 JUMP JUMPDEST PUSH0 PUSH2 0x3255 PUSH2 0x2710 JUMP JUMPDEST SWAP1 POP DUP3 DUP2 PUSH1 0x2 ADD SWAP1 DUP2 PUSH2 0x3268 SWAP2 SWAP1 PUSH2 0x57D9 JUMP JUMPDEST POP DUP2 DUP2 PUSH1 0x3 ADD SWAP1 DUP2 PUSH2 0x327A SWAP2 SWAP1 PUSH2 0x57D9 JUMP JUMPDEST POP PUSH0 PUSH0 SHL DUP2 PUSH0 ADD DUP2 SWAP1 SSTORE POP PUSH0 PUSH0 SHL DUP2 PUSH1 0x1 ADD DUP2 SWAP1 SSTORE POP POP POP POP JUMP JUMPDEST PUSH0 PUSH20 0xFFFFFFFFFFFFFFFFFFFFFFFFFFFFFFFFFFFFFFFF AND DUP3 PUSH20 0xFFFFFFFFFFFFFFFFFFFFFFFFFFFFFFFFFFFFFFFF AND SUB PUSH2 0x3303 JUMPI PUSH1 0x40 MLOAD PUSH32 0x8C379A000000000000000000000000000000000000000000000000000000000 DUP2 MSTORE PUSH1 0x4 ADD PUSH2 0x32FA SWAP1 PUSH2 0x58F2 JUMP JUMPDEST PUSH1 0x40 MLOAD DUP1 SWAP2 SUB SWAP1 REVERT JUMPDEST PUSH2 0x330D DUP4 DUP4 PUSH2 0x1F19 JUMP JUMPDEST POP DUP1 PUSH1 0x8 PUSH0 DUP6 DUP6 PUSH1 0x40 MLOAD PUSH1 0x20 ADD PUSH2 0x3325 SWAP3 SWAP2 SWAP1 PUSH2 0x4C9C JUMP JUMPDEST PUSH1 0x40 MLOAD PUSH1 0x20 DUP2 DUP4 SUB SUB DUP2 MSTORE SWAP1 PUSH1 0x40 MSTORE DUP1 MLOAD SWAP1 PUSH1 0x20 ADD KECCAK256 DUP2 MSTORE PUSH1 0x20 ADD SWAP1 DUP2 MSTORE PUSH1 0x20 ADD PUSH0 KECCAK256 PUSH0 PUSH2 0x100 EXP DUP2 SLOAD DUP2 PUSH8 0xFFFFFFFFFFFFFFFF MUL NOT AND SWAP1 DUP4 PUSH8 0xFFFFFFFFFFFFFFFF AND MUL OR SWAP1 SSTORE POP POP POP POP JUMP JUMPDEST PUSH0 PUSH0 SWAP1 POP JUMPDEST DUP2 MLOAD DUP2 LT ISZERO PUSH2 0x342D JUMPI PUSH0 DUP3 DUP3 DUP2 MLOAD DUP2 LT PUSH2 0x3394 JUMPI PUSH2 0x3393 PUSH2 0x5542 JUMP JUMPDEST JUMPDEST PUSH1 0x20 MUL PUSH1 0x20 ADD ADD MLOAD SWAP1 POP PUSH0 PUSH20 0xFFFFFFFFFFFFFFFFFFFFFFFFFFFFFFFFFFFFFFFF AND DUP2 PUSH20 0xFFFFFFFFFFFFFFFFFFFFFFFFFFFFFFFFFFFFFFFF AND SUB PUSH2 0x340C JUMPI PUSH1 0x40 MLOAD PUSH32 0x8C379A000000000000000000000000000000000000000000000000000000000 DUP2 MSTORE PUSH1 0x4 ADD PUSH2 0x3403 SWAP1 PUSH2 0x595A JUMP JUMPDEST PUSH1 0x40 MLOAD DUP1 SWAP2 SUB SWAP1 REVERT JUMPDEST PUSH2 0x341F DUP5 DUP3 PUSH8 0xFFFFFFFFFFFFFFFF PUSH2 0x3295 JUMP JUMPDEST DUP2 DUP1 PUSH1 0x1 ADD SWAP3 POP POP POP PUSH2 0x3377 JUMP JUMPDEST POP POP POP JUMP JUMPDEST PUSH0 DUP3 PUSH2 0x343E DUP6 DUP5 PUSH2 0x373E JUMP JUMPDEST EQ SWAP1 POP SWAP4 SWAP3 POP POP POP JUMP JUMPDEST PUSH0 PUSH0 PUSH0 PUSH32 0x7FFFFFFFFFFFFFFFFFFFFFFFFFFFFFFF5D576E7357A4501DDFE92F46681B20A0 DUP5 PUSH0 SHR GT ISZERO PUSH2 0x3484 JUMPI PUSH0 PUSH1 0x3 DUP6 SWAP3 POP SWAP3 POP SWAP3 POP PUSH2 0x3525 JUMP JUMPDEST PUSH0 PUSH1 0x1 DUP9 DUP9 DUP9 DUP9 PUSH1 0x40 MLOAD PUSH0 DUP2 MSTORE PUSH1 0x20 ADD PUSH1 0x40 MSTORE PUSH1 0x40 MLOAD PUSH2 0x34A7 SWAP5 SWAP4 SWAP3 SWAP2 SWAP1 PUSH2 0x5993 JUMP JUMPDEST PUSH1 0x20 PUSH1 0x40 MLOAD PUSH1 0x20 DUP2 SUB SWAP1 DUP1 DUP5 SUB SWAP1 DUP6 GAS STATICCALL ISZERO DUP1 ISZERO PUSH2 0x34C7 JUMPI RETURNDATASIZE PUSH0 PUSH0 RETURNDATACOPY RETURNDATASIZE PUSH0 REVERT JUMPDEST POP POP POP PUSH1 0x20 PUSH1 0x40 MLOAD SUB MLOAD SWAP1 POP PUSH0 PUSH20 0xFFFFFFFFFFFFFFFFFFFFFFFFFFFFFFFFFFFFFFFF AND DUP2 PUSH20 0xFFFFFFFFFFFFFFFFFFFFFFFFFFFFFFFFFFFFFFFF AND SUB PUSH2 0x3518 JUMPI PUSH0 PUSH1 0x1 PUSH0 PUSH0 SHL SWAP4 POP SWAP4 POP SWAP4 POP POP PUSH2 0x3525 JUMP JUMPDEST DUP1 PUSH0 PUSH0 PUSH0 SHL SWAP4 POP SWAP4 POP SWAP4 POP POP JUMPDEST SWAP5 POP SWAP5 POP SWAP5 SWAP2 POP POP JUMP JUMPDEST PUSH0 PUSH32 0x8B73C3C69BB8FE3D512ECC4CF759CC79239F7B179B0FFACAA9A75D522B39400F PUSH2 0x3559 PUSH2 0x378F JUMP JUMPDEST PUSH2 0x3561 PUSH2 0x3805 JUMP JUMPDEST CHAINID ADDRESS PUSH1 0x40 MLOAD PUSH1 0x20 ADD PUSH2 0x3577 SWAP6 SWAP5 SWAP4 SWAP3 SWAP2 SWAP1 PUSH2 0x59D6 JUMP JUMPDEST PUSH1 0x40 MLOAD PUSH1 0x20 DUP2 DUP4 SUB SUB DUP2 MSTORE SWAP1 PUSH1 0x40 MSTORE DUP1 MLOAD SWAP1 PUSH1 0x20 ADD KECCAK256 SWAP1 POP SWAP1 JUMP JUMPDEST PUSH0 DUP2 SWAP1 POP SWAP2 SWAP1 POP JUMP JUMPDEST PUSH0 DUP2 PUSH20 0xFFFFFFFFFFFFFFFFFFFFFFFFFFFFFFFFFFFFFFFF AND EXTCODESIZE SUB PUSH2 0x35F6 JUMPI DUP1 PUSH1 0x40 MLOAD PUSH32 0x4C9C8CE300000000000000000000000000000000000000000000000000000000 DUP2 MSTORE PUSH1 0x4 ADD PUSH2 0x35ED SWAP2 SWAP1 PUSH2 0x3B3A JUMP JUMPDEST PUSH1 0x40 MLOAD DUP1 SWAP2 SUB SWAP1 REVERT JUMPDEST DUP1 PUSH2 0x3622 PUSH32 0x360894A13BA1A3210667C828492DB98DCA3E2076CC3735A920A3CA505D382BBC PUSH0 SHL PUSH2 0x3592 JUMP JUMPDEST PUSH0 ADD PUSH0 PUSH2 0x100 EXP DUP2 SLOAD DUP2 PUSH20 0xFFFFFFFFFFFFFFFFFFFFFFFFFFFFFFFFFFFFFFFF MUL NOT AND SWAP1 DUP4 PUSH20 0xFFFFFFFFFFFFFFFFFFFFFFFFFFFFFFFFFFFFFFFF AND MUL OR SWAP1 SSTORE POP POP JUMP JUMPDEST PUSH1 0x60 PUSH0 PUSH0 DUP5 PUSH20 0xFFFFFFFFFFFFFFFFFFFFFFFFFFFFFFFFFFFFFFFF AND DUP5 PUSH1 0x40 MLOAD PUSH2 0x368D SWAP2 SWAP1 PUSH2 0x5A61 JUMP JUMPDEST PUSH0 PUSH1 0x40 MLOAD DUP1 DUP4 SUB DUP2 DUP6 GAS DELEGATECALL SWAP2 POP POP RETURNDATASIZE DUP1 PUSH0 DUP2 EQ PUSH2 0x36C5 JUMPI PUSH1 0x40 MLOAD SWAP2 POP PUSH1 0x1F NOT PUSH1 0x3F RETURNDATASIZE ADD AND DUP3 ADD PUSH1 0x40 MSTORE RETURNDATASIZE DUP3 MSTORE RETURNDATASIZE PUSH0 PUSH1 0x20 DUP5 ADD RETURNDATACOPY PUSH2 0x36CA JUMP JUMPDEST PUSH1 0x60 SWAP2 POP JUMPDEST POP SWAP2 POP SWAP2 POP PUSH2 0x36DA DUP6 DUP4 DUP4 PUSH2 0x387C JUMP JUMPDEST SWAP3 POP POP POP SWAP3 SWAP2 POP POP JUMP JUMPDEST PUSH0 CALLVALUE GT ISZERO PUSH2 0x371E JUMPI PUSH1 0x40 MLOAD PUSH32 0xB398979F00000000000000000000000000000000000000000000000000000000 DUP2 MSTORE PUSH1 0x4 ADD PUSH1 0x40 MLOAD DUP1 SWAP2 SUB SWAP1 REVERT JUMPDEST JUMP JUMPDEST PUSH0 PUSH2 0x3729 PUSH2 0x29C1 JUMP JUMPDEST PUSH0 ADD PUSH1 0x8 SWAP1 SLOAD SWAP1 PUSH2 0x100 EXP SWAP1 DIV PUSH1 0xFF AND SWAP1 POP SWAP1 JUMP JUMPDEST PUSH0 PUSH0 DUP3 SWAP1 POP PUSH0 PUSH0 SWAP1 POP JUMPDEST DUP5 MLOAD DUP2 LT ISZERO PUSH2 0x3784 JUMPI PUSH2 0x3775 DUP3 DUP7 DUP4 DUP2 MLOAD DUP2 LT PUSH2 0x3768 JUMPI PUSH2 0x3767 PUSH2 0x5542 JUMP JUMPDEST JUMPDEST PUSH1 0x20 MUL PUSH1 0x20 ADD ADD MLOAD PUSH2 0x3909 JUMP JUMPDEST SWAP2 POP DUP1 DUP1 PUSH1 0x1 ADD SWAP2 POP POP PUSH2 0x3748 JUMP JUMPDEST POP DUP1 SWAP2 POP POP SWAP3 SWAP2 POP POP JUMP JUMPDEST PUSH0 PUSH0 PUSH2 0x3799 PUSH2 0x2710 JUMP JUMPDEST SWAP1 POP PUSH0 PUSH2 0x37A4 PUSH2 0x2737 JUMP JUMPDEST SWAP1 POP PUSH0 DUP2 MLOAD GT ISZERO PUSH2 0x37C0 JUMPI DUP1 DUP1 MLOAD SWAP1 PUSH1 0x20 ADD KECCAK256 SWAP3 POP POP POP PUSH2 0x3802 JUMP JUMPDEST PUSH0 DUP3 PUSH0 ADD SLOAD SWAP1 POP PUSH0 PUSH0 SHL DUP2 EQ PUSH2 0x37DB JUMPI DUP1 SWAP4 POP POP POP POP PUSH2 0x3802 JUMP JUMPDEST PUSH32 0xC5D2460186F7233C927E7DB2DCC703C0E500B653CA82273B7BFAD8045D85A470 SWAP4 POP POP POP POP JUMPDEST SWAP1 JUMP JUMPDEST PUSH0 PUSH0 PUSH2 0x380F PUSH2 0x2710 JUMP JUMPDEST SWAP1 POP PUSH0 PUSH2 0x381A PUSH2 0x27D5 JUMP JUMPDEST SWAP1 POP PUSH0 DUP2 MLOAD GT ISZERO PUSH2 0x3836 JUMPI DUP1 DUP1 MLOAD SWAP1 PUSH1 0x20 ADD KECCAK256 SWAP3 POP POP POP PUSH2 0x3879 JUMP JUMPDEST PUSH0 DUP3 PUSH1 0x1 ADD SLOAD SWAP1 POP PUSH0 PUSH0 SHL DUP2 EQ PUSH2 0x3852 JUMPI DUP1 SWAP4 POP POP POP POP PUSH2 0x3879 JUMP JUMPDEST PUSH32 0xC5D2460186F7233C927E7DB2DCC703C0E500B653CA82273B7BFAD8045D85A470 SWAP4 POP POP POP POP JUMPDEST SWAP1 JUMP JUMPDEST PUSH1 0x60 DUP3 PUSH2 0x3891 JUMPI PUSH2 0x388C DUP3 PUSH2 0x3933 JUMP JUMPDEST PUSH2 0x3901 JUMP JUMPDEST PUSH0 DUP3 MLOAD EQ DUP1 ISZERO PUSH2 0x38B7 JUMPI POP PUSH0 DUP5 PUSH20 0xFFFFFFFFFFFFFFFFFFFFFFFFFFFFFFFFFFFFFFFF AND EXTCODESIZE EQ JUMPDEST ISZERO PUSH2 0x38F9 JUMPI DUP4 PUSH1 0x40 MLOAD PUSH32 0x9996B31500000000000000000000000000000000000000000000000000000000 DUP2 MSTORE PUSH1 0x4 ADD PUSH2 0x38F0 SWAP2 SWAP1 PUSH2 0x3B3A JUMP JUMPDEST PUSH1 0x40 MLOAD DUP1 SWAP2 SUB SWAP1 REVERT JUMPDEST DUP2 SWAP1 POP PUSH2 0x3902 JUMP JUMPDEST JUMPDEST SWAP4 SWAP3 POP POP POP JUMP JUMPDEST PUSH0 DUP2 DUP4 LT PUSH2 0x3920 JUMPI PUSH2 0x391B DUP3 DUP5 PUSH2 0x3977 JUMP JUMPDEST PUSH2 0x392B JUMP JUMPDEST PUSH2 0x392A DUP4 DUP4 PUSH2 0x3977 JUMP JUMPDEST JUMPDEST SWAP1 POP SWAP3 SWAP2 POP POP JUMP JUMPDEST PUSH0 DUP2 MLOAD GT ISZERO PUSH2 0x3945 JUMPI DUP1 MLOAD DUP1 DUP3 PUSH1 0x20 ADD REVERT JUMPDEST PUSH1 0x40 MLOAD PUSH32 0xD6BDA27500000000000000000000000000000000000000000000000000000000 DUP2 MSTORE PUSH1 0x4 ADD PUSH1 0x40 MLOAD DUP1 SWAP2 SUB SWAP1 REVERT JUMPDEST PUSH0 DUP3 PUSH0 MSTORE DUP2 PUSH1 0x20 MSTORE PUSH1 0x40 PUSH0 KECCAK256 SWAP1 POP SWAP3 SWAP2 POP POP JUMP JUMPDEST PUSH0 PUSH1 0x40 MLOAD SWAP1 POP SWAP1 JUMP JUMPDEST PUSH0 PUSH0 REVERT JUMPDEST PUSH0 PUSH0 REVERT JUMPDEST PUSH0 PUSH32 0xFFFFFFFF00000000000000000000000000000000000000000000000000000000 DUP3 AND SWAP1 POP SWAP2 SWAP1 POP JUMP JUMPDEST PUSH2 0x39D0 DUP2 PUSH2 0x399C JUMP JUMPDEST DUP2 EQ PUSH2 0x39DA JUMPI PUSH0 PUSH0 REVERT JUMPDEST POP JUMP JUMPDEST PUSH0 DUP2 CALLDATALOAD SWAP1 POP PUSH2 0x39EB DUP2 PUSH2 0x39C7 JUMP JUMPDEST SWAP3 SWAP2 POP POP JUMP JUMPDEST PUSH0 PUSH1 0x20 DUP3 DUP5 SUB SLT ISZERO PUSH2 0x3A06 JUMPI PUSH2 0x3A05 PUSH2 0x3994 JUMP JUMPDEST JUMPDEST PUSH0 PUSH2 0x3A13 DUP5 DUP3 DUP6 ADD PUSH2 0x39DD JUMP JUMPDEST SWAP2 POP POP SWAP3 SWAP2 POP POP JUMP JUMPDEST PUSH0 DUP2 ISZERO ISZERO SWAP1 POP SWAP2 SWAP1 POP JUMP JUMPDEST PUSH2 0x3A30 DUP2 PUSH2 0x3A1C JUMP JUMPDEST DUP3 MSTORE POP POP JUMP JUMPDEST PUSH0 PUSH1 0x20 DUP3 ADD SWAP1 POP PUSH2 0x3A49 PUSH0 DUP4 ADD DUP5 PUSH2 0x3A27 JUMP JUMPDEST SWAP3 SWAP2 POP POP JUMP JUMPDEST PUSH0 PUSH20 0xFFFFFFFFFFFFFFFFFFFFFFFFFFFFFFFFFFFFFFFF DUP3 AND SWAP1 POP SWAP2 SWAP1 POP JUMP JUMPDEST PUSH0 PUSH2 0x3A78 DUP3 PUSH2 0x3A4F JUMP JUMPDEST SWAP1 POP SWAP2 SWAP1 POP JUMP JUMPDEST PUSH2 0x3A88 DUP2 PUSH2 0x3A6E JUMP JUMPDEST DUP2 EQ PUSH2 0x3A92 JUMPI PUSH0 PUSH0 REVERT JUMPDEST POP JUMP JUMPDEST PUSH0 DUP2 CALLDATALOAD SWAP1 POP PUSH2 0x3AA3 DUP2 PUSH2 0x3A7F JUMP JUMPDEST SWAP3 SWAP2 POP POP JUMP JUMPDEST PUSH0 PUSH1 0x20 DUP3 DUP5 SUB SLT ISZERO PUSH2 0x3ABE JUMPI PUSH2 0x3ABD PUSH2 0x3994 JUMP JUMPDEST JUMPDEST PUSH0 PUSH2 0x3ACB DUP5 DUP3 DUP6 ADD PUSH2 0x3A95 JUMP JUMPDEST SWAP2 POP POP SWAP3 SWAP2 POP POP JUMP JUMPDEST PUSH0 DUP2 SWAP1 POP SWAP2 SWAP1 POP JUMP JUMPDEST PUSH2 0x3AE6 DUP2 PUSH2 0x3AD4 JUMP JUMPDEST DUP3 MSTORE POP POP JUMP JUMPDEST PUSH0 DUP2 SWAP1 POP SWAP2 SWAP1 POP JUMP JUMPDEST PUSH2 0x3AFE DUP2 PUSH2 0x3AEC JUMP JUMPDEST DUP3 MSTORE POP POP JUMP JUMPDEST PUSH0 PUSH1 0x40 DUP3 ADD SWAP1 POP PUSH2 0x3B17 PUSH0 DUP4 ADD DUP6 PUSH2 0x3ADD JUMP JUMPDEST PUSH2 0x3B24 PUSH1 0x20 DUP4 ADD DUP5 PUSH2 0x3AF5 JUMP JUMPDEST SWAP4 SWAP3 POP POP POP JUMP JUMPDEST PUSH2 0x3B34 DUP2 PUSH2 0x3A6E JUMP JUMPDEST DUP3 MSTORE POP POP JUMP JUMPDEST PUSH0 PUSH1 0x20 DUP3 ADD SWAP1 POP PUSH2 0x3B4D PUSH0 DUP4 ADD DUP5 PUSH2 0x3B2B JUMP JUMPDEST SWAP3 SWAP2 POP POP JUMP JUMPDEST PUSH2 0x3B5C DUP2 PUSH2 0x3AD4 JUMP JUMPDEST DUP2 EQ PUSH2 0x3B66 JUMPI PUSH0 PUSH0 REVERT JUMPDEST POP JUMP JUMPDEST PUSH0 DUP2 CALLDATALOAD SWAP1 POP PUSH2 0x3B77 DUP2 PUSH2 0x3B53 JUMP JUMPDEST SWAP3 SWAP2 POP POP JUMP JUMPDEST PUSH0 PUSH1 0x20 DUP3 DUP5 SUB SLT ISZERO PUSH2 0x3B92 JUMPI PUSH2 0x3B91 PUSH2 0x3994 JUMP JUMPDEST JUMPDEST PUSH0 PUSH2 0x3B9F DUP5 DUP3 DUP6 ADD PUSH2 0x3B69 JUMP JUMPDEST SWAP2 POP POP SWAP3 SWAP2 POP POP JUMP JUMPDEST PUSH0 PUSH1 0x20 DUP3 ADD SWAP1 POP PUSH2 0x3BBB PUSH0 DUP4 ADD DUP5 PUSH2 0x3ADD JUMP JUMPDEST SWAP3 SWAP2 POP POP JUMP JUMPDEST PUSH0 PUSH0 PUSH1 0x40 DUP4 DUP6 SUB SLT ISZERO PUSH2 0x3BD7 JUMPI PUSH2 0x3BD6 PUSH2 0x3994 JUMP JUMPDEST JUMPDEST PUSH0 PUSH2 0x3BE4 DUP6 DUP3 DUP7 ADD PUSH2 0x3B69 JUMP JUMPDEST SWAP3 POP POP PUSH1 0x20 PUSH2 0x3BF5 DUP6 DUP3 DUP7 ADD PUSH2 0x3A95 JUMP JUMPDEST SWAP2 POP POP SWAP3 POP SWAP3 SWAP1 POP JUMP JUMPDEST PUSH0 PUSH0 REVERT JUMPDEST PUSH0 PUSH2 0x160 DUP3 DUP5 SUB SLT ISZERO PUSH2 0x3C19 JUMPI PUSH2 0x3C18 PUSH2 0x3BFF JUMP JUMPDEST JUMPDEST DUP2 SWAP1 POP SWAP3 SWAP2 POP POP JUMP JUMPDEST PUSH2 0x3C2B DUP2 PUSH2 0x3AEC JUMP JUMPDEST DUP2 EQ PUSH2 0x3C35 JUMPI PUSH0 PUSH0 REVERT JUMPDEST POP JUMP JUMPDEST PUSH0 DUP2 CALLDATALOAD SWAP1 POP PUSH2 0x3C46 DUP2 PUSH2 0x3C22 JUMP JUMPDEST SWAP3 SWAP2 POP POP JUMP JUMPDEST PUSH0 PUSH0 PUSH0 PUSH1 0x60 DUP5 DUP7 SUB SLT ISZERO PUSH2 0x3C63 JUMPI PUSH2 0x3C62 PUSH2 0x3994 JUMP JUMPDEST JUMPDEST PUSH0 DUP5 ADD CALLDATALOAD PUSH8 0xFFFFFFFFFFFFFFFF DUP2 GT ISZERO PUSH2 0x3C80 JUMPI PUSH2 0x3C7F PUSH2 0x3998 JUMP JUMPDEST JUMPDEST PUSH2 0x3C8C DUP7 DUP3 DUP8 ADD PUSH2 0x3C03 JUMP JUMPDEST SWAP4 POP POP PUSH1 0x20 PUSH2 0x3C9D DUP7 DUP3 DUP8 ADD PUSH2 0x3B69 JUMP JUMPDEST SWAP3 POP POP PUSH1 0x40 PUSH2 0x3CAE DUP7 DUP3 DUP8 ADD PUSH2 0x3C38 JUMP JUMPDEST SWAP2 POP POP SWAP3 POP SWAP3 POP SWAP3 JUMP JUMPDEST PUSH0 PUSH1 0x20 DUP3 ADD SWAP1 POP PUSH2 0x3CCB PUSH0 DUP4 ADD DUP5 PUSH2 0x3AF5 JUMP JUMPDEST SWAP3 SWAP2 POP POP JUMP JUMPDEST PUSH0 PUSH8 0xFFFFFFFFFFFFFFFF DUP3 AND SWAP1 POP SWAP2 SWAP1 POP JUMP JUMPDEST PUSH2 0x3CED DUP2 PUSH2 0x3CD1 JUMP JUMPDEST DUP3 MSTORE POP POP JUMP JUMPDEST PUSH0 PUSH1 0x20 DUP3 ADD SWAP1 POP PUSH2 0x3D06 PUSH0 DUP4 ADD DUP5 PUSH2 0x3CE4 JUMP JUMPDEST SWAP3 SWAP2 POP POP JUMP JUMPDEST PUSH0 PUSH0 REVERT JUMPDEST PUSH0 PUSH0 REVERT JUMPDEST PUSH0 PUSH1 0x1F NOT PUSH1 0x1F DUP4 ADD AND SWAP1 POP SWAP2 SWAP1 POP JUMP JUMPDEST PUSH32 0x4E487B7100000000000000000000000000000000000000000000000000000000 PUSH0 MSTORE PUSH1 0x41 PUSH1 0x4 MSTORE PUSH1 0x24 PUSH0 REVERT JUMPDEST PUSH2 0x3D5A DUP3 PUSH2 0x3D14 JUMP JUMPDEST DUP2 ADD DUP2 DUP2 LT PUSH8 0xFFFFFFFFFFFFFFFF DUP3 GT OR ISZERO PUSH2 0x3D79 JUMPI PUSH2 0x3D78 PUSH2 0x3D24 JUMP JUMPDEST JUMPDEST DUP1 PUSH1 0x40 MSTORE POP POP POP JUMP JUMPDEST PUSH0 PUSH2 0x3D8B PUSH2 0x398B JUMP JUMPDEST SWAP1 POP PUSH2 0x3D97 DUP3 DUP3 PUSH2 0x3D51 JUMP JUMPDEST SWAP2 SWAP1 POP JUMP JUMPDEST PUSH0 PUSH8 0xFFFFFFFFFFFFFFFF DUP3 GT ISZERO PUSH2 0x3DB6 JUMPI PUSH2 0x3DB5 PUSH2 0x3D24 JUMP JUMPDEST JUMPDEST PUSH2 0x3DBF DUP3 PUSH2 0x3D14 JUMP JUMPDEST SWAP1 POP PUSH1 0x20 DUP2 ADD SWAP1 POP SWAP2 SWAP1 POP JUMP JUMPDEST DUP3 DUP2 DUP4 CALLDATACOPY PUSH0 DUP4 DUP4 ADD MSTORE POP POP POP JUMP JUMPDEST PUSH0 PUSH2 0x3DEC PUSH2 0x3DE7 DUP5 PUSH2 0x3D9C JUMP JUMPDEST PUSH2 0x3D82 JUMP JUMPDEST SWAP1 POP DUP3 DUP2 MSTORE PUSH1 0x20 DUP2 ADD DUP5 DUP5 DUP5 ADD GT ISZERO PUSH2 0x3E08 JUMPI PUSH2 0x3E07 PUSH2 0x3D10 JUMP JUMPDEST JUMPDEST PUSH2 0x3E13 DUP5 DUP3 DUP6 PUSH2 0x3DCC JUMP JUMPDEST POP SWAP4 SWAP3 POP POP POP JUMP JUMPDEST PUSH0 DUP3 PUSH1 0x1F DUP4 ADD SLT PUSH2 0x3E2F JUMPI PUSH2 0x3E2E PUSH2 0x3D0C JUMP JUMPDEST JUMPDEST DUP2 CALLDATALOAD PUSH2 0x3E3F DUP5 DUP3 PUSH1 0x20 DUP7 ADD PUSH2 0x3DDA JUMP JUMPDEST SWAP2 POP POP SWAP3 SWAP2 POP POP JUMP JUMPDEST PUSH0 PUSH0 PUSH1 0x40 DUP4 DUP6 SUB SLT ISZERO PUSH2 0x3E5E JUMPI PUSH2 0x3E5D PUSH2 0x3994 JUMP JUMPDEST JUMPDEST PUSH0 PUSH2 0x3E6B DUP6 DUP3 DUP7 ADD PUSH2 0x3A95 JUMP JUMPDEST SWAP3 POP POP PUSH1 0x20 DUP4 ADD CALLDATALOAD PUSH8 0xFFFFFFFFFFFFFFFF DUP2 GT ISZERO PUSH2 0x3E8C JUMPI PUSH2 0x3E8B PUSH2 0x3998 JUMP JUMPDEST JUMPDEST PUSH2 0x3E98 DUP6 DUP3 DUP7 ADD PUSH2 0x3E1B JUMP JUMPDEST SWAP2 POP POP SWAP3 POP SWAP3 SWAP1 POP JUMP JUMPDEST PUSH0 PUSH32 0xFF00000000000000000000000000000000000000000000000000000000000000 DUP3 AND SWAP1 POP SWAP2 SWAP1 POP JUMP JUMPDEST PUSH2 0x3ED6 DUP2 PUSH2 0x3EA2 JUMP JUMPDEST DUP3 MSTORE POP POP JUMP JUMPDEST PUSH0 DUP2 MLOAD SWAP1 POP SWAP2 SWAP1 POP JUMP JUMPDEST PUSH0 DUP3 DUP3 MSTORE PUSH1 0x20 DUP3 ADD SWAP1 POP SWAP3 SWAP2 POP POP JUMP JUMPDEST DUP3 DUP2 DUP4 MCOPY PUSH0 DUP4 DUP4 ADD MSTORE POP POP POP JUMP JUMPDEST PUSH0 PUSH2 0x3F0E DUP3 PUSH2 0x3EDC JUMP JUMPDEST PUSH2 0x3F18 DUP2 DUP6 PUSH2 0x3EE6 JUMP JUMPDEST SWAP4 POP PUSH2 0x3F28 DUP2 DUP6 PUSH1 0x20 DUP7 ADD PUSH2 0x3EF6 JUMP JUMPDEST PUSH2 0x3F31 DUP2 PUSH2 0x3D14 JUMP JUMPDEST DUP5 ADD SWAP2 POP POP SWAP3 SWAP2 POP POP JUMP JUMPDEST PUSH0 DUP2 MLOAD SWAP1 POP SWAP2 SWAP1 POP JUMP JUMPDEST PUSH0 DUP3 DUP3 MSTORE PUSH1 0x20 DUP3 ADD SWAP1 POP SWAP3 SWAP2 POP POP JUMP JUMPDEST PUSH0 DUP2 SWAP1 POP PUSH1 0x20 DUP3 ADD SWAP1 POP SWAP2 SWAP1 POP JUMP JUMPDEST PUSH2 0x3F6E DUP2 PUSH2 0x3AEC JUMP JUMPDEST DUP3 MSTORE POP POP JUMP JUMPDEST PUSH0 PUSH2 0x3F7F DUP4 DUP4 PUSH2 0x3F65 JUMP JUMPDEST PUSH1 0x20 DUP4 ADD SWAP1 POP SWAP3 SWAP2 POP POP JUMP JUMPDEST PUSH0 PUSH1 0x20 DUP3 ADD SWAP1 POP SWAP2 SWAP1 POP JUMP JUMPDEST PUSH0 PUSH2 0x3FA1 DUP3 PUSH2 0x3F3C JUMP JUMPDEST PUSH2 0x3FAB DUP2 DUP6 PUSH2 0x3F46 JUMP JUMPDEST SWAP4 POP PUSH2 0x3FB6 DUP4 PUSH2 0x3F56 JUMP JUMPDEST DUP1 PUSH0 JUMPDEST DUP4 DUP2 LT ISZERO PUSH2 0x3FE6 JUMPI DUP2 MLOAD PUSH2 0x3FCD DUP9 DUP3 PUSH2 0x3F74 JUMP JUMPDEST SWAP8 POP PUSH2 0x3FD8 DUP4 PUSH2 0x3F8B JUMP JUMPDEST SWAP3 POP POP PUSH1 0x1 DUP2 ADD SWAP1 POP PUSH2 0x3FB9 JUMP JUMPDEST POP DUP6 SWAP4 POP POP POP POP SWAP3 SWAP2 POP POP JUMP JUMPDEST PUSH0 PUSH1 0xE0 DUP3 ADD SWAP1 POP PUSH2 0x4006 PUSH0 DUP4 ADD DUP11 PUSH2 0x3ECD JUMP JUMPDEST DUP2 DUP2 SUB PUSH1 0x20 DUP4 ADD MSTORE PUSH2 0x4018 DUP2 DUP10 PUSH2 0x3F04 JUMP JUMPDEST SWAP1 POP DUP2 DUP2 SUB PUSH1 0x40 DUP4 ADD MSTORE PUSH2 0x402C DUP2 DUP9 PUSH2 0x3F04 JUMP JUMPDEST SWAP1 POP PUSH2 0x403B PUSH1 0x60 DUP4 ADD DUP8 PUSH2 0x3AF5 JUMP JUMPDEST PUSH2 0x4048 PUSH1 0x80 DUP4 ADD DUP7 PUSH2 0x3B2B JUMP JUMPDEST PUSH2 0x4055 PUSH1 0xA0 DUP4 ADD DUP6 PUSH2 0x3ADD JUMP JUMPDEST DUP2 DUP2 SUB PUSH1 0xC0 DUP4 ADD MSTORE PUSH2 0x4067 DUP2 DUP5 PUSH2 0x3F97 JUMP JUMPDEST SWAP1 POP SWAP9 SWAP8 POP POP POP POP POP POP POP POP JUMP JUMPDEST PUSH0 PUSH1 0x20 DUP3 ADD SWAP1 POP DUP2 DUP2 SUB PUSH0 DUP4 ADD MSTORE PUSH2 0x408D DUP2 DUP5 PUSH2 0x3F04 JUMP JUMPDEST SWAP1 POP SWAP3 SWAP2 POP POP JUMP JUMPDEST PUSH2 0x409E DUP2 PUSH2 0x3A1C JUMP JUMPDEST DUP2 EQ PUSH2 0x40A8 JUMPI PUSH0 PUSH0 REVERT JUMPDEST POP JUMP JUMPDEST PUSH0 DUP2 CALLDATALOAD SWAP1 POP PUSH2 0x40B9 DUP2 PUSH2 0x4095 JUMP JUMPDEST SWAP3 SWAP2 POP POP JUMP JUMPDEST PUSH0 PUSH1 0x20 DUP3 DUP5 SUB SLT ISZERO PUSH2 0x40D4 JUMPI PUSH2 0x40D3 PUSH2 0x3994 JUMP JUMPDEST JUMPDEST PUSH0 PUSH2 0x40E1 DUP5 DUP3 DUP6 ADD PUSH2 0x40AB JUMP JUMPDEST SWAP2 POP POP SWAP3 SWAP2 POP POP JUMP JUMPDEST PUSH0 PUSH0 REVERT JUMPDEST PUSH0 PUSH0 REVERT JUMPDEST PUSH2 0x40FB DUP2 PUSH2 0x3CD1 JUMP JUMPDEST DUP2 EQ PUSH2 0x4105 JUMPI PUSH0 PUSH0 REVERT JUMPDEST POP JUMP JUMPDEST PUSH0 DUP2 CALLDATALOAD SWAP1 POP PUSH2 0x4116 DUP2 PUSH2 0x40F2 JUMP JUMPDEST SWAP3 SWAP2 POP POP JUMP JUMPDEST PUSH0 PUSH8 0xFFFFFFFFFFFFFFFF DUP3 GT ISZERO PUSH2 0x4136 JUMPI PUSH2 0x4135 PUSH2 0x3D24 JUMP JUMPDEST JUMPDEST PUSH1 0x20 DUP3 MUL SWAP1 POP PUSH1 0x20 DUP2 ADD SWAP1 POP SWAP2 SWAP1 POP JUMP JUMPDEST PUSH0 PUSH0 REVERT JUMPDEST PUSH0 PUSH2 0x415D PUSH2 0x4158 DUP5 PUSH2 0x411C JUMP JUMPDEST PUSH2 0x3D82 JUMP JUMPDEST SWAP1 POP DUP1 DUP4 DUP3 MSTORE PUSH1 0x20 DUP3 ADD SWAP1 POP PUSH1 0x20 DUP5 MUL DUP4 ADD DUP6 DUP2 GT ISZERO PUSH2 0x4180 JUMPI PUSH2 0x417F PUSH2 0x4147 JUMP JUMPDEST JUMPDEST DUP4 JUMPDEST DUP2 DUP2 LT ISZERO PUSH2 0x41A9 JUMPI DUP1 PUSH2 0x4195 DUP9 DUP3 PUSH2 0x3A95 JUMP JUMPDEST DUP5 MSTORE PUSH1 0x20 DUP5 ADD SWAP4 POP POP PUSH1 0x20 DUP2 ADD SWAP1 POP PUSH2 0x4182 JUMP JUMPDEST POP POP POP SWAP4 SWAP3 POP POP POP JUMP JUMPDEST PUSH0 DUP3 PUSH1 0x1F DUP4 ADD SLT PUSH2 0x41C7 JUMPI PUSH2 0x41C6 PUSH2 0x3D0C JUMP JUMPDEST JUMPDEST DUP2 CALLDATALOAD PUSH2 0x41D7 DUP5 DUP3 PUSH1 0x20 DUP7 ADD PUSH2 0x414B JUMP JUMPDEST SWAP2 POP POP SWAP3 SWAP2 POP POP JUMP JUMPDEST PUSH0 PUSH2 0x41EA DUP3 PUSH2 0x3A4F JUMP JUMPDEST SWAP1 POP SWAP2 SWAP1 POP JUMP JUMPDEST PUSH2 0x41FA DUP2 PUSH2 0x41E0 JUMP JUMPDEST DUP2 EQ PUSH2 0x4204 JUMPI PUSH0 PUSH0 REVERT JUMPDEST POP JUMP JUMPDEST PUSH0 DUP2 CALLDATALOAD SWAP1 POP PUSH2 0x4215 DUP2 PUSH2 0x41F1 JUMP JUMPDEST SWAP3 SWAP2 POP POP JUMP JUMPDEST PUSH0 PUSH2 0x160 DUP3 DUP5 SUB SLT ISZERO PUSH2 0x4231 JUMPI PUSH2 0x4230 PUSH2 0x40EA JUMP JUMPDEST JUMPDEST PUSH2 0x423C PUSH2 0x160 PUSH2 0x3D82 JUMP JUMPDEST SWAP1 POP PUSH0 PUSH2 0x424B DUP5 DUP3 DUP6 ADD PUSH2 0x3A95 JUMP JUMPDEST PUSH0 DUP4 ADD MSTORE POP PUSH1 0x20 PUSH2 0x425E DUP5 DUP3 DUP6 ADD PUSH2 0x4108 JUMP JUMPDEST PUSH1 0x20 DUP4 ADD MSTORE POP PUSH1 0x40 PUSH2 0x4272 DUP5 DUP3 DUP6 ADD PUSH2 0x4108 JUMP JUMPDEST PUSH1 0x40 DUP4 ADD MSTORE POP PUSH1 0x60 DUP3 ADD CALLDATALOAD PUSH8 0xFFFFFFFFFFFFFFFF DUP2 GT ISZERO PUSH2 0x4296 JUMPI PUSH2 0x4295 PUSH2 0x40EE JUMP JUMPDEST JUMPDEST PUSH2 0x42A2 DUP5 DUP3 DUP6 ADD PUSH2 0x41B3 JUMP JUMPDEST PUSH1 0x60 DUP4 ADD MSTORE POP PUSH1 0x80 DUP3 ADD CALLDATALOAD PUSH8 0xFFFFFFFFFFFFFFFF DUP2 GT ISZERO PUSH2 0x42C6 JUMPI PUSH2 0x42C5 PUSH2 0x40EE JUMP JUMPDEST JUMPDEST PUSH2 0x42D2 DUP5 DUP3 DUP6 ADD PUSH2 0x41B3 JUMP JUMPDEST PUSH1 0x80 DUP4 ADD MSTORE POP PUSH1 0xA0 DUP3 ADD CALLDATALOAD PUSH8 0xFFFFFFFFFFFFFFFF DUP2 GT ISZERO PUSH2 0x42F6 JUMPI PUSH2 0x42F5 PUSH2 0x40EE JUMP JUMPDEST JUMPDEST PUSH2 0x4302 DUP5 DUP3 DUP6 ADD PUSH2 0x41B3 JUMP JUMPDEST PUSH1 0xA0 DUP4 ADD MSTORE POP PUSH1 0xC0 DUP3 ADD CALLDATALOAD PUSH8 0xFFFFFFFFFFFFFFFF DUP2 GT ISZERO PUSH2 0x4326 JUMPI PUSH2 0x4325 PUSH2 0x40EE JUMP JUMPDEST JUMPDEST PUSH2 0x4332 DUP5 DUP3 DUP6 ADD PUSH2 0x41B3 JUMP JUMPDEST PUSH1 0xC0 DUP4 ADD MSTORE POP PUSH1 0xE0 DUP3 ADD CALLDATALOAD PUSH8 0xFFFFFFFFFFFFFFFF DUP2 GT ISZERO PUSH2 0x4356 JUMPI PUSH2 0x4355 PUSH2 0x40EE JUMP JUMPDEST JUMPDEST PUSH2 0x4362 DUP5 DUP3 DUP6 ADD PUSH2 0x41B3 JUMP JUMPDEST PUSH1 0xE0 DUP4 ADD MSTORE POP PUSH2 0x100 PUSH2 0x4377 DUP5 DUP3 DUP6 ADD PUSH2 0x3A95 JUMP JUMPDEST PUSH2 0x100 DUP4 ADD MSTORE POP PUSH2 0x120 PUSH2 0x438D DUP5 DUP3 DUP6 ADD PUSH2 0x3A95 JUMP JUMPDEST PUSH2 0x120 DUP4 ADD MSTORE POP PUSH2 0x140 PUSH2 0x43A3 DUP5 DUP3 DUP6 ADD PUSH2 0x4207 JUMP JUMPDEST PUSH2 0x140 DUP4 ADD MSTORE POP SWAP3 SWAP2 POP POP JUMP JUMPDEST PUSH0 PUSH1 0x20 DUP3 DUP5 SUB SLT ISZERO PUSH2 0x43C5 JUMPI PUSH2 0x43C4 PUSH2 0x3994 JUMP JUMPDEST JUMPDEST PUSH0 DUP3 ADD CALLDATALOAD PUSH8 0xFFFFFFFFFFFFFFFF DUP2 GT ISZERO PUSH2 0x43E2 JUMPI PUSH2 0x43E1 PUSH2 0x3998 JUMP JUMPDEST JUMPDEST PUSH2 0x43EE DUP5 DUP3 DUP6 ADD PUSH2 0x421B JUMP JUMPDEST SWAP2 POP POP SWAP3 SWAP2 POP POP JUMP JUMPDEST PUSH2 0x4400 DUP2 PUSH2 0x41E0 JUMP JUMPDEST DUP3 MSTORE POP POP JUMP JUMPDEST PUSH0 PUSH1 0x20 DUP3 ADD SWAP1 POP PUSH2 0x4419 PUSH0 DUP4 ADD DUP5 PUSH2 0x43F7 JUMP JUMPDEST SWAP3 SWAP2 POP POP JUMP JUMPDEST PUSH0 PUSH0 REVERT JUMPDEST PUSH0 PUSH0 DUP4 PUSH1 0x1F DUP5 ADD SLT PUSH2 0x4438 JUMPI PUSH2 0x4437 PUSH2 0x3D0C JUMP JUMPDEST JUMPDEST DUP3 CALLDATALOAD SWAP1 POP PUSH8 0xFFFFFFFFFFFFFFFF DUP2 GT ISZERO PUSH2 0x4455 JUMPI PUSH2 0x4454 PUSH2 0x441F JUMP JUMPDEST JUMPDEST PUSH1 0x20 DUP4 ADD SWAP2 POP DUP4 PUSH1 0x20 DUP3 MUL DUP4 ADD GT ISZERO PUSH2 0x4471 JUMPI PUSH2 0x4470 PUSH2 0x4147 JUMP JUMPDEST JUMPDEST SWAP3 POP SWAP3 SWAP1 POP JUMP JUMPDEST PUSH0 PUSH0 PUSH0 PUSH0 PUSH1 0x60 DUP6 DUP8 SUB SLT ISZERO PUSH2 0x4490 JUMPI PUSH2 0x448F PUSH2 0x3994 JUMP JUMPDEST JUMPDEST PUSH0 DUP6 ADD CALLDATALOAD PUSH8 0xFFFFFFFFFFFFFFFF DUP2 GT ISZERO PUSH2 0x44AD JUMPI PUSH2 0x44AC PUSH2 0x3998 JUMP JUMPDEST JUMPDEST PUSH2 0x44B9 DUP8 DUP3 DUP9 ADD PUSH2 0x4423 JUMP JUMPDEST SWAP5 POP SWAP5 POP POP PUSH1 0x20 PUSH2 0x44CC DUP8 DUP3 DUP9 ADD PUSH2 0x3C38 JUMP JUMPDEST SWAP3 POP POP PUSH1 0x40 PUSH2 0x44DD DUP8 DUP3 DUP9 ADD PUSH2 0x3B69 JUMP JUMPDEST SWAP2 POP POP SWAP3 SWAP6 SWAP2 SWAP5 POP SWAP3 POP JUMP JUMPDEST PUSH32 0x4F6E6C7920456E747279506F696E740000000000000000000000000000000000 PUSH0 DUP3 ADD MSTORE POP JUMP JUMPDEST PUSH0 PUSH2 0x451D PUSH1 0xF DUP4 PUSH2 0x3EE6 JUMP JUMPDEST SWAP2 POP PUSH2 0x4528 DUP3 PUSH2 0x44E9 JUMP JUMPDEST PUSH1 0x20 DUP3 ADD SWAP1 POP SWAP2 SWAP1 POP JUMP JUMPDEST PUSH0 PUSH1 0x20 DUP3 ADD SWAP1 POP DUP2 DUP2 SUB PUSH0 DUP4 ADD MSTORE PUSH2 0x454A DUP2 PUSH2 0x4511 JUMP JUMPDEST SWAP1 POP SWAP2 SWAP1 POP JUMP JUMPDEST PUSH32 0x5573657220626C61636B6C697374656400000000000000000000000000000000 PUSH0 DUP3 ADD MSTORE POP JUMP JUMPDEST PUSH0 PUSH2 0x4585 PUSH1 0x10 DUP4 PUSH2 0x3EE6 JUMP JUMPDEST SWAP2 POP PUSH2 0x4590 DUP3 PUSH2 0x4551 JUMP JUMPDEST PUSH1 0x20 DUP3 ADD SWAP1 POP SWAP2 SWAP1 POP JUMP JUMPDEST PUSH0 PUSH1 0x20 DUP3 ADD SWAP1 POP DUP2 DUP2 SUB PUSH0 DUP4 ADD MSTORE PUSH2 0x45B2 DUP2 PUSH2 0x4579 JUMP JUMPDEST SWAP1 POP SWAP2 SWAP1 POP JUMP JUMPDEST PUSH0 PUSH2 0x45C7 PUSH1 0x20 DUP5 ADD DUP5 PUSH2 0x3A95 JUMP JUMPDEST SWAP1 POP SWAP3 SWAP2 POP POP JUMP JUMPDEST PUSH2 0x45D8 DUP2 PUSH2 0x3A6E JUMP JUMPDEST DUP3 MSTORE POP POP JUMP JUMPDEST PUSH0 PUSH2 0x45EC PUSH1 0x20 DUP5 ADD DUP5 PUSH2 0x3C38 JUMP JUMPDEST SWAP1 POP SWAP3 SWAP2 POP POP JUMP JUMPDEST PUSH0 PUSH0 REVERT JUMPDEST PUSH0 PUSH0 REVERT JUMPDEST PUSH0 PUSH0 REVERT JUMPDEST PUSH0 PUSH0 DUP4 CALLDATALOAD PUSH1 0x1 PUSH1 0x20 SUB DUP5 CALLDATASIZE SUB SUB DUP2 SLT PUSH2 0x461C JUMPI PUSH2 0x461B PUSH2 0x45FC JUMP JUMPDEST JUMPDEST DUP4 DUP2 ADD SWAP3 POP DUP3 CALLDATALOAD SWAP2 POP PUSH1 0x20 DUP4 ADD SWAP3 POP PUSH8 0xFFFFFFFFFFFFFFFF DUP3 GT ISZERO PUSH2 0x4644 JUMPI PUSH2 0x4643 PUSH2 0x45F4 JUMP JUMPDEST JUMPDEST PUSH1 0x1 DUP3 MUL CALLDATASIZE SUB DUP4 SGT ISZERO PUSH2 0x465A JUMPI PUSH2 0x4659 PUSH2 0x45F8 JUMP JUMPDEST JUMPDEST POP SWAP3 POP SWAP3 SWAP1 POP JUMP JUMPDEST PUSH0 DUP3 DUP3 MSTORE PUSH1 0x20 DUP3 ADD SWAP1 POP SWAP3 SWAP2 POP POP JUMP JUMPDEST PUSH0 PUSH2 0x467D DUP4 DUP6 PUSH2 0x4662 JUMP JUMPDEST SWAP4 POP PUSH2 0x468A DUP4 DUP6 DUP5 PUSH2 0x3DCC JUMP JUMPDEST PUSH2 0x4693 DUP4 PUSH2 0x3D14 JUMP JUMPDEST DUP5 ADD SWAP1 POP SWAP4 SWAP3 POP POP POP JUMP JUMPDEST PUSH0 PUSH2 0x160 DUP4 ADD PUSH2 0x46B0 PUSH0 DUP5 ADD DUP5 PUSH2 0x45B9 JUMP JUMPDEST PUSH2 0x46BC PUSH0 DUP7 ADD DUP3 PUSH2 0x45CF JUMP JUMPDEST POP PUSH2 0x46CA PUSH1 0x20 DUP5 ADD DUP5 PUSH2 0x45DE JUMP JUMPDEST PUSH2 0x46D7 PUSH1 0x20 DUP7 ADD DUP3 PUSH2 0x3F65 JUMP JUMPDEST POP PUSH2 0x46E5 PUSH1 0x40 DUP5 ADD DUP5 PUSH2 0x4600 JUMP JUMPDEST DUP6 DUP4 SUB PUSH1 0x40 DUP8 ADD MSTORE PUSH2 0x46F8 DUP4 DUP3 DUP5 PUSH2 0x4672 JUMP JUMPDEST SWAP3 POP POP POP PUSH2 0x4709 PUSH1 0x60 DUP5 ADD DUP5 PUSH2 0x4600 JUMP JUMPDEST DUP6 DUP4 SUB PUSH1 0x60 DUP8 ADD MSTORE PUSH2 0x471C DUP4 DUP3 DUP5 PUSH2 0x4672 JUMP JUMPDEST SWAP3 POP POP POP PUSH2 0x472D PUSH1 0x80 DUP5 ADD DUP5 PUSH2 0x45DE JUMP JUMPDEST PUSH2 0x473A PUSH1 0x80 DUP7 ADD DUP3 PUSH2 0x3F65 JUMP JUMPDEST POP PUSH2 0x4748 PUSH1 0xA0 DUP5 ADD DUP5 PUSH2 0x45DE JUMP JUMPDEST PUSH2 0x4755 PUSH1 0xA0 DUP7 ADD DUP3 PUSH2 0x3F65 JUMP JUMPDEST POP PUSH2 0x4763 PUSH1 0xC0 DUP5 ADD DUP5 PUSH2 0x45DE JUMP JUMPDEST PUSH2 0x4770 PUSH1 0xC0 DUP7 ADD DUP3 PUSH2 0x3F65 JUMP JUMPDEST POP PUSH2 0x477E PUSH1 0xE0 DUP5 ADD DUP5 PUSH2 0x45DE JUMP JUMPDEST PUSH2 0x478B PUSH1 0xE0 DUP7 ADD DUP3 PUSH2 0x3F65 JUMP JUMPDEST POP PUSH2 0x479A PUSH2 0x100 DUP5 ADD DUP5 PUSH2 0x45DE JUMP JUMPDEST PUSH2 0x47A8 PUSH2 0x100 DUP7 ADD DUP3 PUSH2 0x3F65 JUMP JUMPDEST POP PUSH2 0x47B7 PUSH2 0x120 DUP5 ADD DUP5 PUSH2 0x4600 JUMP JUMPDEST DUP6 DUP4 SUB PUSH2 0x120 DUP8 ADD MSTORE PUSH2 0x47CB DUP4 DUP3 DUP5 PUSH2 0x4672 JUMP JUMPDEST SWAP3 POP POP POP PUSH2 0x47DD PUSH2 0x140 DUP5 ADD DUP5 PUSH2 0x4600 JUMP JUMPDEST DUP6 DUP4 SUB PUSH2 0x140 DUP8 ADD MSTORE PUSH2 0x47F1 DUP4 DUP3 DUP5 PUSH2 0x4672 JUMP JUMPDEST SWAP3 POP POP POP DUP1 SWAP2 POP POP SWAP3 SWAP2 POP POP JUMP JUMPDEST PUSH0 PUSH1 0x20 DUP3 ADD SWAP1 POP DUP2 DUP2 SUB PUSH0 DUP4 ADD MSTORE PUSH2 0x4817 DUP2 DUP5 PUSH2 0x469E JUMP JUMPDEST SWAP1 POP SWAP3 SWAP2 POP POP JUMP JUMPDEST PUSH0 DUP2 MLOAD SWAP1 POP PUSH2 0x482D DUP2 PUSH2 0x3B53 JUMP JUMPDEST SWAP3 SWAP2 POP POP JUMP JUMPDEST PUSH0 PUSH1 0x20 DUP3 DUP5 SUB SLT ISZERO PUSH2 0x4848 JUMPI PUSH2 0x4847 PUSH2 0x3994 JUMP JUMPDEST JUMPDEST PUSH0 PUSH2 0x4855 DUP5 DUP3 DUP6 ADD PUSH2 0x481F JUMP JUMPDEST SWAP2 POP POP SWAP3 SWAP2 POP POP JUMP JUMPDEST PUSH32 0x496E76616C696420686173680000000000000000000000000000000000000000 PUSH0 DUP3 ADD MSTORE POP JUMP JUMPDEST PUSH0 PUSH2 0x4892 PUSH1 0xC DUP4 PUSH2 0x3EE6 JUMP JUMPDEST SWAP2 POP PUSH2 0x489D DUP3 PUSH2 0x485E JUMP JUMPDEST PUSH1 0x20 DUP3 ADD SWAP1 POP SWAP2 SWAP1 POP JUMP JUMPDEST PUSH0 PUSH1 0x20 DUP3 ADD SWAP1 POP DUP2 DUP2 SUB PUSH0 DUP4 ADD MSTORE PUSH2 0x48BF DUP2 PUSH2 0x4886 JUMP JUMPDEST SWAP1 POP SWAP2 SWAP1 POP JUMP JUMPDEST PUSH32 0x496E76616C6964206E6F6E636500000000000000000000000000000000000000 PUSH0 DUP3 ADD MSTORE POP JUMP JUMPDEST PUSH0 PUSH2 0x48FA PUSH1 0xD DUP4 PUSH2 0x3EE6 JUMP JUMPDEST SWAP2 POP PUSH2 0x4905 DUP3 PUSH2 0x48C6 JUMP JUMPDEST PUSH1 0x20 DUP3 ADD SWAP1 POP SWAP2 SWAP1 POP JUMP JUMPDEST PUSH0 PUSH1 0x20 DUP3 ADD SWAP1 POP DUP2 DUP2 SUB PUSH0 DUP4 ADD MSTORE PUSH2 0x4927 DUP2 PUSH2 0x48EE JUMP JUMPDEST SWAP1 POP SWAP2 SWAP1 POP JUMP JUMPDEST PUSH0 PUSH0 REVERT JUMPDEST PUSH0 PUSH0 REVERT JUMPDEST PUSH0 PUSH0 REVERT JUMPDEST PUSH0 PUSH0 DUP4 CALLDATALOAD PUSH1 0x1 PUSH1 0x20 SUB DUP5 CALLDATASIZE SUB SUB DUP2 SLT PUSH2 0x4956 JUMPI PUSH2 0x4955 PUSH2 0x492E JUMP JUMPDEST JUMPDEST DUP1 DUP5 ADD SWAP3 POP DUP3 CALLDATALOAD SWAP2 POP PUSH8 0xFFFFFFFFFFFFFFFF DUP3 GT ISZERO PUSH2 0x4978 JUMPI PUSH2 0x4977 PUSH2 0x4932 JUMP JUMPDEST JUMPDEST PUSH1 0x20 DUP4 ADD SWAP3 POP PUSH1 0x1 DUP3 MUL CALLDATASIZE SUB DUP4 SGT ISZERO PUSH2 0x4994 JUMPI PUSH2 0x4993 PUSH2 0x4936 JUMP JUMPDEST JUMPDEST POP SWAP3 POP SWAP3 SWAP1 POP JUMP JUMPDEST PUSH32 0x496E76616C6964204543445341207369676E6174757265000000000000000000 PUSH0 DUP3 ADD MSTORE POP JUMP JUMPDEST PUSH0 PUSH2 0x49D0 PUSH1 0x17 DUP4 PUSH2 0x3EE6 JUMP JUMPDEST SWAP2 POP PUSH2 0x49DB DUP3 PUSH2 0x499C JUMP JUMPDEST PUSH1 0x20 DUP3 ADD SWAP1 POP SWAP2 SWAP1 POP JUMP JUMPDEST PUSH0 PUSH1 0x20 DUP3 ADD SWAP1 POP DUP2 DUP2 SUB PUSH0 DUP4 ADD MSTORE PUSH2 0x49FD DUP2 PUSH2 0x49C4 JUMP JUMPDEST SWAP1 POP SWAP2 SWAP1 POP JUMP JUMPDEST PUSH0 DUP2 SWAP1 POP SWAP3 SWAP2 POP POP JUMP JUMPDEST PUSH0 PUSH2 0x4A19 DUP4 DUP6 PUSH2 0x4A04 JUMP JUMPDEST SWAP4 POP PUSH2 0x4A26 DUP4 DUP6 DUP5 PUSH2 0x3DCC JUMP JUMPDEST DUP3 DUP5 ADD SWAP1 POP SWAP4 SWAP3 POP POP POP JUMP JUMPDEST PUSH0 PUSH2 0x4A3E DUP3 DUP5 DUP7 PUSH2 0x4A0E JUMP JUMPDEST SWAP2 POP DUP2 SWAP1 POP SWAP4 SWAP3 POP POP POP JUMP JUMPDEST PUSH0 PUSH2 0x120 DUP3 ADD SWAP1 POP PUSH2 0x4A5E PUSH0 DUP4 ADD DUP13 PUSH2 0x3ADD JUMP JUMPDEST PUSH2 0x4A6B PUSH1 0x20 DUP4 ADD DUP12 PUSH2 0x3B2B JUMP JUMPDEST PUSH2 0x4A78 PUSH1 0x40 DUP4 ADD DUP11 PUSH2 0x3AF5 JUMP JUMPDEST PUSH2 0x4A85 PUSH1 0x60 DUP4 ADD DUP10 PUSH2 0x3ADD JUMP JUMPDEST PUSH2 0x4A92 PUSH1 0x80 DUP4 ADD DUP9 PUSH2 0x3AF5 JUMP JUMPDEST PUSH2 0x4A9F PUSH1 0xA0 DUP4 ADD DUP8 PUSH2 0x3AF5 JUMP JUMPDEST PUSH2 0x4AAC PUSH1 0xC0 DUP4 ADD DUP7 PUSH2 0x3AF5 JUMP JUMPDEST PUSH2 0x4AB9 PUSH1 0xE0 DUP4 ADD DUP6 PUSH2 0x3AF5 JUMP JUMPDEST PUSH2 0x4AC7 PUSH2 0x100 DUP4 ADD DUP5 PUSH2 0x3AF5 JUMP JUMPDEST SWAP11 SWAP10 POP POP POP POP POP POP POP POP POP POP JUMP JUMPDEST PUSH32 0x496E76616C6964204549502D373132207369676E617475726500000000000000 PUSH0 DUP3 ADD MSTORE POP JUMP JUMPDEST PUSH0 PUSH2 0x4B09 PUSH1 0x19 DUP4 PUSH2 0x3EE6 JUMP JUMPDEST SWAP2 POP PUSH2 0x4B14 DUP3 PUSH2 0x4AD5 JUMP JUMPDEST PUSH1 0x20 DUP3 ADD SWAP1 POP SWAP2 SWAP1 POP JUMP JUMPDEST PUSH0 PUSH1 0x20 DUP3 ADD SWAP1 POP DUP2 DUP2 SUB PUSH0 DUP4 ADD MSTORE PUSH2 0x4B36 DUP2 PUSH2 0x4AFD JUMP JUMPDEST SWAP1 POP SWAP2 SWAP1 POP JUMP JUMPDEST PUSH32 0x4E487B7100000000000000000000000000000000000000000000000000000000 PUSH0 MSTORE PUSH1 0x11 PUSH1 0x4 MSTORE PUSH1 0x24 PUSH0 REVERT JUMPDEST PUSH0 PUSH2 0x4B74 DUP3 PUSH2 0x3CD1 JUMP JUMPDEST SWAP2 POP PUSH8 0xFFFFFFFFFFFFFFFF DUP3 SUB PUSH2 0x4B8E JUMPI PUSH2 0x4B8D PUSH2 0x4B3D JUMP JUMPDEST JUMPDEST PUSH1 0x1 DUP3 ADD SWAP1 POP SWAP2 SWAP1 POP JUMP JUMPDEST PUSH0 PUSH2 0x4BA3 DUP3 PUSH2 0x3AEC JUMP JUMPDEST SWAP2 POP PUSH2 0x4BAE DUP4 PUSH2 0x3AEC JUMP JUMPDEST SWAP3 POP DUP3 DUP3 ADD SWAP1 POP DUP1 DUP3 GT ISZERO PUSH2 0x4BC6 JUMPI PUSH2 0x4BC5 PUSH2 0x4B3D JUMP JUMPDEST JUMPDEST SWAP3 SWAP2 POP POP JUMP JUMPDEST PUSH32 0x496E76616C6964207369676E6572000000000000000000000000000000000000 PUSH0 DUP3 ADD MSTORE POP JUMP JUMPDEST PUSH0 PUSH2 0x4C00 PUSH1 0xE DUP4 PUSH2 0x3EE6 JUMP JUMPDEST SWAP2 POP PUSH2 0x4C0B DUP3 PUSH2 0x4BCC JUMP JUMPDEST PUSH1 0x20 DUP3 ADD SWAP1 POP SWAP2 SWAP1 POP JUMP JUMPDEST PUSH0 PUSH1 0x20 DUP3 ADD SWAP1 POP DUP2 DUP2 SUB PUSH0 DUP4 ADD MSTORE PUSH2 0x4C2D DUP2 PUSH2 0x4BF4 JUMP JUMPDEST SWAP1 POP SWAP2 SWAP1 POP JUMP JUMPDEST PUSH32 0x4549503731323A20556E696E697469616C697A65640000000000000000000000 PUSH0 DUP3 ADD MSTORE POP JUMP JUMPDEST PUSH0 PUSH2 0x4C68 PUSH1 0x15 DUP4 PUSH2 0x3EE6 JUMP JUMPDEST SWAP2 POP PUSH2 0x4C73 DUP3 PUSH2 0x4C34 JUMP JUMPDEST PUSH1 0x20 DUP3 ADD SWAP1 POP SWAP2 SWAP1 POP JUMP JUMPDEST PUSH0 PUSH1 0x20 DUP3 ADD SWAP1 POP DUP2 DUP2 SUB PUSH0 DUP4 ADD MSTORE PUSH2 0x4C95 DUP2 PUSH2 0x4C5C JUMP JUMPDEST SWAP1 POP SWAP2 SWAP1 POP JUMP JUMPDEST PUSH0 PUSH1 0x40 DUP3 ADD SWAP1 POP PUSH2 0x4CAF PUSH0 DUP4 ADD DUP6 PUSH2 0x3ADD JUMP JUMPDEST PUSH2 0x4CBC PUSH1 0x20 DUP4 ADD DUP5 PUSH2 0x3B2B JUMP JUMPDEST SWAP4 SWAP3 POP POP POP JUMP JUMPDEST PUSH32 0x496E76616C696420706172616D73000000000000000000000000000000000000 PUSH0 DUP3 ADD MSTORE POP JUMP JUMPDEST PUSH0 PUSH2 0x4CF7 PUSH1 0xE DUP4 PUSH2 0x3EE6 JUMP JUMPDEST SWAP2 POP PUSH2 0x4D02 DUP3 PUSH2 0x4CC3 JUMP JUMPDEST PUSH1 0x20 DUP3 ADD SWAP1 POP SWAP2 SWAP1 POP JUMP JUMPDEST PUSH0 PUSH1 0x20 DUP3 ADD SWAP1 POP DUP2 DUP2 SUB PUSH0 DUP4 ADD MSTORE PUSH2 0x4D24 DUP2 PUSH2 0x4CEB JUMP JUMPDEST SWAP1 POP SWAP2 SWAP1 POP JUMP JUMPDEST PUSH32 0x496E76616C696420616464726573736573000000000000000000000000000000 PUSH0 DUP3 ADD MSTORE POP JUMP JUMPDEST PUSH0 PUSH2 0x4D5F PUSH1 0x11 DUP4 PUSH2 0x3EE6 JUMP JUMPDEST SWAP2 POP PUSH2 0x4D6A DUP3 PUSH2 0x4D2B JUMP JUMPDEST PUSH1 0x20 DUP3 ADD SWAP1 POP SWAP2 SWAP1 POP JUMP JUMPDEST PUSH0 PUSH1 0x20 DUP3 ADD SWAP1 POP DUP2 DUP2 SUB PUSH0 DUP4 ADD MSTORE PUSH2 0x4D8C DUP2 PUSH2 0x4D53 JUMP JUMPDEST SWAP1 POP SWAP2 SWAP1 POP JUMP JUMPDEST PUSH32 0x546F6F206D616E7920726F6C6573000000000000000000000000000000000000 PUSH0 DUP3 ADD MSTORE POP JUMP JUMPDEST PUSH0 PUSH2 0x4DC7 PUSH1 0xE DUP4 PUSH2 0x3EE6 JUMP JUMPDEST SWAP2 POP PUSH2 0x4DD2 DUP3 PUSH2 0x4D93 JUMP JUMPDEST PUSH1 0x20 DUP3 ADD SWAP1 POP SWAP2 SWAP1 POP JUMP JUMPDEST PUSH0 PUSH1 0x20 DUP3 ADD SWAP1 POP DUP2 DUP2 SUB PUSH0 DUP4 ADD MSTORE PUSH2 0x4DF4 DUP2 PUSH2 0x4DBB JUMP JUMPDEST SWAP1 POP SWAP2 SWAP1 POP JUMP JUMPDEST PUSH0 DUP2 SWAP1 POP SWAP2 SWAP1 POP JUMP JUMPDEST PUSH0 DUP2 SWAP1 POP SWAP2 SWAP1 POP JUMP JUMPDEST PUSH0 PUSH2 0x4E27 PUSH2 0x4E22 PUSH2 0x4E1D DUP5 PUSH2 0x4DFB JUMP JUMPDEST PUSH2 0x4E04 JUMP JUMPDEST PUSH2 0x3CD1 JUMP JUMPDEST SWAP1 POP SWAP2 SWAP1 POP JUMP JUMPDEST PUSH2 0x4E37 DUP2 PUSH2 0x4E0D JUMP JUMPDEST DUP3 MSTORE POP POP JUMP JUMPDEST PUSH0 PUSH1 0x20 DUP3 ADD SWAP1 POP PUSH2 0x4E50 PUSH0 DUP4 ADD DUP5 PUSH2 0x4E2E JUMP JUMPDEST SWAP3 SWAP2 POP POP JUMP JUMPDEST PUSH32 0x496E76616C6964206D756C74692D73696720636F6E6669670000000000000000 PUSH0 DUP3 ADD MSTORE POP JUMP JUMPDEST PUSH0 PUSH2 0x4E8A PUSH1 0x18 DUP4 PUSH2 0x3EE6 JUMP JUMPDEST SWAP2 POP PUSH2 0x4E95 DUP3 PUSH2 0x4E56 JUMP JUMPDEST PUSH1 0x20 DUP3 ADD SWAP1 POP SWAP2 SWAP1 POP JUMP JUMPDEST PUSH0 PUSH1 0x20 DUP3 ADD SWAP1 POP DUP2 DUP2 SUB PUSH0 DUP4 ADD MSTORE PUSH2 0x4EB7 DUP2 PUSH2 0x4E7E JUMP JUMPDEST SWAP1 POP SWAP2 SWAP1 POP JUMP JUMPDEST PUSH32 0x496E76616C6964204D65726B6C6520726F6F7400000000000000000000000000 PUSH0 DUP3 ADD MSTORE POP JUMP JUMPDEST PUSH0 PUSH2 0x4EF2 PUSH1 0x13 DUP4 PUSH2 0x3EE6 JUMP JUMPDEST SWAP2 POP PUSH2 0x4EFD DUP3 PUSH2 0x4EBE JUMP JUMPDEST PUSH1 0x20 DUP3 ADD SWAP1 POP SWAP2 SWAP1 POP JUMP JUMPDEST PUSH0 PUSH1 0x20 DUP3 ADD SWAP1 POP DUP2 DUP2 SUB PUSH0 DUP4 ADD MSTORE PUSH2 0x4F1F DUP2 PUSH2 0x4EE6 JUMP JUMPDEST SWAP1 POP SWAP2 SWAP1 POP JUMP JUMPDEST PUSH0 PUSH8 0xFFFFFFFFFFFFFFFF DUP3 GT ISZERO PUSH2 0x4F40 JUMPI PUSH2 0x4F3F PUSH2 0x3D24 JUMP JUMPDEST JUMPDEST PUSH1 0x20 DUP3 MUL SWAP1 POP PUSH1 0x20 DUP2 ADD SWAP1 POP SWAP2 SWAP1 POP JUMP JUMPDEST PUSH0 PUSH2 0x4F63 PUSH2 0x4F5E DUP5 PUSH2 0x4F26 JUMP JUMPDEST PUSH2 0x3D82 JUMP JUMPDEST SWAP1 POP DUP1 DUP4 DUP3 MSTORE PUSH1 0x20 DUP3 ADD SWAP1 POP PUSH1 0x20 DUP5 MUL DUP4 ADD DUP6 DUP2 GT ISZERO PUSH2 0x4F86 JUMPI PUSH2 0x4F85 PUSH2 0x4147 JUMP JUMPDEST JUMPDEST DUP4 JUMPDEST DUP2 DUP2 LT ISZERO PUSH2 0x4FCD JUMPI DUP1 CALLDATALOAD PUSH8 0xFFFFFFFFFFFFFFFF DUP2 GT ISZERO PUSH2 0x4FAB JUMPI PUSH2 0x4FAA PUSH2 0x3D0C JUMP JUMPDEST JUMPDEST DUP1 DUP7 ADD PUSH2 0x4FB8 DUP10 DUP3 PUSH2 0x3E1B JUMP JUMPDEST DUP6 MSTORE PUSH1 0x20 DUP6 ADD SWAP5 POP POP POP PUSH1 0x20 DUP2 ADD SWAP1 POP PUSH2 0x4F88 JUMP JUMPDEST POP POP POP SWAP4 SWAP3 POP POP POP JUMP JUMPDEST PUSH0 DUP3 PUSH1 0x1F DUP4 ADD SLT PUSH2 0x4FEB JUMPI PUSH2 0x4FEA PUSH2 0x3D0C JUMP JUMPDEST JUMPDEST DUP2 CALLDATALOAD PUSH2 0x4FFB DUP5 DUP3 PUSH1 0x20 DUP7 ADD PUSH2 0x4F51 JUMP JUMPDEST SWAP2 POP POP SWAP3 SWAP2 POP POP JUMP JUMPDEST PUSH0 PUSH8 0xFFFFFFFFFFFFFFFF DUP3 GT ISZERO PUSH2 0x501E JUMPI PUSH2 0x501D PUSH2 0x3D24 JUMP JUMPDEST JUMPDEST PUSH1 0x20 DUP3 MUL SWAP1 POP PUSH1 0x20 DUP2 ADD SWAP1 POP SWAP2 SWAP1 POP JUMP JUMPDEST PUSH0 PUSH8 0xFFFFFFFFFFFFFFFF DUP3 GT ISZERO PUSH2 0x5049 JUMPI PUSH2 0x5048 PUSH2 0x3D24 JUMP JUMPDEST JUMPDEST PUSH1 0x20 DUP3 MUL SWAP1 POP PUSH1 0x20 DUP2 ADD SWAP1 POP SWAP2 SWAP1 POP JUMP JUMPDEST PUSH0 PUSH2 0x506C PUSH2 0x5067 DUP5 PUSH2 0x502F JUMP JUMPDEST PUSH2 0x3D82 JUMP JUMPDEST SWAP1 POP DUP1 DUP4 DUP3 MSTORE PUSH1 0x20 DUP3 ADD SWAP1 POP PUSH1 0x20 DUP5 MUL DUP4 ADD DUP6 DUP2 GT ISZERO PUSH2 0x508F JUMPI PUSH2 0x508E PUSH2 0x4147 JUMP JUMPDEST JUMPDEST DUP4 JUMPDEST DUP2 DUP2 LT ISZERO PUSH2 0x50B8 JUMPI DUP1 PUSH2 0x50A4 DUP9 DUP3 PUSH2 0x3B69 JUMP JUMPDEST DUP5 MSTORE PUSH1 0x20 DUP5 ADD SWAP4 POP POP PUSH1 0x20 DUP2 ADD SWAP1 POP PUSH2 0x5091 JUMP JUMPDEST POP POP POP SWAP4 SWAP3 POP POP POP JUMP JUMPDEST PUSH0 DUP3 PUSH1 0x1F DUP4 ADD SLT PUSH2 0x50D6 JUMPI PUSH2 0x50D5 PUSH2 0x3D0C JUMP JUMPDEST JUMPDEST DUP2 CALLDATALOAD PUSH2 0x50E6 DUP5 DUP3 PUSH1 0x20 DUP7 ADD PUSH2 0x505A JUMP JUMPDEST SWAP2 POP POP SWAP3 SWAP2 POP POP JUMP JUMPDEST PUSH0 PUSH2 0x5101 PUSH2 0x50FC DUP5 PUSH2 0x5004 JUMP JUMPDEST PUSH2 0x3D82 JUMP JUMPDEST SWAP1 POP DUP1 DUP4 DUP3 MSTORE PUSH1 0x20 DUP3 ADD SWAP1 POP PUSH1 0x20 DUP5 MUL DUP4 ADD DUP6 DUP2 GT ISZERO PUSH2 0x5124 JUMPI PUSH2 0x5123 PUSH2 0x4147 JUMP JUMPDEST JUMPDEST DUP4 JUMPDEST DUP2 DUP2 LT ISZERO PUSH2 0x516B JUMPI DUP1 CALLDATALOAD PUSH8 0xFFFFFFFFFFFFFFFF DUP2 GT ISZERO PUSH2 0x5149 JUMPI PUSH2 0x5148 PUSH2 0x3D0C JUMP JUMPDEST JUMPDEST DUP1 DUP7 ADD PUSH2 0x5156 DUP10 DUP3 PUSH2 0x50C2 JUMP JUMPDEST DUP6 MSTORE PUSH1 0x20 DUP6 ADD SWAP5 POP POP POP PUSH1 0x20 DUP2 ADD SWAP1 POP PUSH2 0x5126 JUMP JUMPDEST POP POP POP SWAP4 SWAP3 POP POP POP JUMP JUMPDEST PUSH0 DUP3 PUSH1 0x1F DUP4 ADD SLT PUSH2 0x5189 JUMPI PUSH2 0x5188 PUSH2 0x3D0C JUMP JUMPDEST JUMPDEST DUP2 CALLDATALOAD PUSH2 0x5199 DUP5 DUP3 PUSH1 0x20 DUP7 ADD PUSH2 0x50EF JUMP JUMPDEST SWAP2 POP POP SWAP3 SWAP2 POP POP JUMP JUMPDEST PUSH0 PUSH0 PUSH0 PUSH1 0x60 DUP5 DUP7 SUB SLT ISZERO PUSH2 0x51B9 JUMPI PUSH2 0x51B8 PUSH2 0x3994 JUMP JUMPDEST JUMPDEST PUSH0 DUP5 ADD CALLDATALOAD PUSH8 0xFFFFFFFFFFFFFFFF DUP2 GT ISZERO PUSH2 0x51D6 JUMPI PUSH2 0x51D5 PUSH2 0x3998 JUMP JUMPDEST JUMPDEST PUSH2 0x51E2 DUP7 DUP3 DUP8 ADD PUSH2 0x41B3 JUMP JUMPDEST SWAP4 POP POP PUSH1 0x20 DUP5 ADD CALLDATALOAD PUSH8 0xFFFFFFFFFFFFFFFF DUP2 GT ISZERO PUSH2 0x5203 JUMPI PUSH2 0x5202 PUSH2 0x3998 JUMP JUMPDEST JUMPDEST PUSH2 0x520F DUP7 DUP3 DUP8 ADD PUSH2 0x4FD7 JUMP JUMPDEST SWAP3 POP POP PUSH1 0x40 DUP5 ADD CALLDATALOAD PUSH8 0xFFFFFFFFFFFFFFFF DUP2 GT ISZERO PUSH2 0x5230 JUMPI PUSH2 0x522F PUSH2 0x3998 JUMP JUMPDEST JUMPDEST PUSH2 0x523C DUP7 DUP3 DUP8 ADD PUSH2 0x5175 JUMP JUMPDEST SWAP2 POP POP SWAP3 POP SWAP3 POP SWAP3 JUMP JUMPDEST PUSH32 0x496E76616C6964207369676E6174757265206461746100000000000000000000 PUSH0 DUP3 ADD MSTORE POP JUMP JUMPDEST PUSH0 PUSH2 0x527A PUSH1 0x16 DUP4 PUSH2 0x3EE6 JUMP JUMPDEST SWAP2 POP PUSH2 0x5285 DUP3 PUSH2 0x5246 JUMP JUMPDEST PUSH1 0x20 DUP3 ADD SWAP1 POP SWAP2 SWAP1 POP JUMP JUMPDEST PUSH0 PUSH1 0x20 DUP3 ADD SWAP1 POP DUP2 DUP2 SUB PUSH0 DUP4 ADD MSTORE PUSH2 0x52A7 DUP2 PUSH2 0x526E JUMP JUMPDEST SWAP1 POP SWAP2 SWAP1 POP JUMP JUMPDEST PUSH32 0x496E73756666696369656E74207369676E617475726573000000000000000000 PUSH0 DUP3 ADD MSTORE POP JUMP JUMPDEST PUSH0 PUSH2 0x52E2 PUSH1 0x17 DUP4 PUSH2 0x3EE6 JUMP JUMPDEST SWAP2 POP PUSH2 0x52ED DUP3 PUSH2 0x52AE JUMP JUMPDEST PUSH1 0x20 DUP3 ADD SWAP1 POP SWAP2 SWAP1 POP JUMP JUMPDEST PUSH0 PUSH1 0x20 DUP3 ADD SWAP1 POP DUP2 DUP2 SUB PUSH0 DUP4 ADD MSTORE PUSH2 0x530F DUP2 PUSH2 0x52D6 JUMP JUMPDEST SWAP1 POP SWAP2 SWAP1 POP JUMP JUMPDEST PUSH32 0x496E73756666696369656E742076616C6964207369676E617475726573000000 PUSH0 DUP3 ADD MSTORE POP JUMP JUMPDEST PUSH0 PUSH2 0x534A PUSH1 0x1D DUP4 PUSH2 0x3EE6 JUMP JUMPDEST SWAP2 POP PUSH2 0x5355 DUP3 PUSH2 0x5316 JUMP JUMPDEST PUSH1 0x20 DUP3 ADD SWAP1 POP SWAP2 SWAP1 POP JUMP JUMPDEST PUSH0 PUSH1 0x20 DUP3 ADD SWAP1 POP DUP2 DUP2 SUB PUSH0 DUP4 ADD MSTORE PUSH2 0x5377 DUP2 PUSH2 0x533E JUMP JUMPDEST SWAP1 POP SWAP2 SWAP1 POP JUMP JUMPDEST PUSH0 DUP2 SWAP1 POP SWAP3 SWAP2 POP POP JUMP JUMPDEST PUSH32 0x19457468657265756D205369676E6564204D6573736167653A0A333200000000 PUSH0 DUP3 ADD MSTORE POP JUMP JUMPDEST PUSH0 PUSH2 0x53BC PUSH1 0x1C DUP4 PUSH2 0x537E JUMP JUMPDEST SWAP2 POP PUSH2 0x53C7 DUP3 PUSH2 0x5388 JUMP JUMPDEST PUSH1 0x1C DUP3 ADD SWAP1 POP SWAP2 SWAP1 POP JUMP JUMPDEST PUSH0 DUP2 SWAP1 POP SWAP2 SWAP1 POP JUMP JUMPDEST PUSH2 0x53EC PUSH2 0x53E7 DUP3 PUSH2 0x3AD4 JUMP JUMPDEST PUSH2 0x53D2 JUMP JUMPDEST DUP3 MSTORE POP POP JUMP JUMPDEST PUSH0 PUSH2 0x53FC DUP3 PUSH2 0x53B0 JUMP JUMPDEST SWAP2 POP PUSH2 0x5408 DUP3 DUP5 PUSH2 0x53DB JUMP JUMPDEST PUSH1 0x20 DUP3 ADD SWAP2 POP DUP2 SWAP1 POP SWAP3 SWAP2 POP POP JUMP JUMPDEST PUSH0 DUP2 MLOAD SWAP1 POP PUSH2 0x5425 DUP2 PUSH2 0x4095 JUMP JUMPDEST SWAP3 SWAP2 POP POP JUMP JUMPDEST PUSH0 PUSH1 0x20 DUP3 DUP5 SUB SLT ISZERO PUSH2 0x5440 JUMPI PUSH2 0x543F PUSH2 0x3994 JUMP JUMPDEST JUMPDEST PUSH0 PUSH2 0x544D DUP5 DUP3 DUP6 ADD PUSH2 0x5417 JUMP JUMPDEST SWAP2 POP POP SWAP3 SWAP2 POP POP JUMP JUMPDEST PUSH32 0x55706772616465206E6F74207363686564756C65640000000000000000000000 PUSH0 DUP3 ADD MSTORE POP JUMP JUMPDEST PUSH0 PUSH2 0x548A PUSH1 0x15 DUP4 PUSH2 0x3EE6 JUMP JUMPDEST SWAP2 POP PUSH2 0x5495 DUP3 PUSH2 0x5456 JUMP JUMPDEST PUSH1 0x20 DUP3 ADD SWAP1 POP SWAP2 SWAP1 POP JUMP JUMPDEST PUSH0 PUSH1 0x20 DUP3 ADD SWAP1 POP DUP2 DUP2 SUB PUSH0 DUP4 ADD MSTORE PUSH2 0x54B7 DUP2 PUSH2 0x547E JUMP JUMPDEST SWAP1 POP SWAP2 SWAP1 POP JUMP JUMPDEST PUSH32 0x4E487B7100000000000000000000000000000000000000000000000000000000 PUSH0 MSTORE PUSH1 0x22 PUSH1 0x4 MSTORE PUSH1 0x24 PUSH0 REVERT JUMPDEST PUSH0 PUSH1 0x2 DUP3 DIV SWAP1 POP PUSH1 0x1 DUP3 AND DUP1 PUSH2 0x5502 JUMPI PUSH1 0x7F DUP3 AND SWAP2 POP JUMPDEST PUSH1 0x20 DUP3 LT DUP2 SUB PUSH2 0x5515 JUMPI PUSH2 0x5514 PUSH2 0x54BE JUMP JUMPDEST JUMPDEST POP SWAP2 SWAP1 POP JUMP JUMPDEST PUSH0 PUSH1 0x40 DUP3 ADD SWAP1 POP PUSH2 0x552E PUSH0 DUP4 ADD DUP6 PUSH2 0x3B2B JUMP JUMPDEST PUSH2 0x553B PUSH1 0x20 DUP4 ADD DUP5 PUSH2 0x3ADD JUMP JUMPDEST SWAP4 SWAP3 POP POP POP JUMP JUMPDEST PUSH32 0x4E487B7100000000000000000000000000000000000000000000000000000000 PUSH0 MSTORE PUSH1 0x32 PUSH1 0x4 MSTORE PUSH1 0x24 PUSH0 REVERT JUMPDEST PUSH0 DUP2 PUSH1 0x60 SHL SWAP1 POP SWAP2 SWAP1 POP JUMP JUMPDEST PUSH0 PUSH2 0x5585 DUP3 PUSH2 0x556F JUMP JUMPDEST SWAP1 POP SWAP2 SWAP1 POP JUMP JUMPDEST PUSH0 PUSH2 0x5596 DUP3 PUSH2 0x557B JUMP JUMPDEST SWAP1 POP SWAP2 SWAP1 POP JUMP JUMPDEST PUSH2 0x55AE PUSH2 0x55A9 DUP3 PUSH2 0x3A6E JUMP JUMPDEST PUSH2 0x558C JUMP JUMPDEST DUP3 MSTORE POP POP JUMP JUMPDEST PUSH0 PUSH2 0x55BF DUP3 DUP5 PUSH2 0x559D JUMP JUMPDEST PUSH1 0x14 DUP3 ADD SWAP2 POP DUP2 SWAP1 POP SWAP3 SWAP2 POP POP JUMP JUMPDEST PUSH0 PUSH2 0x55D8 DUP3 PUSH2 0x3AEC JUMP JUMPDEST SWAP2 POP PUSH32 0xFFFFFFFFFFFFFFFFFFFFFFFFFFFFFFFFFFFFFFFFFFFFFFFFFFFFFFFFFFFFFFFF DUP3 SUB PUSH2 0x560A JUMPI PUSH2 0x5609 PUSH2 0x4B3D JUMP JUMPDEST JUMPDEST PUSH1 0x1 DUP3 ADD SWAP1 POP SWAP2 SWAP1 POP JUMP JUMPDEST PUSH32 0x4E487B7100000000000000000000000000000000000000000000000000000000 PUSH0 MSTORE PUSH1 0x21 PUSH1 0x4 MSTORE PUSH1 0x24 PUSH0 REVERT JUMPDEST PUSH0 DUP2 SWAP1 POP DUP2 PUSH0 MSTORE PUSH1 0x20 PUSH0 KECCAK256 SWAP1 POP SWAP2 SWAP1 POP JUMP JUMPDEST PUSH0 PUSH1 0x20 PUSH1 0x1F DUP4 ADD DIV SWAP1 POP SWAP2 SWAP1 POP JUMP JUMPDEST PUSH0 DUP3 DUP3 SHL SWAP1 POP SWAP3 SWAP2 POP POP JUMP JUMPDEST PUSH0 PUSH1 0x8 DUP4 MUL PUSH2 0x569E PUSH32 0xFFFFFFFFFFFFFFFFFFFFFFFFFFFFFFFFFFFFFFFFFFFFFFFFFFFFFFFFFFFFFFFF DUP3 PUSH2 0x5663 JUMP JUMPDEST PUSH2 0x56A8 DUP7 DUP4 PUSH2 0x5663 JUMP JUMPDEST SWAP6 POP DUP1 NOT DUP5 AND SWAP4 POP DUP1 DUP7 AND DUP5 OR SWAP3 POP POP POP SWAP4 SWAP3 POP POP POP JUMP JUMPDEST PUSH0 PUSH2 0x56DA PUSH2 0x56D5 PUSH2 0x56D0 DUP5 PUSH2 0x3AEC JUMP JUMPDEST PUSH2 0x4E04 JUMP JUMPDEST PUSH2 0x3AEC JUMP JUMPDEST SWAP1 POP SWAP2 SWAP1 POP JUMP JUMPDEST PUSH0 DUP2 SWAP1 POP SWAP2 SWAP1 POP JUMP JUMPDEST PUSH2 0x56F3 DUP4 PUSH2 0x56C0 JUMP JUMPDEST PUSH2 0x5707 PUSH2 0x56FF DUP3 PUSH2 0x56E1 JUMP JUMPDEST DUP5 DUP5 SLOAD PUSH2 0x566F JUMP JUMPDEST DUP3 SSTORE POP POP POP POP JUMP JUMPDEST PUSH0 PUSH0 SWAP1 POP SWAP1 JUMP JUMPDEST PUSH2 0x571E PUSH2 0x570F JUMP JUMPDEST PUSH2 0x5729 DUP2 DUP5 DUP5 PUSH2 0x56EA JUMP JUMPDEST POP POP POP JUMP JUMPDEST JUMPDEST DUP2 DUP2 LT ISZERO PUSH2 0x574C JUMPI PUSH2 0x5741 PUSH0 DUP3 PUSH2 0x5716 JUMP JUMPDEST PUSH1 0x1 DUP2 ADD SWAP1 POP PUSH2 0x572F JUMP JUMPDEST POP POP JUMP JUMPDEST PUSH1 0x1F DUP3 GT ISZERO PUSH2 0x5791 JUMPI PUSH2 0x5762 DUP2 PUSH2 0x5642 JUMP JUMPDEST PUSH2 0x576B DUP5 PUSH2 0x5654 JUMP JUMPDEST DUP2 ADD PUSH1 0x20 DUP6 LT ISZERO PUSH2 0x577A JUMPI DUP2 SWAP1 POP JUMPDEST PUSH2 0x578E PUSH2 0x5786 DUP6 PUSH2 0x5654 JUMP JUMPDEST DUP4 ADD DUP3 PUSH2 0x572E JUMP JUMPDEST POP POP JUMPDEST POP POP POP JUMP JUMPDEST PUSH0 DUP3 DUP3 SHR SWAP1 POP SWAP3 SWAP2 POP POP JUMP JUMPDEST PUSH0 PUSH2 0x57B1 PUSH0 NOT DUP5 PUSH1 0x8 MUL PUSH2 0x5796 JUMP JUMPDEST NOT DUP1 DUP4 AND SWAP2 POP POP SWAP3 SWAP2 POP POP JUMP JUMPDEST PUSH0 PUSH2 0x57C9 DUP4 DUP4 PUSH2 0x57A2 JUMP JUMPDEST SWAP2 POP DUP3 PUSH1 0x2 MUL DUP3 OR SWAP1 POP SWAP3 SWAP2 POP POP JUMP JUMPDEST PUSH2 0x57E2 DUP3 PUSH2 0x3EDC JUMP JUMPDEST PUSH8 0xFFFFFFFFFFFFFFFF DUP2 GT ISZERO PUSH2 0x57FB JUMPI PUSH2 0x57FA PUSH2 0x3D24 JUMP JUMPDEST JUMPDEST PUSH2 0x5805 DUP3 SLOAD PUSH2 0x54EB JUMP JUMPDEST PUSH2 0x5810 DUP3 DUP3 DUP6 PUSH2 0x5750 JUMP JUMPDEST PUSH0 PUSH1 0x20 SWAP1 POP PUSH1 0x1F DUP4 GT PUSH1 0x1 DUP2 EQ PUSH2 0x5841 JUMPI PUSH0 DUP5 ISZERO PUSH2 0x582F JUMPI DUP3 DUP8 ADD MLOAD SWAP1 POP JUMPDEST PUSH2 0x5839 DUP6 DUP3 PUSH2 0x57BE JUMP JUMPDEST DUP7 SSTORE POP PUSH2 0x58A0 JUMP JUMPDEST PUSH1 0x1F NOT DUP5 AND PUSH2 0x584F DUP7 PUSH2 0x5642 JUMP JUMPDEST PUSH0 JUMPDEST DUP3 DUP2 LT ISZERO PUSH2 0x5876 JUMPI DUP5 DUP10 ADD MLOAD DUP3 SSTORE PUSH1 0x1 DUP3 ADD SWAP2 POP PUSH1 0x20 DUP6 ADD SWAP5 POP PUSH1 0x20 DUP2 ADD SWAP1 POP PUSH2 0x5851 JUMP JUMPDEST DUP7 DUP4 LT ISZERO PUSH2 0x5893 JUMPI DUP5 DUP10 ADD MLOAD PUSH2 0x588F PUSH1 0x1F DUP10 AND DUP3 PUSH2 0x57A2 JUMP JUMPDEST DUP4 SSTORE POP JUMPDEST PUSH1 0x1 PUSH1 0x2 DUP9 MUL ADD DUP9 SSTORE POP POP POP JUMPDEST POP POP POP POP POP POP JUMP JUMPDEST PUSH32 0x496E76616C6964206163636F756E740000000000000000000000000000000000 PUSH0 DUP3 ADD MSTORE POP JUMP JUMPDEST PUSH0 PUSH2 0x58DC PUSH1 0xF DUP4 PUSH2 0x3EE6 JUMP JUMPDEST SWAP2 POP PUSH2 0x58E7 DUP3 PUSH2 0x58A8 JUMP JUMPDEST PUSH1 0x20 DUP3 ADD SWAP1 POP SWAP2 SWAP1 POP JUMP JUMPDEST PUSH0 PUSH1 0x20 DUP3 ADD SWAP1 POP DUP2 DUP2 SUB PUSH0 DUP4 ADD MSTORE PUSH2 0x5909 DUP2 PUSH2 0x58D0 JUMP JUMPDEST SWAP1 POP SWAP2 SWAP1 POP JUMP JUMPDEST PUSH32 0x496E76616C696420616464726573730000000000000000000000000000000000 PUSH0 DUP3 ADD MSTORE POP JUMP JUMPDEST PUSH0 PUSH2 0x5944 PUSH1 0xF DUP4 PUSH2 0x3EE6 JUMP JUMPDEST SWAP2 POP PUSH2 0x594F DUP3 PUSH2 0x5910 JUMP JUMPDEST PUSH1 0x20 DUP3 ADD SWAP1 POP SWAP2 SWAP1 POP JUMP JUMPDEST PUSH0 PUSH1 0x20 DUP3 ADD SWAP1 POP DUP2 DUP2 SUB PUSH0 DUP4 ADD MSTORE PUSH2 0x5971 DUP2 PUSH2 0x5938 JUMP JUMPDEST SWAP1 POP SWAP2 SWAP1 POP JUMP JUMPDEST PUSH0 PUSH1 0xFF DUP3 AND SWAP1 POP SWAP2 SWAP1 POP JUMP JUMPDEST PUSH2 0x598D DUP2 PUSH2 0x5978 JUMP JUMPDEST DUP3 MSTORE POP POP JUMP JUMPDEST PUSH0 PUSH1 0x80 DUP3 ADD SWAP1 POP PUSH2 0x59A6 PUSH0 DUP4 ADD DUP8 PUSH2 0x3ADD JUMP JUMPDEST PUSH2 0x59B3 PUSH1 0x20 DUP4 ADD DUP7 PUSH2 0x5984 JUMP JUMPDEST PUSH2 0x59C0 PUSH1 0x40 DUP4 ADD DUP6 PUSH2 0x3ADD JUMP JUMPDEST PUSH2 0x59CD PUSH1 0x60 DUP4 ADD DUP5 PUSH2 0x3ADD JUMP JUMPDEST SWAP6 SWAP5 POP POP POP POP POP JUMP JUMPDEST PUSH0 PUSH1 0xA0 DUP3 ADD SWAP1 POP PUSH2 0x59E9 PUSH0 DUP4 ADD DUP9 PUSH2 0x3ADD JUMP JUMPDEST PUSH2 0x59F6 PUSH1 0x20 DUP4 ADD DUP8 PUSH2 0x3ADD JUMP JUMPDEST PUSH2 0x5A03 PUSH1 0x40 DUP4 ADD DUP7 PUSH2 0x3ADD JUMP JUMPDEST PUSH2 0x5A10 PUSH1 0x60 DUP4 ADD DUP6 PUSH2 0x3AF5 JUMP JUMPDEST PUSH2 0x5A1D PUSH1 0x80 DUP4 ADD DUP5 PUSH2 0x3B2B JUMP JUMPDEST SWAP7 SWAP6 POP POP POP POP POP POP JUMP JUMPDEST PUSH0 DUP2 MLOAD SWAP1 POP SWAP2 SWAP1 POP JUMP JUMPDEST PUSH0 PUSH2 0x5A3B DUP3 PUSH2 0x5A27 JUMP JUMPDEST PUSH2 0x5A45 DUP2 DUP6 PUSH2 0x4A04 JUMP JUMPDEST SWAP4 POP PUSH2 0x5A55 DUP2 DUP6 PUSH1 0x20 DUP7 ADD PUSH2 0x3EF6 JUMP JUMPDEST DUP1 DUP5 ADD SWAP2 POP POP SWAP3 SWAP2 POP POP JUMP JUMPDEST PUSH0 PUSH2 0x5A6C DUP3 DUP5 PUSH2 0x5A31 JUMP JUMPDEST SWAP2 POP DUP2 SWAP1 POP SWAP3 SWAP2 POP POP JUMP INVALID LOG2 PUSH5 0x6970667358 0x22 SLT KECCAK256 DUP3 EXP 0xF6 PUSH1 0xE6 PUSH26 0xE17E71D892B3CFF62DC38522DE16A07B60CA4466795A91388584 PUSH5 0x736F6C6343 STOP ADDMOD SAR STOP CALLER "
		},
		"gasEstimates": {
			"creation": {
				"codeDepositCost": "4642600",
				"executionCost": "infinite",
				"totalCost": "infinite"
			},
			"external": {
				"DEFAULT_ADMIN_ROLE()": "418",
				"UPGRADE_INTERFACE_VERSION()": "infinite",
				"delegatedSigners(address)": "infinite",
				"eip712Domain()": "infinite",
				"emergencyStopped()": "2554",
				"entryPoint()": "2552",
				"getRoleAdmin(bytes32)": "infinite",
				"grantRole(bytes32,address)": "infinite",
				"hasRole(bytes32,address)": "infinite",
				"initialize((address,uint64,uint64,address[],address[],address[],address[],address[],address,address,address))": "infinite",
				"lastOperationBlock(address)": "2825",
				"multiSigners(address)": "5072",
				"paused()": "2613",
				"paymaster()": "2576",
				"proxiableUUID()": "infinite",
				"renounceRole(bytes32,address)": "infinite",
				"revokeRole(bytes32,address)": "infinite",
				"setDelegatedSigner(address)": "infinite",
				"setEmergencyStop(bool)": "infinite",
				"setMultiSigners(address[],uint256,bytes32)": "infinite",
				"supportsInterface(bytes4)": "741",
				"threshold()": "2585",
				"timelock()": "2552",
				"upgradeToAndCall(address,bytes)": "infinite",
				"userAddressToId(address)": "2900",
				"validateUserOp((address,uint256,bytes,bytes,uint256,uint256,uint256,uint256,uint256,bytes,bytes),bytes32,uint256)": "infinite"
			},
			"internal": {
				"_assignRoles(bytes32,address[] memory)": "infinite",
				"_authorizeUpgrade(address)": "infinite",
				"_countValidSignatures(address[] memory,bytes memory[] memory,bytes32[] memory[] memory,bytes32,bytes32)": "infinite",
				"_grantRoleWithExpiration(bytes32,address,uint64)": "infinite",
				"_initializeRoles(address payable,address,address[] memory,address[] memory,address[] memory,address[] memory,address[] memory)": "infinite",
				"_setInitialState(struct RyzerWalletCore.InitParams memory)": "infinite",
				"_verifyMultiSignature(address,bytes32,bytes calldata)": "infinite",
				"toEthSignedMessageHash(bytes32)": "infinite"
			}
		},
		"methodIdentifiers": {
			"DEFAULT_ADMIN_ROLE()": "a217fddf",
			"UPGRADE_INTERFACE_VERSION()": "ad3cb1cc",
			"delegatedSigners(address)": "ac63edbc",
			"eip712Domain()": "84b0196e",
			"emergencyStopped()": "e2749c96",
			"entryPoint()": "b0d691fe",
			"getRoleAdmin(bytes32)": "248a9ca3",
			"grantRole(bytes32,address)": "2f2ff15d",
			"hasRole(bytes32,address)": "91d14854",
			"initialize((address,uint64,uint64,address[],address[],address[],address[],address[],address,address,address))": "cf25cdb4",
			"lastOperationBlock(address)": "8bff608e",
			"multiSigners(address)": "0eb94263",
			"paused()": "5c975abb",
			"paymaster()": "16e4cbf9",
			"proxiableUUID()": "52d1902d",
			"renounceRole(bytes32,address)": "36568abe",
			"revokeRole(bytes32,address)": "d547741f",
			"setDelegatedSigner(address)": "53863613",
			"setEmergencyStop(bool)": "c73d7c7b",
			"setMultiSigners(address[],uint256,bytes32)": "fabfaf77",
			"supportsInterface(bytes4)": "01ffc9a7",
			"threshold()": "42cde4e8",
			"timelock()": "d33219b4",
			"upgradeToAndCall(address,bytes)": "4f1ef286",
			"userAddressToId(address)": "9f78a946",
			"validateUserOp((address,uint256,bytes,bytes,uint256,uint256,uint256,uint256,uint256,bytes,bytes),bytes32,uint256)": "3a871cdd"
		}
	},
	"abi": [
		{
			"inputs": [],
			"name": "AccessControlBadConfirmation",
			"type": "error"
		},
		{
			"inputs": [
				{
					"internalType": "address",
					"name": "account",
					"type": "address"
				},
				{
					"internalType": "bytes32",
					"name": "neededRole",
					"type": "bytes32"
				}
			],
			"name": "AccessControlUnauthorizedAccount",
			"type": "error"
		},
		{
			"inputs": [
				{
					"internalType": "address",
					"name": "target",
					"type": "address"
				}
			],
			"name": "AddressEmptyCode",
			"type": "error"
		},
		{
			"inputs": [],
			"name": "ECDSAInvalidSignature",
			"type": "error"
		},
		{
			"inputs": [
				{
					"internalType": "uint256",
					"name": "length",
					"type": "uint256"
				}
			],
			"name": "ECDSAInvalidSignatureLength",
			"type": "error"
		},
		{
			"inputs": [
				{
					"internalType": "bytes32",
					"name": "s",
					"type": "bytes32"
				}
			],
			"name": "ECDSAInvalidSignatureS",
			"type": "error"
		},
		{
			"inputs": [
				{
					"internalType": "address",
					"name": "implementation",
					"type": "address"
				}
			],
			"name": "ERC1967InvalidImplementation",
			"type": "error"
		},
		{
			"inputs": [],
			"name": "ERC1967NonPayable",
			"type": "error"
		},
		{
			"inputs": [],
			"name": "EmergencyStopped",
			"type": "error"
		},
		{
			"inputs": [],
			"name": "EnforcedPause",
			"type": "error"
		},
		{
			"inputs": [],
			"name": "ExpectedPause",
			"type": "error"
		},
		{
			"inputs": [],
			"name": "FailedCall",
			"type": "error"
		},
		{
			"inputs": [],
			"name": "InvalidInitialization",
			"type": "error"
		},
		{
			"inputs": [],
			"name": "NotInitializing",
			"type": "error"
		},
		{
			"inputs": [],
			"name": "RateLimited",
			"type": "error"
		},
		{
			"inputs": [],
			"name": "ReentrancyGuardReentrantCall",
			"type": "error"
		},
		{
			"inputs": [],
			"name": "UUPSUnauthorizedCallContext",
			"type": "error"
		},
		{
			"inputs": [
				{
					"internalType": "bytes32",
					"name": "slot",
					"type": "bytes32"
				}
			],
			"name": "UUPSUnsupportedProxiableUUID",
			"type": "error"
		},
		{
			"anonymous": false,
			"inputs": [
				{
					"indexed": true,
					"internalType": "address",
					"name": "wallet",
					"type": "address"
				}
			],
			"name": "AccessPolicyUpdated",
			"type": "event"
		},
		{
			"anonymous": false,
			"inputs": [
				{
					"indexed": true,
					"internalType": "address",
					"name": "wallet",
					"type": "address"
				},
				{
					"indexed": false,
					"internalType": "uint256",
					"name": "score",
					"type": "uint256"
				}
			],
			"name": "AnomalyDetected",
			"type": "event"
		},
		{
			"anonymous": false,
			"inputs": [
				{
					"indexed": true,
					"internalType": "address",
					"name": "delegator",
					"type": "address"
				},
				{
					"indexed": true,
					"internalType": "address",
					"name": "operator",
					"type": "address"
				},
				{
					"indexed": false,
					"internalType": "string",
					"name": "operation",
					"type": "string"
				}
			],
			"name": "DelegatedOperation",
			"type": "event"
		},
		{
			"anonymous": false,
			"inputs": [
				{
					"indexed": true,
					"internalType": "address",
					"name": "user",
					"type": "address"
				},
				{
					"indexed": true,
					"internalType": "address",
					"name": "signer",
					"type": "address"
				}
			],
			"name": "DelegatedSignerSet",
			"type": "event"
		},
		{
			"anonymous": false,
			"inputs": [],
			"name": "EIP712DomainChanged",
			"type": "event"
		},
		{
			"anonymous": false,
			"inputs": [
				{
					"indexed": true,
					"internalType": "address",
					"name": "wallet",
					"type": "address"
				}
			],
			"name": "EmergencyLockdownActivated",
			"type": "event"
		},
		{
			"anonymous": false,
			"inputs": [
				{
					"indexed": true,
					"internalType": "address",
					"name": "wallet",
					"type": "address"
				}
			],
			"name": "EmergencyLockdownDeactivated",
			"type": "event"
		},
		{
			"anonymous": false,
			"inputs": [
				{
					"indexed": false,
					"internalType": "bool",
					"name": "stopped",
					"type": "bool"
				}
			],
			"name": "EmergencyStop",
			"type": "event"
		},
		{
			"anonymous": false,
			"inputs": [
				{
					"indexed": false,
					"internalType": "uint64",
					"name": "version",
					"type": "uint64"
				}
			],
			"name": "Initialized",
			"type": "event"
		},
		{
			"anonymous": false,
			"inputs": [
				{
					"indexed": true,
					"internalType": "address",
					"name": "wallet",
					"type": "address"
				},
				{
					"indexed": false,
					"internalType": "enum IRyzerMilitaryGradeSecurity.SecurityLevel",
					"name": "level",
					"type": "uint8"
				}
			],
			"name": "MilitaryGradeWalletCreated",
			"type": "event"
		},
		{
			"anonymous": false,
			"inputs": [
				{
					"indexed": true,
					"internalType": "address",
					"name": "user",
					"type": "address"
				},
				{
					"indexed": false,
					"internalType": "bytes32",
					"name": "merkleRoot",
					"type": "bytes32"
				},
				{
					"indexed": false,
					"internalType": "uint256",
					"name": "threshold",
					"type": "uint256"
				}
			],
			"name": "MultiSignersSet",
			"type": "event"
		},
		{
			"anonymous": false,
			"inputs": [
				{
					"indexed": false,
					"internalType": "address",
					"name": "account",
					"type": "address"
				}
			],
			"name": "Paused",
			"type": "event"
		},
		{
			"anonymous": false,
			"inputs": [
				{
					"indexed": true,
					"internalType": "bytes32",
					"name": "role",
					"type": "bytes32"
				},
				{
					"indexed": true,
					"internalType": "bytes32",
					"name": "previousAdminRole",
					"type": "bytes32"
				},
				{
					"indexed": true,
					"internalType": "bytes32",
					"name": "newAdminRole",
					"type": "bytes32"
				}
			],
			"name": "RoleAdminChanged",
			"type": "event"
		},
		{
			"anonymous": false,
			"inputs": [
				{
					"indexed": true,
					"internalType": "bytes32",
					"name": "role",
					"type": "bytes32"
				},
				{
					"indexed": true,
					"internalType": "address",
					"name": "account",
					"type": "address"
				},
				{
					"indexed": true,
					"internalType": "address",
					"name": "sender",
					"type": "address"
				}
			],
			"name": "RoleGranted",
			"type": "event"
		},
		{
			"anonymous": false,
			"inputs": [
				{
					"indexed": true,
					"internalType": "bytes32",
					"name": "role",
					"type": "bytes32"
				},
				{
					"indexed": true,
					"internalType": "address",
					"name": "account",
					"type": "address"
				},
				{
					"indexed": true,
					"internalType": "address",
					"name": "sender",
					"type": "address"
				}
			],
			"name": "RoleRevoked",
			"type": "event"
		},
		{
			"anonymous": false,
			"inputs": [
				{
					"indexed": true,
					"internalType": "bytes32",
					"name": "role",
					"type": "bytes32"
				},
				{
					"indexed": true,
					"internalType": "address",
					"name": "account",
					"type": "address"
				}
			],
			"name": "RoleRevoked",
			"type": "event"
		},
		{
			"anonymous": false,
			"inputs": [
				{
					"indexed": true,
					"internalType": "address",
					"name": "wallet",
					"type": "address"
				},
				{
					"indexed": false,
					"internalType": "string",
					"name": "action",
					"type": "string"
				},
				{
					"indexed": false,
					"internalType": "bool",
					"name": "success",
					"type": "bool"
				}
			],
			"name": "SecurityAuditRecorded",
			"type": "event"
		},
		{
			"anonymous": false,
			"inputs": [
				{
					"indexed": true,
					"internalType": "address",
					"name": "wallet",
					"type": "address"
				},
				{
					"indexed": false,
					"internalType": "enum IRyzerMilitaryGradeSecurity.SecurityLevel",
					"name": "level",
					"type": "uint8"
				}
			],
			"name": "SecurityConfigUpdated",
			"type": "event"
		},
		{
			"anonymous": false,
			"inputs": [
				{
					"indexed": true,
					"internalType": "address",
					"name": "wallet",
					"type": "address"
				},
				{
					"indexed": false,
					"internalType": "bool",
					"name": "verified",
					"type": "bool"
				}
			],
			"name": "TEEAttestationVerified",
			"type": "event"
		},
		{
			"anonymous": false,
			"inputs": [
				{
					"indexed": false,
					"internalType": "address",
					"name": "account",
					"type": "address"
				}
			],
			"name": "Unpaused",
			"type": "event"
		},
		{
			"anonymous": false,
			"inputs": [
				{
					"indexed": true,
					"internalType": "address",
					"name": "implementation",
					"type": "address"
				}
			],
			"name": "Upgraded",
			"type": "event"
		},
		{
			"anonymous": false,
			"inputs": [
				{
					"indexed": true,
					"internalType": "address",
					"name": "walletAddress",
					"type": "address"
				}
			],
			"name": "WalletCreated",
			"type": "event"
		},
		{
			"anonymous": false,
			"inputs": [
				{
					"indexed": true,
					"internalType": "address",
					"name": "wallet",
					"type": "address"
				}
			],
			"name": "WalletUnlocked",
			"type": "event"
		},
		{
			"inputs": [],
			"name": "DEFAULT_ADMIN_ROLE",
			"outputs": [
				{
					"internalType": "bytes32",
					"name": "",
					"type": "bytes32"
				}
			],
			"stateMutability": "view",
			"type": "function"
		},
		{
			"inputs": [],
			"name": "UPGRADE_INTERFACE_VERSION",
			"outputs": [
				{
					"internalType": "string",
					"name": "",
					"type": "string"
				}
			],
			"stateMutability": "view",
			"type": "function"
		},
		{
			"inputs": [
				{
					"internalType": "address",
					"name": "",
					"type": "address"
				}
			],
			"name": "delegatedSigners",
			"outputs": [
				{
					"internalType": "address",
					"name": "",
					"type": "address"
				}
			],
			"stateMutability": "view",
			"type": "function"
		},
		{
			"inputs": [],
			"name": "eip712Domain",
			"outputs": [
				{
					"internalType": "bytes1",
					"name": "fields",
					"type": "bytes1"
				},
				{
					"internalType": "string",
					"name": "name",
					"type": "string"
				},
				{
					"internalType": "string",
					"name": "version",
					"type": "string"
				},
				{
					"internalType": "uint256",
					"name": "chainId",
					"type": "uint256"
				},
				{
					"internalType": "address",
					"name": "verifyingContract",
					"type": "address"
				},
				{
					"internalType": "bytes32",
					"name": "salt",
					"type": "bytes32"
				},
				{
					"internalType": "uint256[]",
					"name": "extensions",
					"type": "uint256[]"
				}
			],
			"stateMutability": "view",
			"type": "function"
		},
		{
			"inputs": [],
			"name": "emergencyStopped",
			"outputs": [
				{
					"internalType": "bool",
					"name": "",
					"type": "bool"
				}
			],
			"stateMutability": "view",
			"type": "function"
		},
		{
			"inputs": [],
			"name": "entryPoint",
			"outputs": [
				{
					"internalType": "address",
					"name": "",
					"type": "address"
				}
			],
			"stateMutability": "view",
			"type": "function"
		},
		{
			"inputs": [
				{
					"internalType": "bytes32",
					"name": "role",
					"type": "bytes32"
				}
			],
			"name": "getRoleAdmin",
			"outputs": [
				{
					"internalType": "bytes32",
					"name": "",
					"type": "bytes32"
				}
			],
			"stateMutability": "view",
			"type": "function"
		},
		{
			"inputs": [
				{
					"internalType": "bytes32",
					"name": "role",
					"type": "bytes32"
				},
				{
					"internalType": "address",
					"name": "account",
					"type": "address"
				}
			],
			"name": "grantRole",
			"outputs": [],
			"stateMutability": "nonpayable",
			"type": "function"
		},
		{
			"inputs": [
				{
					"internalType": "bytes32",
					"name": "role",
					"type": "bytes32"
				},
				{
					"internalType": "address",
					"name": "account",
					"type": "address"
				}
			],
			"name": "hasRole",
			"outputs": [
				{
					"internalType": "bool",
					"name": "",
					"type": "bool"
				}
			],
			"stateMutability": "view",
			"type": "function"
		},
		{
			"inputs": [
				{
					"components": [
						{
							"internalType": "address",
							"name": "initialUser",
							"type": "address"
						},
						{
							"internalType": "uint64",
							"name": "userId",
							"type": "uint64"
						},
						{
							"internalType": "uint64",
							"name": "threshold",
							"type": "uint64"
						},
						{
							"internalType": "address[]",
							"name": "custodians",
							"type": "address[]"
						},
						{
							"internalType": "address[]",
							"name": "brokers",
							"type": "address[]"
						},
						{
							"internalType": "address[]",
							"name": "securityAdmins",
							"type": "address[]"
						},
						{
							"internalType": "address[]",
							"name": "teeVerifiers",
							"type": "address[]"
						},
						{
							"internalType": "address[]",
							"name": "tssOperators",
							"type": "address[]"
						},
						{
							"internalType": "address",
							"name": "entryPoint",
							"type": "address"
						},
						{
							"internalType": "address",
							"name": "paymaster",
							"type": "address"
						},
						{
							"internalType": "address payable",
							"name": "timelock",
							"type": "address"
						}
					],
					"internalType": "struct RyzerWalletCore.InitParams",
					"name": "params",
					"type": "tuple"
				}
			],
			"name": "initialize",
			"outputs": [],
			"stateMutability": "nonpayable",
			"type": "function"
		},
		{
			"inputs": [
				{
					"internalType": "address",
					"name": "",
					"type": "address"
				}
			],
			"name": "lastOperationBlock",
			"outputs": [
				{
					"internalType": "uint256",
					"name": "",
					"type": "uint256"
				}
			],
			"stateMutability": "view",
			"type": "function"
		},
		{
			"inputs": [
				{
					"internalType": "address",
					"name": "",
					"type": "address"
				}
			],
			"name": "multiSigners",
			"outputs": [
				{
					"internalType": "bytes32",
					"name": "merkleRoot",
					"type": "bytes32"
				},
				{
					"internalType": "uint256",
					"name": "threshold",
					"type": "uint256"
				}
			],
			"stateMutability": "view",
			"type": "function"
		},
		{
			"inputs": [],
			"name": "paused",
			"outputs": [
				{
					"internalType": "bool",
					"name": "",
					"type": "bool"
				}
			],
			"stateMutability": "view",
			"type": "function"
		},
		{
			"inputs": [],
			"name": "paymaster",
			"outputs": [
				{
					"internalType": "address",
					"name": "",
					"type": "address"
				}
			],
			"stateMutability": "view",
			"type": "function"
		},
		{
			"inputs": [],
			"name": "proxiableUUID",
			"outputs": [
				{
					"internalType": "bytes32",
					"name": "",
					"type": "bytes32"
				}
			],
			"stateMutability": "view",
			"type": "function"
		},
		{
			"inputs": [
				{
					"internalType": "bytes32",
					"name": "role",
					"type": "bytes32"
				},
				{
					"internalType": "address",
					"name": "callerConfirmation",
					"type": "address"
				}
			],
			"name": "renounceRole",
			"outputs": [],
			"stateMutability": "nonpayable",
			"type": "function"
		},
		{
			"inputs": [
				{
					"internalType": "bytes32",
					"name": "role",
					"type": "bytes32"
				},
				{
					"internalType": "address",
					"name": "account",
					"type": "address"
				}
			],
			"name": "revokeRole",
			"outputs": [],
			"stateMutability": "nonpayable",
			"type": "function"
		},
		{
			"inputs": [
				{
					"internalType": "address",
					"name": "signer",
					"type": "address"
				}
			],
			"name": "setDelegatedSigner",
			"outputs": [],
			"stateMutability": "nonpayable",
			"type": "function"
		},
		{
			"inputs": [
				{
					"internalType": "bool",
					"name": "stopped",
					"type": "bool"
				}
			],
			"name": "setEmergencyStop",
			"outputs": [],
			"stateMutability": "nonpayable",
			"type": "function"
		},
		{
			"inputs": [
				{
					"internalType": "address[]",
					"name": "signers",
					"type": "address[]"
				},
				{
					"internalType": "uint256",
					"name": "_threshold",
					"type": "uint256"
				},
				{
					"internalType": "bytes32",
					"name": "merkleRoot",
					"type": "bytes32"
				}
			],
			"name": "setMultiSigners",
			"outputs": [],
			"stateMutability": "nonpayable",
			"type": "function"
		},
		{
			"inputs": [
				{
					"internalType": "bytes4",
					"name": "interfaceId",
					"type": "bytes4"
				}
			],
			"name": "supportsInterface",
			"outputs": [
				{
					"internalType": "bool",
					"name": "",
					"type": "bool"
				}
			],
			"stateMutability": "view",
			"type": "function"
		},
		{
			"inputs": [],
			"name": "threshold",
			"outputs": [
				{
					"internalType": "uint64",
					"name": "",
					"type": "uint64"
				}
			],
			"stateMutability": "view",
			"type": "function"
		},
		{
			"inputs": [],
			"name": "timelock",
			"outputs": [
				{
					"internalType": "address payable",
					"name": "",
					"type": "address"
				}
			],
			"stateMutability": "view",
			"type": "function"
		},
		{
			"inputs": [
				{
					"internalType": "address",
					"name": "newImplementation",
					"type": "address"
				},
				{
					"internalType": "bytes",
					"name": "data",
					"type": "bytes"
				}
			],
			"name": "upgradeToAndCall",
			"outputs": [],
			"stateMutability": "payable",
			"type": "function"
		},
		{
			"inputs": [
				{
					"internalType": "address",
					"name": "",
					"type": "address"
				}
			],
			"name": "userAddressToId",
			"outputs": [
				{
					"internalType": "uint64",
					"name": "",
					"type": "uint64"
				}
			],
			"stateMutability": "view",
			"type": "function"
		},
		{
			"inputs": [
				{
					"components": [
						{
							"internalType": "address",
							"name": "sender",
							"type": "address"
						},
						{
							"internalType": "uint256",
							"name": "nonce",
							"type": "uint256"
						},
						{
							"internalType": "bytes",
							"name": "initCode",
							"type": "bytes"
						},
						{
							"internalType": "bytes",
							"name": "callData",
							"type": "bytes"
						},
						{
							"internalType": "uint256",
							"name": "callGasLimit",
							"type": "uint256"
						},
						{
							"internalType": "uint256",
							"name": "verificationGasLimit",
							"type": "uint256"
						},
						{
							"internalType": "uint256",
							"name": "preVerificationGas",
							"type": "uint256"
						},
						{
							"internalType": "uint256",
							"name": "maxFeePerGas",
							"type": "uint256"
						},
						{
							"internalType": "uint256",
							"name": "maxPriorityFeePerGas",
							"type": "uint256"
						},
						{
							"internalType": "bytes",
							"name": "paymasterAndData",
							"type": "bytes"
						},
						{
							"internalType": "bytes",
							"name": "signature",
							"type": "bytes"
						}
					],
					"internalType": "struct UserOperation",
					"name": "userOp",
					"type": "tuple"
				},
				{
					"internalType": "bytes32",
					"name": "userOpHash",
					"type": "bytes32"
				},
				{
					"internalType": "uint256",
					"name": "",
					"type": "uint256"
				}
			],
			"name": "validateUserOp",
			"outputs": [
				{
					"internalType": "uint256",
					"name": "",
					"type": "uint256"
				}
			],
			"stateMutability": "nonpayable",
			"type": "function"
		},
		{
			"stateMutability": "payable",
			"type": "receive"
		}
	]
}